:020000040800F2
:10000000000002209555000875530008835300082E
:10001000895300088F530008955300080000000022
:100020000000000000000000000000009B530008DA
:10003000A953000800000000B7530008C55300088A
:10004000E5550008E5550008E5550008E5550008A8
:10005000E5550008E5550008E5550008E555000898
:10006000E5550008E5550008E5550008D15300089E
:10007000E5550008E5550008E5550008E55300087A
:10008000E5550008E5550008E5550008F953000856
:100090000D540008E5550008E5550008E555000831
:1000A000E5550008E5550008E5550008E555000848
:1000B000E5550008E5550008E5550008E555000838
:1000C000E5550008E5550008E5550008E555000828
:1000D000E55500082154000835540008E55500088E
:1000E000E5550008E5550008E5550008E555000808
:1000F000E5550008E5550008E5550008E5550008F8
:10010000E5550008E5550008E5550008E5550008E7
:10011000E5550008E5550008E5550008E5550008D7
:10012000E5550008E5550008E5550008E5550008C7
:10013000E55500080000000000000000E55500083B
:10014000E5550008E5550008E5550008E5550008A7
:10015000E5550008E5550008E5550008E555000897
:10016000E5550008E5550008E5550008E555000887
:10017000E5550008E5550008E555000800000000B9
:1001800000000000E555000800000000000000002D
:10019000E55500080000000000000000E5550008DB
:1001A000000000000000000000000000E55500080D
:1001B000E5550008E5550008E5550008E555000837
:0401C000E5550008F9
:1001D00010B5054C237833B9044B13B10448AFF381
:1001E00000800123237010BD780000200000000073
:1001F00044ED000808B5034B1BB103490348AFF3B6
:10020000008008BD000000007C00002044ED0008D4
:1002100001F0FF01102A2BDB10F0070F08D010F8B7
:10022000013B013A8B422DD010F0070F42B3F6D1BB
:10023000F0B441EA012141EA014122F007047FF0D4
:1002400000070023F0E80256083C85EA010586EA2B
:10025000010685FA47F5A3FA87F586FA47F6A5FA67
:1002600087F68EB9EED1F0BC01F0FF0102F0070273
:1002700032B110F8013B013A83EA010313B1F8D11E
:100280000020704701387047002D06BF35460338FF
:10029000073815F0010F07D1013015F4807F02BF38
:1002A000013015F4C03F0130F0BC0138704700BF89
:1002B00081F0004102E000BF83F0004330B54FEA17
:1002C00041044FEA430594EA050F08BF90EA020F84
:1002D0001FBF54EA000C55EA020C7FEA645C7FEA17
:1002E000655C00F0E2804FEA5454D4EB5555B8BF3A
:1002F0006D420CDD2C4480EA020281EA030382EAAB
:10030000000083EA010180EA020281EA0303362D3C
:1003100088BF30BD11F0004F4FEA01314FF4801C0F
:100320004CEA113102D0404261EB410113F0004F21
:100330004FEA03334CEA133302D0524263EB4303D8
:1003400094EA050F00F0A780A4F10104D5F1200E76
:100350000DDB02FA0EFC22FA05F2801841F10001D1
:1003600003FA0EF2801843FA05F359410EE0A5F1A5
:1003700020050EF1200E012A03FA0EFC28BF4CF0D6
:10038000020C43FA05F3C01851EBE37101F000458C
:1003900007D54FF0000EDCF1000C7EEB00006EEB99
:1003A0000101B1F5801F1BD3B1F5001F0CD3490823
:1003B0005FEA30004FEA3C0C04F101044FEA44527A
:1003C00012F5800F80F09A80BCF1004F08BF5FEA01
:1003D000500C50F1000041EB045141EA050130BDE1
:1003E0005FEA4C0C404141EB0101013C28BFB1F5F3
:1003F000801FE9D291F0000F04BF01460020B1FA3E
:1004000081F308BF2033A3F10B03B3F120020CDA10
:100410000C3208DD02F1140CC2F10C0201FA0CF0EE
:1004200021FA02F10CE002F11402D8BFC2F1200C53
:1004300001FA02F120FA0CFCDCBF41EA0C01904009
:10044000E41AA2BF01EB0451294330BD6FEA040452
:100450001F3C1CDA0C340EDC04F11404C4F120023D
:1004600020FA04F001FA02F340EA030021FA04F34F
:1004700045EA030130BDC4F10C04C4F1200220FAA6
:1004800002F001FA04F340EA0300294630BD21FAE4
:1004900004F0294630BD94F0000F83F4801306BFAA
:1004A00081F480110134013D4EE77FEA645C18BF9E
:1004B0007FEA655C29D094EA050F08BF90EA020F35
:1004C00005D054EA000C04BF1946104630BD91EA2D
:1004D000030F1EBF0021002030BD5FEA545C05D130
:1004E0004000494128BF41F0004130BD14F580046F
:1004F0003CBF01F5801130BD01F0004545F0FE41E3
:1005000041F470014FF0000030BD7FEA645C1ABF17
:10051000194610467FEA655C1CBF0B46024650EA4E
:10052000013406BF52EA033591EA030F41F400217A
:1005300030BD00BF90F0000F04BF0021704730B500
:100540004FF4806404F132044FF000054FF00001D5
:1005500050E700BF90F0000F04BF0021704730B596
:100560004FF4806404F1320410F0004548BF40426B
:100570004FF000013EE700BF42004FEAE2014FEAC0
:1005800031014FEA02701FBF12F07F4393F07F4F9B
:1005900081F06051704732F07F4208BF704793F09E
:1005A0007F4F04BF41F40021704730B54FF46074B1
:1005B00001F0004521F000411CE700BF50EA0102B4
:1005C00008BF704730B54FF000050AE050EA01025D
:1005D00008BF704730B511F0004502D5404261EBCD
:1005E00041014FF4806404F132045FEA915C3FF40E
:1005F000D8AE4FF003025FEADC0C18BF03325FEAAB
:10060000DC0C18BF033202EBDC02C2F1200300FA5B
:1006100003FC20FA02F001FA03FE40EA0E0021FA80
:1006200002F11444BDE600BF70B54FF0FF0C4CF46E
:10063000E06C1CEA11541DBF1CEA135594EA0C0F20
:1006400095EA0C0F00F0DEF82C4481EA030621EA5B
:100650004C5123EA4C5350EA013518BF52EA033596
:1006600041F4801143F4801338D0A0FB02CE4FF048
:100670000005E1FB02E506F00042E0FB03E54FF078
:100680000006E1FB03569CF0000F18BF4EF0010E70
:10069000A4F1FF04B6F5007F64F5407404D25FEA6C
:1006A0004E0E6D4146EB060642EAC62141EA55511F
:1006B0004FEAC52040EA5E504FEACE2EB4F1FD0C61
:1006C00088BFBCF5E06F1ED8BEF1004F08BF5FEADF
:1006D000500E50F1000041EB045170BD06F0004691
:1006E00046EA010140EA020081EA0301B4EB5C043E
:1006F000C2BFD4EB0C0541EA045170BD41F4801136
:100700004FF0000E013C00F3AB8014F1360FDEBF5A
:10071000002001F0004170BDC4F10004203C35DA36
:100720000C341BDC04F11404C4F1200500FA05F3B9
:1007300020FA04F001FA05F240EA020001F000425A
:1007400021F0004110EBD37021FA04F642EB0601D0
:100750005EEA430E08BF20EAD37070BDC4F10C04FA
:10076000C4F1200500FA04F320FA05F001FA04F2BE
:1007700040EA020001F0004110EBD37041F10001AA
:100780005EEA430E08BF20EAD37070BDC4F12005B5
:1007900000FA05F24EEA020E20FA04F301FA05F21D
:1007A00043EA020321FA04F001F0004121FA04F2C5
:1007B00020EA020000EBD3705EEA430E08BF20EA95
:1007C000D37070BD94F0000F0FD101F000464000CF
:1007D00041EB010111F4801F08BF013CF7D041EA51
:1007E000060195F0000F18BF704703F00046520055
:1007F00043EB030313F4801F08BF013DF7D043EA26
:100800000603704794EA0C0F0CEA135518BF95EADB
:100810000C0F0CD050EA410618BF52EA4306D1D162
:1008200081EA030101F000414FF0000070BD50EA81
:10083000410606BF1046194652EA430619D094EA0B
:100840000C0F02D150EA013613D195EA0C0F05D1F5
:1008500052EA03361CBF104619460AD181EA030149
:1008600001F0004141F0FE4141F470014FF0000001
:1008700070BD41F0FE4141F4780170BD70B54FF09C
:10088000FF0C4CF4E06C1CEA11541DBF1CEA13551C
:1008900094EA0C0F95EA0C0F00F0A7F8A4EB0504FE
:1008A00081EA030E52EA03354FEA013100F08880F5
:1008B0004FEA03334FF0805545EA131343EA1263BE
:1008C0004FEA022245EA111545EA10654FEA002673
:1008D0000EF000419D4208BF964244F1FD0404F52C
:1008E000407402D25B084FEA3202B61A65EB030588
:1008F0005B084FEA32024FF480104FF4002CB6EB45
:10090000020E75EB030E22BFB61A754640EA0C00C4
:100910005B084FEA3202B6EB020E75EB030E22BF04
:10092000B61A754640EA5C005B084FEA3202B6EB45
:10093000020E75EB030E22BFB61A754640EA9C0004
:100940005B084FEA3202B6EB020E75EB030E22BFD4
:10095000B61A754640EADC0055EA060E18D04FEA92
:10096000051545EA16754FEA06164FEAC30343EA32
:1009700052734FEAC2025FEA1C1CC0D111F4801FFF
:100980000BD141EA00014FF000004FF0004CB6E7F8
:1009900011F4801F04BF01430020B4F1FD0C88BF97
:1009A000BCF5E06F3FF6AFAEB5EB030C04BFB6EBA2
:1009B000020C5FEA500C50F1000041EB045170BD95
:1009C0000EF0004E4EEA113114EB5C04C2BFD4EBC2
:1009D0000C0541EA045170BD41F480114FF0000E46
:1009E000013C90E645EA060E8DE60CEA135594EAC2
:1009F0000C0F08BF95EA0C0F3FF43BAF94EA0C0FC5
:100A00000AD150EA01347FF434AF95EA0C0F7FF439
:100A100025AF104619462CE795EA0C0F06D152EA8D
:100A200003353FF4FDAE1046194622E750EA410671
:100A300018BF52EA43067FF4C5AE50EA41047FF482
:100A40000DAF52EA43057FF4EBAE12E74FF0FF3CE7
:100A500006E000BF4FF0010C02E000BF4FF0010CB8
:100A60004DF804CD4FEA410C7FEA6C5C4FEA430C31
:100A700018BF7FEA6C5C1BD001B050EA410C0CBF80
:100A800052EA430C91EA030F02BF90EA020F0020E2
:100A9000704710F1000F91EA030F58BF994208BF49
:100AA00090422CBFD8176FEAE37040F00100704706
:100AB0004FEA410C7FEA6C5C02D150EA013C07D15D
:100AC0004FEA430C7FEA6C5CD6D152EA033CD3D0A8
:100AD0005DF8040B704700BF8446104662468C46A2
:100AE0001946634600E000BF01B5FFF7B7FF0028D5
:100AF00048BF10F1000F01BD4DF808EDFFF7F4FFFE
:100B00000CBF012000205DF808FB00BF4DF808ED88
:100B1000FFF7EAFF34BF012000205DF808FB00BFAB
:100B20004DF808EDFFF7E0FF94BF012000205DF8CD
:100B300008FB00BF4DF808EDFFF7CEFF94BF012082
:100B400000205DF808FB00BF4DF808EDFFF7C4FF7B
:100B500034BF012000205DF808FB00BF4FEA4102CE
:100B600012F5001215D211D56FF47873B3EB6252FF
:100B700012D94FEAC12343F0004343EA505311F026
:100B8000004F23FA02F018BF404270474FF00000B8
:100B9000704750EA013005D111F0004008BF6FF0F6
:100BA000004070474FF00000704700BF4A0011D26C
:100BB00012F5001211D20DD56FF47873B3EB6252B7
:100BC0000ED44FEAC12343F0004343EA505323FAC3
:100BD00002F070474FF00000704750EA013002D138
:100BE0004FF0FF3070474FF00000704753B94AB9DB
:100BF000002908BF00281CBF4FF0FF314FF0FF3025
:100C000000F0A6B9ADF1080C6DE904CE00F03CF897
:100C1000DDF804E0DDE9022304B0704738B50022B6
:100C2000002304460D46FFF771FF28B920462946E8
:100C3000BDE8384000F00AB8204605F1004100F058
:100C400005F8404261EB410138BD00BFD0B50C4B07
:100C5000002206460F46FFF7E7FCFFF7A7FF044612
:100C6000FFF768FC074B0022FFF7DEFC02460B464D
:100C700030463946FFF720FBFFF798FF2146D0BDED
:100C80000000F03D0000F0412DE9F047089E0D46C0
:100C900004460F46002B4AD18A42944665D9B2FADF
:100CA00082F343B102FA03FCC3F120029F4020FA11
:100CB00002F217439C404FEA1C4E1FFA8CF5B7FB1B
:100CC000FEF1220C0EFB117742EA074201FB05F010
:100CD00090420AD91CEB020201F1FF3780F01C811F
:100CE000904240F2198102396244121AA4B2B2FB56
:100CF000FEF00EFB102244EA024400FB05F5A5427B
:100D00000AD91CEB040400F1FF3280F00781A542F0
:100D100040F204816444023840EA0140641B00212F
:100D20001EB1DC400023C6E90043BDE8F0878B42DA
:100D300008D9002E00F0ED800021C6E90005084624
:100D4000BDE8F087B3FA83F1002949D1AB4202D361
:100D5000824200F2F880841A65EB030201201746F4
:100D6000002EE2D0C6E90047DFE702B9FFDEB2FAA3
:100D700082F3002B40F090808A1A4FEA1C471FFA3A
:100D80008CFE0121B2FBF7F507FB1520220C42EA8D
:100D900000420EFB05F0904208D91CEB020205F15F
:100DA000FF3802D2904200F2CB804546121AA4B21C
:100DB000B2FBF7F007FB102244EA02440EFB00FEF0
:100DC000A64508D91CEB040400F1FF3202D2A64567
:100DD00000F2BB801046A4EB0E0440EA05409FE7FA
:100DE000C1F120078B4022FA07FC4CEA030C05FAFC
:100DF00001F420FA07F3FD404FEA1C492343B5FBF9
:100E0000F9F81FFA8CFE09FB18551C0C44EA05443E
:100E100008FB0EF5A54202FA01F200FA01F00BD927
:100E20001CEB040408F1FF3A80F08880A54240F2F0
:100E30008580A8F102086444641B9DB2B4FBF9F3F9
:100E400009FB134445EA044403FB0EFEA64508D9FA
:100E50001CEB040403F1FF356CD2A6456AD9023BB2
:100E6000644443EA0843A3FB0295A4EB0E04AC429E
:100E7000C846AE4656D353D056B1B0EB080264EB29
:100E80000E0404FA07F7CA40CC401743C6E90074C1
:100E900018460021BDE8F087C3F1200102FA03FCE7
:100EA00020FA01F225FA01F19D402A434FEA1C473E
:100EB0001FFA8CFEB1FBF7F007FB1015110C41EA8D
:100EC000054100FB0EF58D4204FA03F408D91CEB32
:100ED000010100F1FF382FD28D422DD90238614433
:100EE000491B92B2B1FBF7F507FB151142EA01422B
:100EF00005FB0EF1914208D91CEB020205F1FF3807
:100F000016D2914214D9023D6244521A45EA004178
:100F100038E73146304608E73946E6E61046FBE654
:100F20004845A9D2B9EB020865EB0C0E013BA3E7DB
:100F30004546EAE72B4694E74046D1E7D0467BE7B3
:100F4000023D624432E708460AE76444023842E759
:100F5000704700BF80B485B000AF0346B9607A60C7
:100F6000FB7300BF1437BD465DF8047B704780B447
:100F700085B000AF0346B9607A60FB7300BF1437D9
:100F8000BD465DF8047B704780B485B000AF034672
:100F9000B9607A60FB7300BF1437BD465DF8047B0F
:100FA000704780B485B000AF0346B9607A60FB73C8
:100FB00000BF1437BD465DF8047B704780B485B030
:100FC00000AF0346B9607A60FB7300BF1437BD46BB
:100FD0005DF8047B704780B485B000AF0346B9600C
:100FE0007A60FB7300BF1437BD465DF8047B704721
:100FF00080B485B000AF0346B9607A60FB7300BF70
:101000001437BD465DF8047B704780B485B000AFEF
:101010000346B9607A60FB7300BF1437BD465DF8C4
:10102000047B704780B485B000AF0346B9607A6036
:10103000FB7300BF1437BD465DF8047B704780B476
:1010400085B000AF0346B9607A60FB7300BF143708
:10105000BD465DF8047B704780B485B000AF0346A1
:10106000B9607A60FB7300BF1437BD465DF8047B3E
:10107000704780B485B000AF0346B9607A60FB73F7
:1010800000BF1437BD465DF8047B704780B485B05F
:1010900000AF0346B9607A60FB7300BF1437BD46EA
:1010A0005DF8047B704780B485B000AF0346B9603B
:1010B0007A60FB7300BF1437BD465DF8047B704750
:1010C00080B485B000AF0346B9607A60FB7300BF9F
:1010D0001437BD465DF8047B704780B485B000AF1F
:1010E0000346B9607A60FB7300BF1437BD465DF8F4
:1010F000047B704780B485B000AF0346B9607A6066
:10110000FB7300BF1437BD465DF8047B704780B4A5
:1011100085B000AF0346B9607A60FB7300BF143737
:10112000BD465DF8047B704780B485B000AF0346D0
:10113000B9607A60FB7300BF1437BD465DF8047B6D
:10114000704790B589B006AF0446084611461A4666
:101150002346FB710346BB710B467B7113463B7103
:101160007979BA793B7F04933B7E039304230293FE
:10117000062301933B7900930B460821002001F0E0
:10118000F9FC044697F82030796A184601F0D8FB3C
:101190000246FB792146184601F0D0FA00BF0C3711
:1011A000BD4690BD80B485B000AF0346B9607A609B
:1011B000FB7300BF1437BD465DF8047B704780B4F5
:1011C00085B000AF0346B9607A60FB7300BF143787
:1011D000BD465DF8047B704780B485B000AF034620
:1011E000B9607A60FB7300BF1437BD465DF8047BBD
:1011F000704780B485B000AF0346B9607A60FB7376
:1012000000BF1437BD465DF8047B704780B485B0DD
:1012100000AF0346B9607A60FB7300BF1437BD4668
:101220005DF8047B704780B485B000AF0346B960B9
:101230007A60FB7300BF1437BD465DF8047B7047CE
:1012400090B589B006AF0446084611461A462346B3
:10125000FB710346BB710B467B7113463B71797979
:10126000BA793B7F04933B7E0393002302930023D0
:1012700001933B7900930B460021002001F07AFC9A
:10128000044601F077FB0246FB792146184601F03F
:1012900055FA00BF0C37BD4690BD80B485B000AF95
:1012A0000346B9607A60FB7300BF1437BD465DF832
:1012B000047B704780B485B000AF0346B9607A60A4
:1012C000FB7300BF1437BD465DF8047B704790B5D3
:1012D00089B006AF0446084611461A462346FB71FC
:1012E0000346BB710B467B7113463B717979BA7922
:1012F0003B7F04933B7E03930123029300230193DE
:101300003B7900930B460721012001F033FC044692
:10131000BB8D3A8DB98C97F8200001F035FB024661
:10132000FB792146184601F009FA00BF0C37BD468B
:1013300090BD80B485B000AF0346B9607A60FB739E
:1013400000BF1437BD465DF8047B704780B485B09C
:1013500000AF0346B9607A60FB7300BF1437BD4627
:101360005DF8047B704780B485B000AF0346B96078
:101370007A60FB7300BF1437BD465DF8047B70478D
:1013800080B485B000AF0346B9607A60FB7300BFDC
:101390001437BD465DF8047B704780B485B000AF5C
:1013A0000346B9607A60FB7300BF1437BD465DF831
:1013B000047B704790B589B006AF044608461146D5
:1013C0001A462346FB710346BB710B467B711346DD
:1013D0003B717979BA793B7F04933B7E0393032376
:1013E0000293002301933B7900930B4602210020D6
:1013F00001F0C0FB044697F8242097F820301146EE
:10140000184601F0E9FA0246FB792146184601F038
:1014100095F900BF0C37BD4690BD90B589B006AFB9
:101420000446084611461A462346FB710346BB7123
:101430000B467B7113463B717979BA793B7F0493F4
:101440003B7E039303230293002301933B79009394
:101450000B460221012001F08DFB044697F8242061
:1014600097F820301146184601F0D0FA0246FB7971
:101470002146184601F062F900BF0C37BD4690BD09
:1014800080B485B000AF0346B9607A60FB7300BFDB
:101490001437BD465DF8047B704790B589B006AF40
:1014A0000446084611461A462346FB710346BB71A3
:1014B0000B467B7113463B717979BA793B7F049374
:1014C0003B7E039304230293002301933B79009313
:1014D0000B460821002001F04DFB0446D7E9080126
:1014E00001F0AEFA0246FB792146184601F026F9D2
:1014F00000BF0C37BD4690BD90B589B006AF04461D
:10150000084611461A462346FB710346BB710B463B
:101510007B7113463B717979BA793B7F04933B7EAB
:10152000039304230293002301933B7900930B461A
:101530000821012001F01EFB0446D7E9080101F053
:1015400095FA0246FB792146184601F0F7F800BFEC
:101550000C37BD4690BD80B485B000AF0346B9607E
:101560007A60FB7300BF1437BD465DF8047B70479B
:1015700080B485B000AF0346B9607A60FB7300BFEA
:101580001437BD465DF8047B704790B589B006AF4F
:101590000446084611461A462346FB710346BB71B2
:1015A0000B467B7113463B717979BA793B7F049383
:1015B0003B7E039305230293002301933B79009321
:1015C0000B460121012001F0D5FA044697F820309E
:1015D000184601F061FA0246FB792146184601F0EF
:1015E000ADF800BF0C37BD4690BD80B485B000AFEC
:1015F0000346B9607A60FB7300BF1437BD465DF8DF
:10160000047B704790B589B006AF04460846114682
:101610001A462346FB710346BB710B467B7113468A
:101620003B717979BA793B7F04933B7E0393062320
:101630000293002301933B7900930B460021012084
:1016400001F098FA044601F03BFA0246FB79214684
:10165000184601F073F800BF0C37BD4690BD80B44A
:1016600085B000AF0346B9607A60FB7300BF1437E2
:10167000BD465DF8047B704780B485B000AF03467B
:10168000B9607A60FB7300BF1437BD465DF8047B18
:10169000704780B485B000AF0346B9607A60FB73D1
:1016A00000BF1437BD465DF8047B704780B485B039
:1016B00000AF0346B9607A60FB7300BF1437BD46C4
:1016C0005DF8047B704780B485B000AF0346B96015
:1016D0007A60FB7300BF1437BD465DF8047B70472A
:1016E00090B589B006AF0446084611461A4623460F
:1016F000FB710346BB710B467B7113463B717979D5
:10170000BA793B7F04933B7E039300230293072324
:1017100001933B7900930B460521012001F02AFA41
:10172000044697F82030796A184601F0D3F902464A
:10173000FB792146184601F001F800BF0C37BD4681
:1017400090BD90B589B006AF0446084611461A46CA
:101750002346FB710346BB710B467B7113463B71FD
:101760007979BA793B7F04933B7E039300230293FC
:10177000072301933B7900930B460321012001F0DD
:10178000F9F90446BA8C97F820301146184601F052
:10179000BBF90246FB792146184600F0CFFF00BF97
:1017A0000C37BD4690BD80B485B000AF0346B9602C
:1017B0007A60FB7300BF1437BD465DF8047B704749
:1017C00080B485B000AF0346B9607A60FB7300BF98
:1017D0001437BD465DF8047B704780B485B000AF18
:1017E0000346B9607A60FB7300BF1437BD465DF8ED
:1017F000047B704780B485B000AF0346B9607A605F
:10180000FB7300BF1437BD465DF8047B704780B49E
:1018100085B000AF0346B9607A60FB7300BF143730
:10182000BD465DF8047B704780B485B000AF0346C9
:10183000B9607A60FB7300BF1437BD465DF8047B66
:10184000704780B485B000AF0346B9607A60FB731F
:1018500000BF1437BD465DF8047B704780B485B087
:1018600000AF0346B9607A60FB7300BF1437BD4612
:101870005DF8047B704780B485B000AF0346B96063
:101880007A60FB7300BF1437BD465DF8047B704778
:1018900080B485B000AF0346B9607A60FB7300BFC7
:1018A0001437BD465DF8047B704780B485B000AF47
:1018B0000346B9607A60FB7300BF1437BD465DF81C
:1018C000047B704780B485B000AF0346B9607A608E
:1018D000FB7300BF1437BD465DF8047B704780B4CE
:1018E00085B000AF0346B9607A60FB7300BF143760
:1018F000BD465DF8047B704780B485B000AF0346F9
:10190000B9607A60FB7300BF1437BD465DF8047B95
:10191000704780B485B000AF0346B9607A60FB734E
:1019200000BF1437BD465DF8047B704780B485B0B6
:1019300000AF0346B9607A60FB7300BF1437BD4641
:101940005DF8047B704780B485B000AF0346B96092
:101950007A60FB7300BF1437BD465DF8047B7047A7
:1019600080B485B000AF0346B9607A60FB7300BFF6
:101970001437BD465DF8047B704780B485B000AF76
:101980000346B9607A60FB7300BF1437BD465DF84B
:10199000047B704780B485B000AF0346B9607A60BD
:1019A000FB7300BF1437BD465DF8047B704780B4FD
:1019B00085B000AF0346B9607A60FB7300BF14378F
:1019C000BD465DF8047B704780B485B000AF034628
:1019D000B9607A60FB7300BF1437BD465DF8047BC5
:1019E000704780B485B000AF0346B9607A60FB737E
:1019F00000BF1437BD465DF8047B704780B485B0E6
:101A000000AF0346B9607A60FB7300BF1437BD4670
:101A10005DF8047B704780B485B000AF0346B960C1
:101A20007A60FB7300BF1437BD465DF8047B7047D6
:101A300080B485B000AF0346B9607A60FB7300BF25
:101A40001437BD465DF8047B704780B485B000AFA5
:101A50000346B9607A60FB7300BF1437BD465DF87A
:101A6000047B704780B485B000AF0346B9607A60EC
:101A7000FB7300BF1437BD465DF8047B704780B42C
:101A800085B000AF0346B9607A60FB7300BF1437BE
:101A9000BD465DF8047B704780B485B000AF034657
:101AA000B9607A60FB7300BF1437BD465DF8047BF4
:101AB000704780B485B000AF0346B9607A60FB73AD
:101AC00000BF1437BD465DF8047B704780B485B015
:101AD00000AF0346B9607A60FB7300BF1437BD46A0
:101AE0005DF8047B704780B485B000AF0346B960F1
:101AF0007A60FB7300BF1437BD465DF8047B704706
:101B000080B485B000AF0346B9607A60FB7300BF54
:101B10001437BD465DF8047B704780B485B000AFD4
:101B20000346B9607A60FB7300BF1437BD465DF8A9
:101B3000047B704780B485B000AF0346B9607A601B
:101B4000FB7300BF1437BD465DF8047B704780B45B
:101B500085B000AF0346B9607A60FB7300BF1437ED
:101B6000BD465DF8047B704780B485B000AF034686
:101B7000B9607A60FB7300BF1437BD465DF8047B23
:101B8000704780B485B000AF0346B9607A60FB73DC
:101B900000BF1437BD465DF8047B704780B485B044
:101BA00000AF0346B9607A60FB7300BF1437BD46CF
:101BB0005DF8047B704780B485B000AF0346B96020
:101BC0007A60FB7300BF1437BD465DF8047B704735
:101BD00080B485B000AF0346B9607A60FB7300BF84
:101BE0001437BD465DF8047B704780B485B000AF04
:101BF0000346B9607A60FB7300BF1437BD465DF8D9
:101C0000047B704780B485B000AF0346B9607A604A
:101C1000FB7300BF1437BD465DF8047B704780B48A
:101C200085B000AF0346B9607A60FB7300BF14371C
:101C3000BD465DF8047B704780B485B000AF0346B5
:101C4000B9607A60FB7300BF1437BD465DF8047B52
:101C5000704790B589B006AF0446084611461A464B
:101C60002346FB710346BB710B467B7113463B71E8
:101C70007979BA793B7F04933B7E039300230293E7
:101C8000052301933B7900930B460221002000F0CD
:101C900071FF044697F8242097F820301146184623
:101CA00000F04EFF0246FB792146184600F046FD43
:101CB00000BF0C37BD4690BD80B485B000AF034671
:101CC000B9607A60FB7300BF1437BD465DF8047BD2
:101CD000704780B485B000AF0346B9607A60FB738B
:101CE00000BF1437BD465DF8047B704780B485B0F3
:101CF00000AF0346B9607A60FB7300BF1437BD467E
:101D00005DF8047B7047000080B483B000AF78605A
:101D10000F4B1B780E4A9B01134404337A681A60F8
:101D20000B4B1B7818460A4B1978094A8301134458
:101D300008330A461A70064B1B780133DAB2044B9B
:101D40001A7000BF0C37BD465DF8047B704700BFBA
:101D5000B800002080B483B000AF0346FB71044A92
:101D6000FB79537000BF0C37BD465DF8047B7047AC
:101D70009400002080B485B000AF03460A46FB7192
:101D80001346BB710023FB6011E0FB68DAB20D4B18
:101D90001B78591CC8B20B4908701946FB791344CB
:101DA000DAB2084B0B449A70FB680133FB60BB79D5
:101DB000FA689A42E9DB00BF00BF1437BD465DF800
:101DC000047B70479400002080B400AFFEE7000061
:101DD00080B483B000AF78600B467B8013467B7085
:101DE0001F4B1B78002B34D11D4B1B7819461C4A06
:101DF0000B465B000B449B001344013301221A7015
:101E0000174B1B781946164A0B465B000B449B0088
:101E100013447A68C3F80220114B1B781946104A04
:101E20000B465B000B449B00134406337A881A80F0
:101E30000B4B1B785A1CD1B2094A11701946084A3B
:101E40000B465B000B449B00134408337A781A70EE
:101E500000E000BF0C37BD465DF8047B704700BF53
:101E6000001B002090B583B000AF0346FB71FB79E7
:101E7000002B65D1FA79344913465B0013449B006B
:101E80000B4401331B78002B5BD0FA792E491346A3
:101E90005B0013449B000B4408331B78002B21D1BB
:101EA000FA79294913465B0013449B000B44D3F88D
:101EB00002305969FA79244813465B0013449B00A9
:101EC000034406331B88DB431C46FA791E4813463D
:101ED0005B0013449B000344D3F8023001EA040280
:101EE0005A611FE0FA79184913465B0013449B00BE
:101EF0000B44D3F802305969FA79134813465B0052
:101F000013449B00034406331B881C46FA790E4891
:101F100013465B0013449B000344D3F8023041EAAC
:101F200004025A61FC7903F0C5FB024606492346C8
:101F30005B0023449B000B440833C3F8012000E0FE
:101F400000BF0C37BD4690BD001B002090B583B08C
:101F500000AF00237B6069E03A497A6813465B0072
:101F600013449B000B4401331B78002B5BD0354995
:101F70007A6813465B0013449B000B440833D3F884
:101F8000014003F097FB03469C424CD02D497A68F0
:101F900013465B0013449B000B4408331B78002B53
:101FA00020D128497A6813465B0013449B000B44F8
:101FB000D3F80230596923487A6813465B0013440A
:101FC0009B00034406331B881C461E487A68134650
:101FD0005B0013449B000344D3F8023041EA04023F
:101FE0005A6120E017497A6813465B0013449B004E
:101FF0000B44D3F80230596912487A6813465B00E3
:1020000013449B00034406331B88DB431C460D48E6
:102010007A6813465B0013449B000344D3F80230F4
:1020200001EA04025A617B6801337B60054B1B782F
:102030001A467B6893428FDB00BF00BF0C37BD465A
:1020400090BD00BF001B002080B483B000AF0346EA
:10205000FB71FB79174941F6042203FB02F20A44A3
:1020600002321288013290B2124A41F6042101FB79
:1020700003F31344023302461A80FB790D4A41F6FA
:10208000042101FB03F3134402331B88B3F5007FE3
:1020900009D3FB79074A41F6042101FB03F31344FA
:1020A000023300221A8000BF0C37BD465DF8047B66
:1020B000704700BFFC00002080B483B000AF03462F
:1020C000FB71FB791F4A41F6042101FB03F3134422
:1020D0001A88FB791B4941F6042000FB03F30B44EB
:1020E00002331B889A4226D0FB79164941F6042216
:1020F00003FB02F20A441288013290B2114A41F6FF
:10210000042101FB03F3134402461A80FB790D4AB4
:1021100041F6042101FB03F313441B88B3F5007F50
:102120000AD3FB79074A41F6042101FB03F3134468
:1021300000221A8000E000BF0C37BD465DF8047B2A
:10214000704700BFFC00002080B483B000AF78600F
:1021500000BF0C37BD465DF8047B704790B585B075
:1021600000AF78600023FB6073E07B681A683F492A
:10217000FB689B010B4404331B681B689A4265D1C2
:10218000FB689B010833394A1344191D384AFB6820
:1021900041F6042000FB03F3134402331B8803F5CC
:1021A000A073DA00FB6841F6042000FB03F313443C
:1021B0002F4A134404330A460021786803F0B6FD21
:1021C0000346002B01D0FFF7FFFD284AFB689B0167
:1021D00013441C331C68264AFB6841F6042101FBAA
:1021E00003F3134402331B881846E4B22049FA680B
:1021F00003469B00034441F6042000FB02F2134413
:102200000B44043322461A70194AFB6841F6042134
:1022100001FB03F3134402331B881C46134AFB687B
:102220009B01134410331A681148F96823469B0038
:10223000234441F6042404FB01F10B440344C3F896
:102240000520FB68DBB21846FFF7FEFEFB68013392
:10225000FB60064B1B781A46FB68934285DB786867
:10226000FFF772FF00BF1437BD4690BDB8000020D5
:10227000FC00002090B585B000AF0023FB609DE01E
:10228000554AFB6841F6042101FB03F31344023372
:102290001A885149FB6841F6042000FB03F30B4404
:1022A0001B889A4200F087804B4AFB6841F6042164
:1022B00001FB03F313441B881A4613469B00134487
:1022C000FA6841F6042101FB02F21344424A134426
:1022D00004337B607B68DB7803F00C03DBB20C2BF0
:1022E00064D00023BB605BE07B68DB78C3F303133F
:1022F000DBB21A46394B5B789A4206D07B68DB78B2
:1023000023F00F03DBB2F02B47D17B685B78C3F37C
:102310000403DBB21946314ABB68134402331B780D
:10232000994206D07B685B7803F01F03DBB21F2B5A
:1023300033D1FB68DBB21846FFF794FDFB68D8B2D7
:10234000254AFB6841F6042101FB03F313441B8873
:102350001A4613469B001344FA6841F6042101FB18
:1023600002F213441C4A1344191D1B4AFB6841F630
:10237000042404FB03F313441B8803F5A073DA0061
:10238000FB6841F6042404FB03F31344124A13448C
:1023900004331A4600F078FC08E0BB680133BB60E8
:1023A0000E4B1B781A46BB6893429DDBFB68DBB281
:1023B0001846FFF781FEFB680133FB60084B1B7872
:1023C0001A46FB689342FFF65BAFFFF7BFFD00BF05
:1023D0001437BD4690BD00BFFC00002094000020D3
:1023E000B800002080B400AFFEE7000080B483B0E6
:1023F00000AF78600B467B8013467B701F4B1B78C9
:10240000002B34D11D4B1B7819461C4A0B465B0030
:102410000B449B001344013301221A70174B1B78A5
:102420001946164A0B465B000B449B0013447A681E
:10243000C3F80220114B1B781946104A0B465B006B
:102440000B449B00134406337A881A800B4B1B788D
:102450005A1CD1B2094A11701946084A0B465B0052
:102460000B449B00134408337A781A7000E000BFD5
:102470000C37BD465DF8047B704700BF2435002053
:1024800090B583B000AF0346FB71FB79002B65D19B
:10249000FA79344913465B0013449B000B44013323
:1024A0001B78002B5BD0FA792E4913465B0013444E
:1024B0009B000B4408331B78002B21D1FA79294962
:1024C00013465B0013449B000B44D3F80230596958
:1024D000FA79244813465B0013449B0003440633F7
:1024E0001B88DB431C46FA791E4813465B001344E5
:1024F0009B000344D3F8023001EA04025A611FE052
:10250000FA79184913465B0013449B000B44D3F837
:1025100002305969FA79134813465B0013449B0053
:10252000034406331B881C46FA790E4813465B00A9
:1025300013449B000344D3F8023041EA04025A6179
:10254000FC7903F0B7F80246064923465B002344B2
:102550009B000B440833C3F8012000E000BF0C3798
:10256000BD4690BD2435002090B583B000AF002358
:102570007B6069E03A497A6813465B0013449B002C
:102580000B4401331B78002B5BD035497A68134626
:102590005B0013449B000B440833D3F8014003F065
:1025A00089F803469C424CD02D497A6813465B005B
:1025B00013449B000B4408331B78002B20D128497F
:1025C0007A6813465B0013449B000B44D3F8023037
:1025D000596923487A6813465B0013449B000344FF
:1025E00006331B881C461E487A6813465B0013445A
:1025F0009B000344D3F8023041EA04025A6120E010
:1026000017497A6813465B0013449B000B44D3F8C8
:102610000230596912487A6813465B0013449B00E4
:10262000034406331B88DB431C460D487A68134677
:102630005B0013449B000344D3F8023001EA040218
:102640005A617B6801337B60054B1B781A467B68B7
:1026500093428FDB00BF00BF0C37BD4690BD00BF6B
:102660002435002080B483B000AF0346FB71FB79B2
:10267000174941F6042203FB02F20A44023212888F
:10268000013290B2124A41F6042101FB03F31344D4
:10269000023302461A80FB790D4A41F6042101FB00
:1026A00003F3134402331B88B3F5007F09D3FB798E
:1026B000074A41F6042101FB03F3134402330022CD
:1026C0001A8000BF0C37BD465DF8047B704700BF21
:1026D000101B002080B483B000AF0346FB71FB7970
:1026E000154941F6042203FB02F20A441288013222
:1026F00090B2114A41F6042101FB03F31344024650
:102700001A80FB790C4A41F6042101FB03F31344C0
:102710001B88B3F5007F08D3FB79074A41F60421F3
:1027200001FB03F3134400221A8000BF0C37BD469F
:102730005DF8047B704700BF101B002080B584B09B
:1027400000AF0346B9607A60FB73FA7BFB7B1E49DE
:1027500041F6042000FB03F30B4402331B881946A7
:102760000B469B000B4441F6042101FB02F213448B
:10277000154A134404330522B96818460BF076FA5B
:10278000FB7BFA7B104941F6042000FB02F20A446D
:102790000232128802F5A072D20041F6042101FB38
:1027A00003F31344084A1344181DBB681B781A46E8
:1027B00079680BF05BFAFB7B1846FFF753FF00BF0D
:1027C0001037BD4680BD00BF101B002090B583B000
:1027D00000AF00237B60A1E0574A7B6841F60421EB
:1027E00001FB03F3134402331A8853497B6841F613
:1027F000042000FB03F30B441B889A4200F08B80FB
:102800004E4A7B689B01134404331B68184603F04F
:1028100058FA0346032B7ED1484A7B689B01134438
:10282000303304221A60444A7B6841F6042101FBDC
:1028300003F313441B8818463F497A6803469B00FC
:10284000034441F6042000FB02F213440B4404331A
:102850001B781946394A7B689B0113443833196049
:10286000354A7B6841F6042101FB03F313441B88BE
:10287000184631497A6803469B00034441F6042018
:1028800000FB02F213440B44D3F805202B497B686C
:102890009B010B442C331A60284A7B689B0113442C
:1028A0003C3300221A70254A7B689B011344043391
:1028B00018687B689B012033204A134403F1080108
:1028C0001D4A7B6841F6042404FB03F313441B8870
:1028D00003F5A073DA007B6841F6042404FB03F3DC
:1028E0001344154A13441A1D7B689B013833134C5B
:1028F0002344083303F00AF90346002B01D0FFF705
:1029000071FD7B68DBB21846FFF7E4FE7B68DBB243
:102910001846FFF7B5FD7B6801337B60074B1B78DA
:102920001A467B689342FFF657AFFFF71DFE00BFC4
:102930000C37BD4690BD00BF101B0020B800002022
:1029400080B584B000AF03463960FB71084BFB6073
:10295000FB68FA791A70FB68013307223968184658
:102960000BF084F9024B18461037BD4680BD00BFFE
:102970001C35002080B400AF024B1846BD465DF800
:10298000047B70471C35002090B484B000AF04462F
:10299000084611461A462346FB710346BB800B4688
:1029A0007B8013463B800B4BFB60FB68FA791A7007
:1029B000FB68BA88A3F80120FB687A88A3F8032093
:1029C000FB683A88A3F80520024B18461037BD462D
:1029D00090BC70471C35002080B485B000AF034622
:1029E0000A46FB711346BB71074BFB60FB68FA7923
:1029F0001A70FB68BA795A70034B18461437BD46F3
:102A00005DF8047B704700BF1C35002080B485B0A2
:102A100000AF03460A46FB711346BB71074BFB60D0
:102A2000FB68FA791A70FB68BA795A70034B18463A
:102A30001437BD465DF8047B704700BF1C3500208D
:102A400080B485B000AFC7E90001074BFB60FB68AD
:102A50003A681A607A685A60034B18461437BD46C4
:102A60005DF8047B704700BF1C35002080B485B042
:102A700000AFC7E90001074BFB60FB683A681A60CA
:102A80007A685A60034B18461437BD465DF8047BDC
:102A9000704700BF1C35002080B485B000AF0346EE
:102AA000FB71064BFB60FB68FA791A70034B184602
:102AB0001437BD465DF8047B704700BF1C3500200D
:102AC00080B400AF024B1846BD465DF8047B7047EA
:102AD0001C35002080B485B000AF03463960FB711F
:102AE000084BFB60FB680133BB60FB68FA791A7026
:102AF000BB683A681A60034B18461437BD465DF848
:102B0000047B70471C35002080B485B000AF0346BD
:102B10000A46FB711346BB80084BFB60FB68013320
:102B2000BB60FB68FA791A70BB68BA881A80034BDD
:102B300018461437BD465DF8047B70471C350020ED
:102B400080B485B000AF03460A46FB711346BB71E3
:102B5000074BFB60FB68FA791A70FB68BA795A7008
:102B6000034B18461437BD465DF8047B704700BF21
:102B70001C35002090B482B000AF044608461146D0
:102B80001A462346FB710346BB710B467B71134605
:102B90003B713C4ABB7913707B7903F00103D9B2D6
:102BA000384A137961F3041313713B7903F00F036F
:102BB000D9B2344A137961F3030313713B7C03F0F8
:102BC0000F03D9B22F4AD37861F30713D370FB797F
:102BD00003F00303D9B22B4AD37861F38303D37094
:102BE0003B7D03F00F03DAB2264B02F003018C01A8
:102BF000997801F03F0108462146014399709208F7
:102C0000D2B202F0030202F00300DA7822F00302EB
:102C1000114602460A43DA703B7E03F00F03D9B235
:102C2000184A937861F3850393703B7F03F01F0389
:102C3000DAB2144B02F007014C01597801F01F0180
:102C40000846214601435970D208D2B202F003026D
:102C500002F003009A7822F00302114602460A436A
:102C60009A7097F8203003F01F03D9B2054A5378C1
:102C700061F304035370034B18460837BD4690BCFC
:102C8000704700BF1435002080B584B000AF034604
:102C9000B9607A60FB73BB689A789209D2B2DB782C
:102CA00003F003039B001343DBB2092B55D801A2A9
:102CB00052F823F0DD2C0008EB2C0008F92C00085A
:102CC000072D0008152D0008232D0008312D0008C0
:102CD0003F2D00085B2D00084D2D0008FB7B7A6816
:102CE000B968184600F020FA37E0FB7B7A68B968CB
:102CF000184600F02BFF30E0FB7B7A68B968184675
:102D000000F0E8FC29E0FB7B7A68B968184600F01F
:102D100029F822E0FB7B7A68B968184601F04FF881
:102D20001BE0FB7B7A68B968184601F001F814E0F3
:102D3000FB7B7A68B968184600F096F80DE0FB7BDB
:102D40007A68B968184600F0BDFB06E0FB7B7A683C
:102D5000B968184600F0FEFB00BF00BF1037BD4643
:102D600080BD00BF80B584B000AF0346B9607A6013
:102D7000FB73BB689B78C3F38303DBB2022B0CD0DD
:102D8000022B11DC002B01D0012B0DE0FB7B7A68BC
:102D9000B968184600F00CF806E0FB7B7A68B96861
:102DA000184600F033F800BF00BF1037BD4680BDA5
:102DB00080B584B000AF0346B9607A60FB73BB682E
:102DC000DB78C3F38103DBB2022B14D0022B19DCB6
:102DD000002B02D0012B07D014E0FB7B7A68B96886
:102DE0001846FEF7B7F80DE0FB7B7A68B96818461D
:102DF000FEF7BDF806E0FB7B7A68B9681846FEF777
:102E0000C3F800BF00BF1037BD4680BD80B584B099
:102E100000AF0346B9607A60FB73BB68DB78C3F32D
:102E20008103DBB2022B14D0022B19DC002B02D061
:102E3000012B07D014E0FB7B7A68B9681846FEF7CF
:102E4000B0F80DE0FB7B7A68B9681846FEF7B6F873
:102E500006E0FB7B7A68B9681846FEF7BCF800BF4D
:102E600000BF1037BD4680BD80B584B000AF0346BB
:102E7000B9607A60FB73BB689B78C3F38303DBB2F2
:102E8000052B39D801A252F823F000BFA52E000867
:102E9000B32E0008C12E0008CF2E0008DD2E00083A
:102EA000EB2E0008FB7B7A68B968184600F028F81A
:102EB00022E0FB7B7A68B968184600F04FF81BE007
:102EC000FB7B7A68B968184600F076F814E0FB7B63
:102ED0007A68B968184600F09DF80DE0FB7B7A68C7
:102EE000B968184600F0C4F806E0FB7B7A68B96858
:102EF000184600F0EBF800BF00BF1037BD4680BD9C
:102F000080B584B000AF0346B9607A60FB73BB68DC
:102F1000DB78C3F38103DBB2022B14D0022B19DC64
:102F2000002B02D0012B07D014E0FB7B7A68B96834
:102F30001846FEF75DF80DE0FB7B7A68B968184625
:102F4000FEF763F806E0FB7B7A68B9681846FEF77F
:102F500069F800BF00BF1037BD4680BD80B584B0A2
:102F600000AF0346B9607A60FB73BB68DB78C3F3DC
:102F70008103DBB2022B14D0022B19DC002B02D010
:102F8000012B07D014E0FB7B7A68B9681846FEF77E
:102F900056F80DE0FB7B7A68B9681846FEF75CF8D6
:102FA00006E0FB7B7A68B9681846FEF762F800BF56
:102FB00000BF1037BD4680BD80B584B000AF03466A
:102FC000B9607A60FB73BB68DB78C3F38103DBB263
:102FD000022B14D0022B19DC002B02D0012B07D0BE
:102FE00014E0FB7B7A68B9681846FEF74FF80DE0ED
:102FF000FB7B7A68B9681846FEF755F806E0FB7B5C
:103000007A68B9681846FEF75BF800BF00BF103752
:10301000BD4680BD80B584B000AF0346B9607A601C
:10302000FB73BB68DB78C3F38103DBB2022B14D0E4
:10303000022B19DC002B02D0012B07D014E0FB7B04
:103040007A68B968184607F0C3FB0DE0FB7B7A6825
:10305000B9681846FEF741F806E0FB7B7A68B96864
:103060001846FEF747F800BF00BF1037BD4680BDC9
:1030700080B584B000AF0346B9607A60FB73BB686B
:10308000DB78C3F38103DBB2022B14D0022B19DCF3
:10309000002B02D0012B07D014E0FB7B7A68B968C3
:1030A0001846FEF734F80DE0FB7B7A68B9681846DD
:1030B00007F0B8F906E0FB7B7A68B9681846FEF7B6
:1030C00033F800BF00BF1037BD4680BD80B584B067
:1030D00000AF0346B9607A60FB73BB68DB78C3F36B
:1030E0008103DBB2022B14D0022B19DC002B02D09F
:1030F000012B07D014E0FB7B7A68B9681846FEF70D
:1031000051F80DE0FB7B7A68B9681846FEF757F86E
:1031100006E0FB7B7A68B9681846FEF75DF800BFE9
:1031200000BF1037BD4680BD80B584B000AF0346F8
:10313000B9607A60FB73BB689B78C3F38303DBB22F
:10314000072B4BD801A252F823F000BF6D310008C5
:103150007B3100088931000897310008A53100084B
:10316000B3310008C1310008CF310008FB7B7A6819
:10317000B968184600F036F830E0FB7B7A68B96829
:10318000184600F05DF829E0FB7B7A68B9681846BC
:1031900000F084F822E0FB7B7A68B968184600F0FA
:1031A000ABF81BE0FB7B7A68B968184600F0D2F8F0
:1031B00014E0FB7B7A68B968184600F0F9F80DE076
:1031C000FB7B7A68B968184600F020F906E0FB7BC3
:1031D0007A68B968184600F047F900BF00BF103799
:1031E000BD4680BD80B584B000AF0346B9607A604B
:1031F000FB73BB68DB78C3F38103DBB2022B14D013
:10320000022B19DC002B02D0012B07D014E0FB7B32
:103210007A68B9681846FDF7ECFF0DE0FB7B7A6829
:10322000B9681846FDF7F2FF06E0FB7B7A68B968DB
:103230001846FDF7F8FF00BF00BF1037BD4680BD40
:1032400080B584B000AF0346B9607A60FB73BB6899
:10325000DB78C3F38103DBB2022B14D0022B19DC21
:10326000002B02D0012B07D014E0FB7B7A68B968F1
:10327000184600F00DFF0DE0FB7B7A68B968184630
:10328000FEF70BF806E0FB7B7A68B9681846FEF794
:1032900011F800BF00BF1037BD4680BD80B584B0B7
:1032A00000AF0346B9607A60FB73BB68DB78C3F399
:1032B0008103DBB2022B14D0022B19DC002B02D0CD
:1032C000012B07D014E0FB7B7A68B9681846FEF73B
:1032D00030F80DE0FB7B7A68B9681846FEF736F8DF
:1032E00006E0FB7B7A68B9681846FEF73CF800BF39
:1032F00000BF1037BD4680BD80B584B000AF034627
:10330000B9607A60FB73BB68DB78C3F38103DBB21F
:10331000022B14D0022B19DC002B02D0012B07D07A
:1033200014E0FB7B7A68B9681846FEF729F80DE0CF
:10333000FB7B7A68B9681846FEF72FF806E0FB7B3E
:103340007A68B968184601F0AFF800BF00BF1037BF
:10335000BD4680BD80B584B000AF0346B9607A60D9
:10336000FB73BB68DB78C3F38103DBB2022B14D0A1
:10337000022B19DC002B02D0012B07D014E0FB7BC1
:103380007A68B968184600F0DBFE0DE0FB7B7A68CE
:10339000B9681846FEF774F806E0FB7B7A68B968EE
:1033A000184601F033F800BF00BF1037BD4680BD9E
:1033B00080B584B000AF0346B9607A60FB73BB6828
:1033C000DB78C3F38103DBB2022B14D0022B19DCB0
:1033D000002B02D0012B07D014E0FB7B7A68B96880
:1033E000184600F0F1FD0DE0FB7B7A68B9681846DD
:1033F000FEF7B1F806E0FB7B7A68B9681846FEF77D
:10340000B7F800BF00BF1037BD4680BD80B584B09F
:1034100000AF0346B9607A60FB73BB68DB78C3F327
:103420008103DBB2022B14D0022B19DC002B02D05B
:10343000012B07D014E0FB7B7A68B968184600F0CE
:10344000C7FE0DE0FB7B7A68B9681846FEF7CDF839
:1034500006E0FB7B7A68B968184600F0FFFE00BF03
:1034600000BF1037BD4680BD80B584B000AF0346B5
:10347000B9607A60FB73BB68DB78C3F38103DBB2AE
:10348000022B14D0022B19DC002B02D0012B07D009
:1034900014E0FB7B7A68B9681846FEF7E0F80DE0A7
:1034A000FB7B7A68B9681846FEF7E6F806E0FB7B16
:1034B0007A68B9681846FEF7ECF800BF00BF10370D
:1034C000BD4680BD80B584B000AF0346B9607A6068
:1034D000FB73BB689B78C3F38303DBB2002B06D17D
:1034E000FB7B7A68B968184600F005F800BF00BF9A
:1034F0001037BD4680BD80B584B000AF0346B960CB
:103500007A60FB73BB68DB78C3F38103DBB2022B09
:1035100014D0022B19DC002B02D0012B07D014E0B1
:10352000FB7B7A68B968184600F00CFF0DE0FB7B66
:103530007A68B9681846FEF7B9F806E0FB7B7A6846
:10354000B9681846FEF7BFF800BF00BF1037BD4688
:1035500080BD000080B584B000AF0346B9607A60DA
:10356000FB73BB689B78C3F38303DBB2032B27D8C1
:1035700001A252F823F000BF8935000897350008F2
:10358000A5350008B3350008FB7B7A68B968184692
:1035900000F01AF814E0FB7B7A68B968184600F06E
:1035A00041F80DE0FB7B7A68B968184600F057F8DF
:1035B00006E0FB7B7A68B968184600F06DF800BF3A
:1035C00000BF1037BD4680BD80B584B000AF034654
:1035D000B9607A60FB73BB68DB78C3F38103DBB24D
:1035E000022B14D0022B19DC002B02D0012B07D0A8
:1035F00014E0FB7B7A68B9681846FEF7D4F80DE052
:10360000FB7B7A68B9681846FEF7DAF806E0FB7BC0
:103610007A68B9681846FEF7E0F800BF00BF1037B7
:10362000BD4680BD80B485B000AF0346B9607A6006
:10363000FB73BB68DB78C3F38103DBB2022B05D0DD
:10364000022B06DC002B03D0012B02E000BF00E0C0
:1036500000BF00BF1437BD465DF8047B704780B4DF
:1036600085B000AF0346B9607A60FB73BB68DB7856
:10367000C3F38103DBB2022B05D0022B06DC002B47
:1036800003D0012B02E000BF00E000BF00BF1437F1
:10369000BD465DF8047B704780B485B000AF03463B
:1036A000B9607A60FB73BB68DB78C3F38103DBB27C
:1036B000022B05D0022B06DC002B03D0012B02E0ED
:1036C00000BF00E000BF00BF1437BD465DF8047BBB
:1036D0007047000080B584B000AF0346B9607A60DF
:1036E000FB73BB689B78C3F38303DBB2092B5DD804
:1036F00001A252F823F000BF213700082F3700083D
:103700003D3700084B370008593700086737000875
:103710007537000883370008913700089F37000885
:10372000FB7B7A68B968184600F044F83EE0FB7B02
:103730007A68B968184600F06BF837E0FB7B7A6866
:10374000B968184600F092F830E0FB7B7A68B968F7
:10375000184600F0B9F829E0FB7B7A68B96818468A
:1037600000F0E0F822E0FB7B7A68B968184600F0C8
:1037700007F91BE0FB7B7A68B968184600F02EF960
:1037800014E0FB7B7A68B968184600F055F90DE043
:10379000FB7B7A68B968184600F07CF906E0FB7B91
:1037A0007A68B968184600F0A3F900BF00BF103767
:1037B000BD4680BD80B584B000AF0346B9607A6075
:1037C000FB73BB68DB78C3F38103DBB2022B14D03D
:1037D000022B19DC002B02D0012B07D014E0FB7B5D
:1037E0007A68B9681846FEF705F80DE0FB7B7A6841
:1037F000B9681846FEF70BF806E0FB7B7A68B968F3
:103800001846FEF711F800BF00BF1037BD4680BD57
:1038100080B584B000AF0346B9607A60FB73BB68C3
:10382000DB78C3F38103DBB2022B14D0022B19DC4B
:10383000002B02D0012B07D014E0FB7B7A68B9681B
:103840001846FDF7FEFF0DE0FB7B7A68B968184665
:10385000FEF704F806E0FB7B7A68B9681846FEF7C5
:103860000AF800BF00BF1037BD4680BD80B584B0E8
:1038700000AF0346B9607A60FB73BB68DB78C3F3C3
:103880008103DBB2022B14D0022B19DC002B02D0F7
:10389000012B07D014E0FB7B7A68B9681846FDF766
:1038A000F7FF0DE0FB7B7A68B9681846FDF7FDFF6E
:1038B00006E0FB7B7A68B9681846FEF703F800BF9C
:1038C00000BF1037BD4680BD80B584B000AF034651
:1038D000B9607A60FB73BB68DB78C3F38103DBB24A
:1038E000022B14D0022B19DC002B02D0012B07D0A5
:1038F00014E0FB7B7A68B9681846FDF7F0FF0DE02D
:10390000FB7B7A68B9681846FDF7F6FF06E0FB7B9B
:103910007A68B9681846FDF7FCFF00BF00BF103792
:10392000BD4680BD80B584B000AF0346B9607A6003
:10393000FB73BB68DB78C3F38103DBB2022B14D0CB
:10394000022B19DC002B02D0012B07D014E0FB7BEB
:103950007A68B9681846FDF7E9FF0DE0FB7B7A68E5
:10396000B9681846FDF7EFFF06E0FB7B7A68B96897
:103970001846FDF7F5FF00BF00BF1037BD4680BDFC
:1039800080B584B000AF0346B9607A60FB73BB6852
:10399000DB78C3F38103DBB2022B14D0022B19DCDA
:1039A000002B02D0012B07D014E0FB7B7A68B968AA
:1039B0001846FDF7E2FF0DE0FB7B7A68B968184610
:1039C000FDF7E8FF06E0FB7B7A68B9681846FDF76B
:1039D000EEFF00BF00BF1037BD4680BD80B584B08C
:1039E00000AF0346B9607A60FB73BB68DB78C3F352
:1039F0008103DBB2022B14D0022B19DC002B02D086
:103A0000012B07D014E0FB7B7A68B9681846FDF7F4
:103A1000DBFF0DE0FB7B7A68B9681846FDF7E1FF34
:103A200006E0FB7B7A68B9681846FDF7E7FF00BF40
:103A300000BF1037BD4680BD80B584B000AF0346DF
:103A4000B9607A60FB73BB68DB78C3F38103DBB2D8
:103A5000022B14D0022B19DC002B02D0012B07D033
:103A600014E0FB7B7A68B9681846FDF7D4FF0DE0D7
:103A7000FB7B7A68B9681846FDF7DAFF06E0FB7B46
:103A80007A68B9681846FDF7E0FF00BF00BF10373D
:103A9000BD4680BD80B584B000AF0346B9607A6092
:103AA000FB73BB68DB78C3F38103DBB2022B14D05A
:103AB000022B19DC002B02D0012B07D014E0FB7B7A
:103AC0007A68B9681846FDF7CDFF0DE0FB7B7A6890
:103AD000B9681846FDF7D3FF06E0FB7B7A68B96842
:103AE0001846FDF7D9FF00BF00BF1037BD4680BDA7
:103AF00080B584B000AF0346B9607A60FB73BB68E1
:103B0000DB78C3F38103DBB2022B14D0022B19DC68
:103B1000002B02D0012B07D014E0FB7B7A68B96838
:103B20001846FDF7C6FF0DE0FB7B7A68B9681846BA
:103B3000FDF7CCFF06E0FB7B7A68B9681846FDF715
:103B4000D2FF00BF00BF1037BD4680BD80B584B036
:103B500000AF0346B9607A60FB73BB689B78C3F320
:103B60008303DBB2032B27D801A252F823F000BF56
:103B7000813B00088F3B00089D3B0008AB3B0008E1
:103B8000FB7B7A68B968184600F01AF814E0FB7BF2
:103B90007A68B968184600F041F80DE0FB7B7A6856
:103BA000B968184600F068F806E0FB7B7A68B968E7
:103BB000184600F08FF800BF00BF1037BD4680BD2B
:103BC00080B584B000AF0346B9607A60FB73BB6810
:103BD000DB78C3F38103DBB2022B14D0022B19DC98
:103BE000002B02D0012B07D014E0FB7B7A68B96868
:103BF000184600F01DFA0DE0FB7B7A68B96818469C
:103C0000FDF77EFF06E0FB7B7A68B9681846FDF792
:103C100084FF00BF00BF1037BD4680BD80B584B0B3
:103C200000AF0346B9607A60FB73BB68DB78C3F30F
:103C30008103DBB2022B14D0022B19DC002B02D043
:103C4000012B07D014E0FB7B7A68B9681846FDF7B2
:103C500071FF0DE0FB7B7A68B9681846FDF777FFC6
:103C600006E0FB7B7A68B9681846FDF77DFF00BF68
:103C700000BF1037BD4680BD80B584B000AF03469D
:103C8000B9607A60FB73BB68DB78C3F38103DBB296
:103C9000022B14D0022B19DC002B02D0012B07D0F1
:103CA00014E0FB7B7A68B968184600F003FB0DE06E
:103CB000FB7B7A68B9681846FDF763FF06E0FB7B7B
:103CC0007A68B9681846FDF769FF00BF00BF103772
:103CD000BD4680BD80B584B000AF0346B9607A6050
:103CE000FB73BB68DB78C3F38103DBB2022B14D018
:103CF000022B19DC002B02D0012B07D014E0FB7B38
:103D00007A68B9681846FDF756FF0DE0FB7B7A68C4
:103D1000B9681846FDF75CFF06E0FB7B7A68B96876
:103D20001846FDF762FF00BF00BF1037BD4680BDDB
:103D300080B584B000AF0346B9607A60FB73BB689E
:103D40009B78C3F38303DBB2002B06D1FB7B7A683D
:103D5000B968184600F005F800BF00BF1037BD462F
:103D600080BD80B584B000AF0346B9607A60FB7354
:103D7000BB68DB78C3F38103DBB2022B14D0022BC8
:103D800019DC002B02D0012B07D014E0FB7B7A68F2
:103D9000B9681846FDF736FF0DE0FB7B7A68B96815
:103DA0001846FDF73CFF06E0FB7B7A68B9681846C9
:103DB000FDF742FF00BF00BF1037BD4680BD80B594
:103DC00084B000AF0346B9607A60FB73BB689B7830
:103DD000C3F38303DBB2002B06D1FB7B7A68B9689F
:103DE000184600F005F800BF00BF1037BD4680BD83
:103DF00080B584B000AF0346B9607A60FB73BB68DE
:103E0000DB78C3F38103DBB2022B14D0022B19DC65
:103E1000002B02D0012B07D014E0FB7B7A68B96835
:103E20001846FDF749FF0DE0FB7B7A68B968184634
:103E3000FDF74FFF06E0FB7B7A68B9681846FDF78F
:103E400055FF00BF00BF1037BD4680BD80B586B0AE
:103E500004AF0346FB710B46BB7113467B710A4BE3
:103E60005978094B9B787A790392BA7902920022A9
:103E70000192009300230A4600210020FDF7E9FE8D
:103E800000BF0837BD4680BD9400002080B588B0D3
:103E900004AF0346FB710023FB60134B03F5104393
:103EA00093F8C03C022B07D10F4B03F51D43D3E918
:103EB00000231346FB6001E00023FB600B4B5978A5
:103EC0000A4B9B78FA68D2B2039200220292002237
:103ED0000192009300230A4600210020FDF79DFA7D
:103EE00000BF1037BD4680BDE06F00209400002069
:103EF00080B588B004AF0146C7E900230B46FB73C9
:103F00000A4B5878094B9978D7E90023CDE9022369
:103F10000023019300910023024600210020FDF7B9
:103F2000BCFA00BF1037BD4680BD00BF9400002022
:103F300080B586B004AF03460A46FB711346BB71D9
:103F40000A4B5978094B9B78BA7903920422029262
:103F500000220192009300230A4600210020FDF771
:103F600029FA00BF0837BD4680BD00BF940000207D
:103F7000F0B587B004AF03460A46FB711346BB8019
:103F80000F4B5D780E4B9C780E4BDB6B184609F09F
:103F9000E8F803461E460B4B9B6B184609F0E1F808
:103FA00003460393029600230193009400232A46BC
:103FB00000210020FDF74DFE00BF0C37BD46F0BDCF
:103FC00094000020E06F002080B588B004AF034665
:103FD000B9607A60FB73144B5B78BA68D278C2F32D
:103FE0000312D2B293421AD10F4B9B78BA6852781F
:103FF000C2F30402D2B2934211D10C4807F0EAFC9A
:10400000094B5A78084B9B78F87B002102910021DC
:104010000191009300230021FDF7B7FA00E000BFF3
:104020001037BD4680BD00BF94000020E06F002027
:1040300080B586B000AF0346B9607A60FB73124B5F
:104040005B78BA68D278C2F30312D2B2934216D127
:104050000D4B9B78BA685278C2F30402D2B29342F5
:104060000DD17B687B617B691A785B781B021343F7
:104070007B827B8A1946054807F087FC00E000BF79
:104080001837BD4680BD00BF94000020E06F0020BF
:1040900080B58EB006AF0346B9607A60FB73264BDD
:1040A0005B78BA68D278C2F30312D2B293423ED19F
:1040B000214B9B78BA685278C2F30402D2B2934281
:1040C00035D17B68FB61FB691B78FB76FB695A780D
:1040D0009B781B0213433B83FB69DA781B791B0235
:1040E0001343FB82FB695A799B791B021343BB8202
:1040F000F97E3A8BF88ABB8A009303460F4807F093
:10410000B7FD0D4B59780C4B9B78F87BBA8A05921A
:10411000FA8A04923A8B0392FA7E0292002201926A
:10412000009300230A460021FDF7D1F800E000BF0C
:104130002037BD4680BD00BF94000020E06F002006
:1041400090B58DB004AF0346B9607A60FB734FF051
:1041500000024FF00003C7E906231B4B5B78BA68E7
:10416000D278C2F30312D2B2934229D1164B9B7874
:10417000BA685278C2F30402D2B2934220D17B686B
:104180007B6179690A684B68C7E906230F4B03F521
:104190001D431946D7E90623C1E900230A4B5C7881
:1041A000094B9978F87BD7E90623CDE90223002350
:1041B00001930091002322460021FDF79DF900E0C4
:1041C00000BF2437BD4690BD94000020E06F002062
:1041D00080B586B002AF0346B9607A60FB731D4BB1
:1041E0005B78BA68D278C2F30312D2B293422CD170
:1041F000184B9B78BA685278C2F30402D2B2934249
:1042000023D1154B03F5104393F8C03C022B09D181
:10421000114B03F51043D3F8983C0F4A02F51042B6
:10422000C2F8F03C0C4B03F51043032283F8C02C7A
:10423000084B5A78074B9B78F87B0021019100933B
:1042400000230021FDF7DEF900E000BF1037BD4676
:1042500080BD00BF94000020E06F002080B586B0D4
:1042600002AF0346B9607A60FB73114B5B78BA68A2
:10427000D278C2F30312D2B2934215D10C4B9B7881
:10428000BA685278C2F30402D2B293420CD1084BFE
:104290005A78074B9B78F87B00210191009300230B
:1042A0000021FDF7AFF900E000BF1037BD4680BD2B
:1042B0009400002080B586B000AF0346B9607A60F4
:1042C000FB731E4B5B78BA68D278C2F30312D2B28A
:1042D00093422FD1194B9B78BA685278C2F30402EB
:1042E000D2B2934226D17B683B613B699B78002B1D
:1042F00006D13B69DB789BB25B429BB2FB8202E05A
:104300003B69DB78FB820E4B03F51043012283F8F7
:10431000202DB7F916300A4A02F51042C2F8243DA2
:1043200008F051FF03461A46054B03F51043C3F846
:10433000282D00E000BF1837BD4680BD9400002046
:10434000E06F0020B0B58AB004AF0346B9607A6070
:10435000FB737B681B78002B02D0012B27D04EE02B
:104360007B6801337B61284B5C78BB681B79C3F3A6
:104370000303DBB21D46244B9A78BB685978490980
:10438000C9B29B7803F00303DB000B43DBB2194691
:104390007B691B889BB2F87B0393002302930191F6
:1043A00000922B4622460121FDF7CBF927E000239E
:1043B0003B7401237B740623BB74134B5C78BB688E
:1043C0001B79C3F30303DBB21D460F4B9A78BB681E
:1043D00059784909C9B29B7803F00303DB000B430A
:1043E000DBB219463B69F87B0393012302930191E9
:1043F00000922B4622460121FDF772F900BF00BF53
:104400001837BD46B0BD00BF9400002090B58BB0FA
:1044100004AF0346B9607A60FB73214B5B78BA68DE
:10442000D278C2F30312D2B2934235D11C4B9B789F
:10443000BA685278C2F30402D2B293422CD14FF040
:1044400000024FF00003C7E90423164B03F51043A5
:1044500093F8C03C022B07D1124B03F51D43D3E95F
:104460000023C7E9042305E04FF000024FF00003EA
:10447000C7E904230A4B5C78094B9978F87BD7E9A4
:104480000423CDE902230023019300910023224657
:104490000021FDF731F800E000BF1C37BD4690BD9C
:1044A00094000020E06F002080B58AB004AF03467E
:1044B000B9607A60FB730023FB75584B5B78BA6870
:1044C000D278C2F30312D2B2934240F0A280534B8F
:1044D0009B78BA685278C2F30402D2B2934240F099
:1044E00098807B683B613B691B78042B00F29280CB
:1044F00001A252F823F000BF0D4500081546000840
:104500001546000863450008BB450008444B03F509
:10451000104393F8FC3C002B0BD1414B03F51043A7
:10452000002283F8082D3E4B03F51043012283F847
:10453000FC2C3B4B03F5104393F8083DFB75374BC0
:104540005978364B9B78F87BFA7D039200220292D1
:1045500000220192009300230A460021FCF75DFF30
:1045600058E02F4B03F5104393F8C03CFB75FB7DDF
:10457000022B02D10123FB750DE0FB7D002B02D144
:104580000223FB7507E0FB7D052B02D10223FB759F
:1045900001E00023FB75214B5978204B9B78F87B79
:1045A000FA7D0392032202920022019200930023DB
:1045B0000A460021FCF731FF2CE0194B03F51043AC
:1045C00093F8C03CFB75FB7D022B02D10123FB75E8
:1045D0000DE0FB7D002B02D10223FB7507E0FB7D84
:1045E000052B02D10223FB7501E00023FB750B4B69
:1045F00059780A4B9B78F87BFA7D03920422029249
:1046000000220192009300230A460021FCF705FFD7
:1046100000E000BF1837BD4680BD00BF94000020F9
:10462000E06F002080B400AF054B5B69044A83F45F
:104630000043536100BFBD465DF8047B704700BF77
:104640000004024080B500AF034805F017FD0348A1
:1046500005F014FD00BF80BDB0590020A85900200E
:1046600080B500AF4FF4FA720549064808F0B2FD74
:1046700064220549054808F0ADFD00BF80BD00BFBC
:10468000343500202546000838350020454600080E
:1046900080B500AF00F080F800F01AF800F0D4F810
:1046A00000F0A8F800F080F800F03EF800F054F8B0
:1046B00005F03AFC03461A46034B1A70034805F00E
:1046C0002FFD00BF80BD00BF90370020614600086D
:1046D00080B500AF06220121002005F0E3FB012296
:1046E0004FF480710E4805F07BFB01224FF40071FE
:1046F0000C4805F075FB01224FF48071094805F064
:104700006FFB01228021074805F06AFB012240214E
:10471000044805F065FB05F013FC00BF80BD00BF39
:10472000000002400008024080B500AF0749084879
:1047300008F094FD064808F0A3FD054806F05EF871
:10474000044805F0EDFC00BF80BD00BF4C370020E1
:10475000E8610020EFA7000880B500AF0A490B48C8
:1047600008F07CFD4FF400420949084808F09EFD1E
:10477000064808F085FD054808F0BCFA054805F034
:10478000CFFC00BF80BD00BF08370020BC5900200F
:1047900000000240D5CF000880B400AF00BFBD4686
:1047A0005DF8047B7047000080B582B002AF0A4B11
:1047B000019300230093094B00220949094806F0A0
:1047C0003DFD094A0949074806F08CFD084805F0F7
:1047D000A7FC00BFBD4680BD70350020B835002065
:1047E00000360020E06F0020246A0020146A0020B8
:1047F00009B3000880B584B004AF012302930023FD
:104800000193202300930C4B002200210B4808F059
:10481000E7FB012302930123019310230093064B2E
:1048200001220021064808F0DBFB064805F078FC71
:1048300000BFBD4680BD00BF00080240146A0020D2
:10484000246A002085D0000880B500AF044805F038
:10485000CBFB0349034805F0FFFB00BF80BD00BF51
:104860003C3500209437002080B584B002AF00238F
:10487000FB7000F0B9FE00F069F800F0A3FA00F058
:1048800079FA00F0D7F800F071F900F0C7F900F0FC
:1048900047FA00F01FF900F019FA00F001F9274873
:1048A00002F0C7FC01224FF480412548FDF790FA41
:1048B00001224FF400512248FDF798FDFFF7E8FE72
:1048C00005F032FB034601211846FDF753FA1D4857
:1048D000FDF71AFA1C4B5A781B4B9B78002101916B
:1048E0000093002300210020FCF7AAFC786808F060
:1048F00051FC0346B3F5FA7F16D3FB78002B04D1A5
:1049000005F0F2FC0123FB700BE0FB78012B04D1D6
:1049100005F03EFE0223FB7003E005F06FFD00236F
:10492000FB7008F050FC786005F0DAFBFDF7A2FCA4
:10493000FDF74CFF014802F07CFCD7E7643500200E
:10494000000402403C3500209400002080B594B063
:1049500000AF07F11C0334220021184609F0AFF81C
:1049600007F1080300221A605A609A60DA601A613F
:1049700000237B602D4B1B6C2C4A43F08053136447
:104980002A4B1B6C03F080537B607B6800233B60E9
:10499000274B1B68264A43F440431360244B1B6893
:1049A00003F440433B603B680923FB614FF48033D1
:1049B0003B6201233B6302237B634FF48003BB63B1
:1049C0000423FB63B4233B6402237B640223BB64A4
:1049D0000223FB6407F11C03184602F0D5FF0346CF
:1049E000002B01D000F08EFA02F034FC0346002BBD
:1049F00001D000F087FA0F23BB600223FB60002385
:104A00003B614FF4A0537B614FF48053BB6107F1CE
:104A100008030521184602F06DFC0346002B01D067
:104A200000F070FA00BF5037BD4680BD003802402C
:104A30000070004080B500AF174B184A1A60164B43
:104A400005225A60144B00229A60134B0022DA6050
:104A5000114B4FF480221A610F4B4FF400125A6130
:104A60000D4B00221A760C4B01225A760A4B00227B
:104A70009A76094B0022DA76074B00221A77064B0A
:104A800000225A77044800F021FE0346002B01D093
:104A900000F038FA00BF80BD3C35002000640040C3
:104AA00080B500AF094B0A4A1A60084B00225A60D1
:104AB000064B40F6FF729A60044802F078FB03460A
:104AC000002B01D000F01EFA00BF80BD643500202D
:104AD0000030004080B586B000AF07F10803002227
:104AE0001A605A609A60DA603B4600221A605A6087
:104AF0001D4B4FF080421A601B4B00225A601A4B2C
:104B000000229A60184B0022DA60174B00221A61CB
:104B1000154B00229A61144803F0D4F90346002B88
:104B200001D000F0EFF94FF48053BB6007F10803A8
:104B300019460D4803F0ACFD0346002B01D000F0F0
:104B4000E1F900233B6000237B603B4619460648A1
:104B500004F058FA0346002B01D000F0D3F900BF4F
:104B60001837BD4680BD00BF7035002080B58AB0C3
:104B700000AF07F1200300221A605A603B1D00229B
:104B80001A605A609A60DA601A615A619A61214B20
:104B9000214A1A601F4B00225A601E4B00229A6065
:104BA0001C4BB322DA601B4B00221A61194B002206
:104BB0009A61184803F0D5F90346002B01D000F0A4
:104BC000A1F900233B6200237B6207F12003194611
:104BD000104804F017FA0346002B01D000F092F9B8
:104BE00070237B600023BB600023FB6000237B619C
:104BF0003B1D00221946074803F08CFC0346002B9E
:104C000001D000F07FF9034800F0C8FA00BF283750
:104C1000BD4680BDB83500200004004080B58AB094
:104C200000AF07F1200300221A605A603B1D0022EA
:104C30001A605A609A60DA601A615A619A61214B6F
:104C4000214A1A601F4B00225A601E4B00229A60B4
:104C50001C4BB322DA601B4B00221A61194B002255
:104C60009A61184803F07DF90346002B01D000F04B
:104C700049F900233B6200237B6207F120031946B8
:104C8000104804F0BFF90346002B01D000F03AF9B8
:104C900070237B600023BB600023FB6000237B61EB
:104CA0003B1D00221946074803F034FC0346002B45
:104CB00001D000F027F9034800F070FA00BF283750
:104CC000BD4680BD003600200008004080B500AF22
:104CD000114B124A1A60104B4FF4E1325A600E4BDE
:104CE00000229A600C4B0022DA600B4B00221A6102
:104CF000094B0C225A61084B00229A61064B002294
:104D0000DA61054804F0FAF90346002B01D000F0FF
:104D1000F9F800BF80BD00BF083700200010014037
:104D200080B500AF114B124A1A60104B4FF4165267
:104D30005A600E4B00229A600C4B0022DA600B4B3B
:104D400000221A61094B0C225A61084B00229A6119
:104D5000064B0022DA61054804F0D0F90346002B27
:104D600001D000F0CFF800BF80BD00BF4C3700205D
:104D70000044004080B582B000AF00237B60104B40
:104D80001B6B0F4A43F4001313630D4B1B6B03F4AF
:104D900000137B607B68002200210B2001F009FCDE
:104DA0000B2001F022FC002200210F2001F001FC69
:104DB0000F2001F01AFC00BF0837BD4680BD00BFC0
:104DC0000038024080B58AB000AF07F1140300221A
:104DD0001A605A609A60DA601A6100233B61454BA1
:104DE0001B6B444A43F080031363424B1B6B03F07D
:104DF00080033B613B690023FB603E4B1B6B3D4ADC
:104E000043F0010313633B4B1B6B03F00103FB6097
:104E1000FB680023BB60374B1B6B364A43F004032F
:104E20001363344B1B6B03F00403BB60BB680023AC
:104E30007B60304B1B6B2F4A43F0020313632D4BF7
:104E40001B6B03F002037B607B6801224FF460411F
:104E5000294802F093F900224FF40041274802F05C
:104E60008DF94FF47C737B610023BB610023FB61F0
:104E700007F114031946224801F0D4FF03237B6194
:104E80000023BB610023FB6107F1140319461A4894
:104E900001F0C8FF4FF460437B610123BB61002335
:104EA000FB6100233B6207F114031946124801F02D
:104EB000B9FF4FF480737B610023BB610023FB616A
:104EC00007F1140319460D4801F0ACFF4FF40043FD
:104ED0007B610123BB610023FB6103233B6207F17C
:104EE00014031946054801F09DFF00BF2837BD4651
:104EF00080BD00BF003802400004024000000240B4
:104F00000008024080B400AF00BFBD465DF8047BDE
:104F10007047000080B483B000AF00237B60104B6B
:104F20005B6C0F4A43F4804353640D4B5B6C03F49A
:104F300080437B607B6800233B60094B1B6C084A05
:104F400043F080531364064B1B6C03F080533B60AB
:104F50003B6800BF0C37BD465DF8047B704700BF5F
:104F60000038024080B58AB000AF786007F11403C2
:104F700000221A605A609A60DA601A617B681B68C6
:104F8000214A93423CD100233B61204B1B6C1F4ABA
:104F900043F0007313641D4B1B6C03F000733B6103
:104FA0003B690023FB60194B1B6B184A43F001035C
:104FB0001363164B1B6B03F00103FB60FB684FF49C
:104FC000C0537B610223BB610023FB6103233B626F
:104FD00009237B6207F1140319460D4801F022FFF3
:104FE00000220321132001F0E4FA132001F0FDFA5E
:104FF00000220221142001F0DCFA142001F0F5FA5D
:1050000000BF2837BD4680BD006400400038024024
:105010000000024080B485B000AF78607B681B68F8
:10502000B3F1804F0DD10023FB60094B1B6C084A84
:1050300043F001031364064B1B6C03F00103FB6098
:10504000FB6800BF1437BD465DF8047B704700BFA6
:105050000038024080B584B000AF78607B681B6880
:10506000474A934244D10023FB60464B1B6C454AA0
:1050700043F002031364434B1B6C03F00203FB6019
:10508000FB68414B414A1A603F4B4FF020625A6027
:105090003D4B40229A603C4B0022DA603A4B4FF481
:1050A00080621A61384B4FF400625A61364B4FF4FC
:1050B00000529A61344B0022DA61334B00221A62AB
:1050C000314B00225A62304801F0AAFA0346002B05
:1050D00001D0FFF717FF7B682B4A5A622A4A7B6888
:1050E00093637B68284A9A63274A7B68936342E00C
:1050F0007B681B68264A93423DD10023BB60214B4D
:105100001B6C204A43F0040313641E4B1B6C03F01A
:105110000403BB60BB681F4B1F4A1A601D4B4FF056
:1051200080625A601B4B40229A601A4B0022DA6060
:10513000184B4FF480621A61164B4FF400625A61AB
:10514000144B4FF400529A61124B0022DA61114B5A
:1051500000221A620F4B00225A620E4801F060FAD8
:105160000346002B01D0FFF7CDFE7B68094A5A6247
:10517000084A7B68936300BF1037BD4680BD00BFFF
:1051800000040040003802404836002070600240B1
:1051900000080040A83600201060024080B58AB0A8
:1051A00000AF786007F1140300221A605A609A6019
:1051B000DA601A617B681B68244A93421ED100237F
:1051C0003B61234B1B6B224A43F002031363204BCA
:1051D0001B6B03F002033B613B6910237B610223DD
:1051E000BB610223FB6100233B6202237B6207F168
:1051F00014031946174801F015FE22E07B681B686E
:10520000154A93421DD10023FB60114B1B6B104AC2
:1052100043F0020313630E4B1B6B03F00203FB60AE
:10522000FB6840237B610223BB610223FB610023F7
:105230003B6202237B6207F114031946054801F023
:10524000F1FD00BF2837BD4680BD00BF000400400F
:1052500000380240000402400008004080B58CB0D5
:1052600000AF786007F11C0300221A605A609A6050
:10527000DA601A617B681B683A4A934235D1002391
:10528000BB61394B5B6C384A43F010035364364BB7
:105290005B6C03F01003BB61BB6900237B61324B85
:1052A0001B6B314A43F0010313632F4B1B6B03F05D
:1052B00001037B617B694FF4C063FB6102233B62A6
:1052C00000237B620323BB620723FB6207F11C03FD
:1052D0001946264801F0A6FD00220021252001F0F4
:1052E00068F9252001F081F938E07B681B68204AC5
:1052F000934233D100233B611B4B1B6C1A4A43F48E
:1053000000331364184B1B6C03F400333B613B699F
:105310000023FB60144B1B6B134A43F00103136320
:10532000114B1B6B03F00103FB60FB680C23FB615B
:1053300002233B6200237B620323BB620723FB62E1
:1053400007F11C031946094801F06CFD00220421F5
:10535000262001F02EF9262001F047F900BF303752
:10536000BD4680BD001001400038024000000240F0
:105370000044004080B400AF00BFBD465DF8047B30
:10538000704780B400AFFEE780B400AFFEE780B4A2
:1053900000AFFEE780B400AFFEE780B400AF00BF0F
:1053A000BD465DF8047B704780B400AF00BFBD46CA
:1053B0005DF8047B704780B400AF00BFBD465DF868
:1053C000047B704780B500AF00F060F900BF80BD7E
:1053D00080B500AF024801F0BBFA00BF80BD00BF3E
:1053E000A836002080B500AF024801F0B1FA00BF36
:1053F00080BD00BF4836002080B500AF024800F0F5
:10540000CDFD00BF80BD00BF3C35002080B500AFA2
:10541000024800F0C3FD00BF80BD00BF3C35002046
:1054200080B500AF024803F02BFF00BF80BD00BF76
:105430000837002080B500AF024803F021FF00BF0D
:1054400080BD00BF4C37002080B400AF0123184658
:10545000BD465DF8047B704780B582B000AF7860D0
:10546000396008F0D7FB034616221A604FF0FF336D
:1054700018460837BD4680BD80B582B000AF786061
:105480004FF0FF317868FFF7E7FFFEE780B586B0A1
:1054900000AFF860B9607A6000237B610AE0AFF387
:1054A00000800146BB685A1CBA60CAB21A707B6998
:1054B00001337B617A697B689A42F0DB7B6818462E
:1054C0001837BD4680BD80B586B000AFF860B960C2
:1054D0007A6000237B6109E0BB685A1CBA601B78C4
:1054E0001846AFF300807B6901337B617A697B6882
:1054F0009A42F1DB7B6818461837BD4680BD80B400
:1055000083B000AF78604FF0FF3318460C37BD46CC
:105510005DF8047B704780B483B000AF7860396079
:105520003B684FF400525A60002318460C37BD46C2
:105530005DF8047B704780B483B000AF78600123CE
:1055400018460C37BD465DF8047B704780B485B0C3
:1055500000AFF860B9607A60002318461437BD4682
:105560005DF8047B7047000080B400AF084BD3F8AF
:105570008830074A43F47003C2F88830044B4FF078
:1055800000629A6000BFBD465DF8047B704700BFB3
:1055900000ED00E0DFF834D0002103E00C4B5B5855
:1055A000435004310B480C4B42189A42F6D30B4A35
:1055B00002E0002342F8043B094B9A42F9D3FFF77B
:1055C000D3FF08F02DFBFFF74FF9704700000220D2
:1055D0007CF100080000002074000020780000200A
:1055E000FC110120FEE7000080B500AF0E4B1B68E8
:1055F0000D4A43F4007313600B4B1B680A4A43F4D3
:1056000080631360084B1B68074A43F48073136080
:10561000032000F0C3FF002000F008F8FFF77AFC39
:105620000023184680BD00BF003C024080B582B018
:1056300000AF7860124B1A68124B1B7819464FF472
:105640007A73B3FBF1F3B2FBF3F3184600F0DBFF20
:105650000346002B01D001230EE07B680F2B0AD8F4
:10566000002279684FF0FF3000F0A3FF064A7B6804
:105670001360002300E0012318460837BD4680BDB3
:1056800000000020080000200400002080B400AFCB
:10569000064B1B781A46064B1B681344044A1360DA
:1056A00000BFBD465DF8047B704700BF08000020C6
:1056B000846A002080B400AF034B1B681846BD46C7
:1056C0005DF8047B704700BF846A002080B584B019
:1056D00000AF78607B68002B01D10123EDE07B688F
:1056E00093F82030DBB2002B02D17868FFF73AFC48
:1056F0007B681B681A687B681B6822F002021A60CC
:10570000FFF7D8FFF86012E0FFF7D4FF0246FB680E
:10571000D31A0A2B0BD97B685B6A43F400327B688F
:105720005A627B68052283F820200123C5E07B684C
:105730001B685B6803F00203002BE5D17B681B68E4
:105740001A687B681B6842F001021A60FFF7B2FF1B
:10575000F86012E0FFF7AEFF0246FB68D31A0A2B8F
:105760000BD97B685B6A43F400327B685A627B68C2
:10577000052283F8202001239FE07B681B685B687B
:1057800003F00103002BE5D07B681B7E012B08D1C1
:105790007B681B681A687B681B6842F080021A608D
:1057A00007E07B681B681A687B681B6822F0800230
:1057B0001A607B685B7E012B08D17B681B681A68C6
:1057C0007B681B6842F040021A6007E07B681B6838
:1057D0001A687B681B6822F040021A607B689B7E17
:1057E000012B08D17B681B681A687B681B6842F034
:1057F00020021A6007E07B681B681A687B681B68D8
:1058000022F020021A607B68DB7E012B08D17B68C6
:105810001B681A687B681B6822F010021A6007E098
:105820007B681B681A687B681B6842F010021A606C
:105830007B681B7F012B08D17B681B681A687B681B
:105840001B6842F008021A6007E07B681B681A6850
:105850007B681B6822F008021A607B685B7F012B63
:1058600008D17B681B681A687B681B6842F00402D9
:105870001A6007E07B681B681A687B681B6822F067
:1058800004021A607B689A687B68DB681A437B684D
:105890001B691A437B685B6942EA03017B685B68AA
:1058A0005A1E7B681B680A43DA617B6800225A62D1
:1058B0007B68012283F82020002318461037BD465C
:1058C00080BD000080B487B000AF786039607B682D
:1058D0001B687B617B6893F82030FB74FB7C012B99
:1058E00003D0FB7C022B40F0BE80654B7B617B6963
:1058F000D3F8003243F001027B69C3F800227B69D0
:10590000D3F8003223F47C527B69C3F800227B6910
:10591000D3F800223B685B6A1B021A437B69C3F819
:1059200000223B685B6903F01F03012202FA03F3C4
:10593000FB607B69D3F81C22FB68DB431A407B6960
:10594000C3F81C223B68DB69002B23D17B69D3F8A9
:105950000C22FB68DB431A407B69C3F80C223B68CE
:10596000DB6819043B685B689BB23A68526919436B
:105970007B69483243F832103B689B6819043B68E6
:105980001B689AB23B685B690A4379694833DB005C
:105990000B445A603B68DB69012B22D17B69D3F849
:1059A0000C22FB681A437B69C3F80C223B681B6816
:1059B00019043B685B689BB23A68526919437B697A
:1059C000483243F832103B689B6819043B68DB6837
:1059D0009AB23B685B690A4379694833DB000B4440
:1059E0005A603B689B69002B09D17B69D3F804227C
:1059F000FB68DB431A407B69C3F8042207E07B693C
:105A0000D3F80422FB681A437B69C3F804223B687D
:105A10001B69002B09D17B69D3F81422FB68DB4397
:105A20001A407B69C3F8142207E07B69D3F814227B
:105A3000FB681A437B69C3F814223B681B6A012B7D
:105A400007D17B69D3F81C22FB681A437B69C3F832
:105A50001C227B69D3F8003223F001027B69C3F872
:105A60000022002306E07B685B6A43F480227B68A7
:105A70005A62012318461C37BD465DF8047B704707
:105A80000064004080B584B000AF78607B6893F814
:105A90002030DBB2012B2ED17B68022283F820203C
:105AA0007B681B681A687B681B6822F001021A6019
:105AB000FFF700FEF86012E0FFF7FCFD0246FB680E
:105AC000D31A0A2B0BD97B685B6A43F400327B68DC
:105AD0005A627B68052283F82020012312E07B684C
