:020000040800F2
:1000000000000220251B0008391A0008471A0008C2
:100010004D1A0008531A0008591A00080000000081
:100020000000000000000000000000005F1A00084F
:100030006D1A0008000000007B1A0008891A0008E9
:10004000751B0008751B0008751B0008751B000850
:10005000751B0008751B0008751B0008751B000840
:10006000751B0008751B0008751B0008951A000811
:10007000751B0008751B0008751B0008A91A0008ED
:10008000751B0008751B0008751B0008BD1A0008C9
:10009000D11A0008751B0008751B0008751B0008A5
:1000A000751B0008751B0008751B0008751B0008F0
:1000B000751B0008751B0008751B0008751B0008E0
:1000C000751B0008751B0008751B0008751B0008D0
:1000D000751B0008751B0008E51A0008751B000851
:1000E000751B0008751B0008751B0008751B0008B0
:1000F000751B0008751B0008751B0008751B0008A0
:10010000751B0008751B0008751B0008751B00088F
:10011000751B0008751B0008751B0008751B00087F
:10012000751B0008751B0008751B0008751B00086F
:10013000751B00080000000000000000751B00088F
:10014000751B0008751B0008751B0008751B00084F
:10015000751B0008751B0008751B0008751B00083F
:10016000751B0008751B0008751B0008751B00082F
:10017000751B0008751B0008751B000800000000B7
:1001800000000000751B00080000000000000000D7
:10019000751B00080000000000000000751B00082F
:1001A000000000000000000000000000751B0008B7
:1001B000751B0008751B0008751B0008751B0008DF
:0401C000751B0008A3
:1001C80010B5054C237833B9044B13B10448AFF389
:1001D80000800123237010BD1800002000000000DB
:1001E800B0BE000808B5034B1BB103490348AFF381
:1001F800008008BD000000001C000020B0BE000800
:1002080081F0004102E000BF83F0004330B54FEABF
:1002180041044FEA430594EA050F08BF90EA020F2C
:100228001FBF54EA000C55EA020C7FEA645C7FEABF
:10023800655C00F0E2804FEA5454D4EB5555B8BFE2
:100248006D420CDD2C4480EA020281EA030382EA53
:10025800000083EA010180EA020281EA0303362DE5
:1002680088BF30BD11F0004F4FEA01314FF4801CB8
:100278004CEA113102D0404261EB410113F0004FCA
:100288004FEA03334CEA133302D0524263EB430381
:1002980094EA050F00F0A780A4F10104D5F1200E1F
:1002A8000DDB02FA0EFC22FA05F2801841F100017A
:1002B80003FA0EF2801843FA05F359410EE0A5F14E
:1002C80020050EF1200E012A03FA0EFC28BF4CF07F
:1002D800020C43FA05F3C01851EBE37101F0004535
:1002E80007D54FF0000EDCF1000C7EEB00006EEB42
:1002F8000101B1F5801F1BD3B1F5001F0CD34908CC
:100308005FEA30004FEA3C0C04F101044FEA445222
:1003180012F5800F80F09A80BCF1004F08BF5FEAA9
:10032800500C50F1000041EB045141EA050130BD89
:100338005FEA4C0C404141EB010111F4801FA4F12C
:100348000104E9D191F0000F04BF01460020B1FA81
:1003580081F308BF2033A3F10B03B3F120020CDAB9
:100368000C3208DD02F1140CC2F10C0201FA0CF097
:1003780021FA02F10CE002F11402D8BFC2F1200CFC
:1003880001FA02F120FA0CFCDCBF41EA0C019040B2
:10039800E41AA2BF01EB0451294330BD6FEA0404FB
:1003A8001F3C1CDA0C340EDC04F11404C4F12002E6
:1003B80020FA04F001FA02F340EA030021FA04F3F8
:1003C80045EA030130BDC4F10C04C4F1200220FA4F
:1003D80002F001FA04F340EA0300294630BD21FA8D
:1003E80004F0294630BD94F0000F83F4801306BF53
:1003F80081F480110134013D4EE77FEA645C18BF47
:100408007FEA655C29D094EA050F08BF90EA020FDD
:1004180005D054EA000C04BF1946104630BD91EAD5
:10042800030F1EBF0021002030BD5FEA545C05D1D8
:100438004000494128BF41F0004130BD14F5800417
:100448003CBF01F5801130BD01F0004545F0FE418B
:1004580041F470014FF0000030BD7FEA645C1ABFC0
:10046800194610467FEA655C1CBF0B46024650EAF7
:10047800013406BF52EA033591EA030F41F4002123
:1004880030BD00BF90F0000F04BF0021704730B5A9
:100498004FF4806404F132044FF000054FF000017E
:1004A80050E700BF90F0000F04BF0021704730B53F
:1004B8004FF4806404F1320410F0004548BF404214
:1004C8004FF000013EE700BF42004FEAE2014FEA69
:1004D80031014FEA02701FBF12F07F4393F07F4F44
:1004E80081F06051704732F07F4208BF704793F047
:1004F8007F4F04BF41F40021704730B54FF460745A
:1005080001F0004521F000411CE700BF50EA01025C
:1005180008BF704730B54FF000050AE050EA010205
:1005280008BF704730B511F0004502D5404261EB75
:1005380041014FF4806404F132045FEA915C3FF4B6
:10054800D8AE4FF003025FEADC0C18BF03325FEA53
:10055800DC0C18BF033202EBDC02C2F1200300FA04
:1005680003FC20FA02F001FA03FE40EA0E0021FA29
:1005780002F11444BDE600BF70B54FF0FF0C4CF417
:10058800E06C1CEA11541DBF1CEA135594EA0C0FC9
:1005980095EA0C0F00F0DEF82C4481EA030621EA04
:1005A8004C5123EA4C5350EA013518BF52EA03353F
:1005B80041F4801143F4801338D0A0FB02CE4FF0F1
:1005C8000005E1FB02E506F00042E0FB03E54FF021
:1005D8000006E1FB03569CF0000F18BF4EF0010E19
:1005E800A4F1FF04B6F5007F64F5407404D25FEA15
:1005F8004E0E6D4146EB060642EAC62141EA5551C8
:100608004FEAC52040EA5E504FEACE2EB4F1FD0C09
:1006180088BFBCF5E06F1ED8BEF1004F08BF5FEA87
:10062800500E50F1000041EB045170BD06F0004639
:1006380046EA010140EA020081EA0301B4EB5C04E6
:10064800C2BFD4EB0C0541EA045170BD41F48011DE
:100658004FF0000E013C00F3AB8014F1360FDEBF03
:10066800002001F0004170BDC4F10004203C35DADF
:100678000C341BDC04F11404C4F1200500FA05F362
:1006880020FA04F001FA05F240EA020001F0004203
:1006980021F0004110EBD37021FA04F642EB060179
:1006A8005EEA430E08BF20EAD37070BDC4F10C04A3
:1006B800C4F1200500FA04F320FA05F001FA04F267
:1006C80040EA020001F0004110EBD37041F1000153
:1006D8005EEA430E08BF20EAD37070BDC4F120055E
:1006E80000FA05F24EEA020E20FA04F301FA05F2C6
:1006F80043EA020321FA04F001F0004121FA04F26E
:1007080020EA020000EBD3705EEA430E08BF20EA3D
:10071800D37070BD94F0000F0FD101F00046400077
:1007280041EB010111F4801F08BF013CF7D041EAF9
:10073800060195F0000F18BF704703F000465200FD
:1007480043EB030313F4801F08BF013DF7D043EACE
:100758000603704794EA0C0F0CEA135518BF95EA84
:100768000C0F0CD050EA410618BF52EA4306D1D10B
:1007780081EA030101F000414FF0000070BD50EA2A
:10078800410606BF1046194652EA430619D094EAB4
:100798000C0F02D150EA013613D195EA0C0F05D19E
:1007A80052EA03361CBF104619460AD181EA0301F2
:1007B80001F0004141F0FE4141F470014FF00000AA
:1007C80070BD41F0FE4141F4780170BD70B54FF045
:1007D800FF0C4CF4E06C1CEA11541DBF1CEA1355C5
:1007E80094EA0C0F95EA0C0F00F0A7F8A4EB0504A7
:1007F80081EA030E52EA03354FEA013100F088809E
:100808004FEA03334FF0805545EA131343EA126366
:100818004FEA022245EA111545EA10654FEA00261B
:100828000EF000419D4208BF964244F1FD0404F5D4
:10083800407402D25B084FEA3202B61A65EB030530
:100848005B084FEA32024FF480104FF4002CB6EBED
:10085800020E75EB030E22BFB61A754640EA0C006D
:100868005B084FEA3202B6EB020E75EB030E22BFAD
:10087800B61A754640EA5C005B084FEA3202B6EBEE
:10088800020E75EB030E22BFB61A754640EA9C00AD
:100898005B084FEA3202B6EB020E75EB030E22BF7D
:1008A800B61A754640EADC0055EA060E18D04FEA3B
:1008B800051545EA16754FEA06164FEAC30343EADB
:1008C80052734FEAC2025FEA1C1CC0D111F4801FA8
:1008D8000BD141EA00014FF000004FF0004CB6E7A1
:1008E80011F4801F04BF01430020B4F1FD0C88BF40
:1008F800BCF5E06F3FF6AFAEB5EB030C04BFB6EB4B
:10090800020C5FEA500C50F1000041EB045170BD3D
:100918000EF0004E4EEA113114EB5C04C2BFD4EB6A
:100928000C0541EA045170BD41F480114FF0000EEE
:10093800013C90E645EA060E8DE60CEA135594EA6A
:100948000C0F08BF95EA0C0F3FF43BAF94EA0C0F6D
:100958000AD150EA01347FF434AF95EA0C0F7FF4E2
:1009680025AF104619462CE795EA0C0F06D152EA36
:1009780003353FF4FDAE1046194622E750EA41061A
:1009880018BF52EA43067FF4C5AE50EA41047FF42B
:100998000DAF52EA43057FF4EBAE12E74FF0FF3C90
:1009A80006E000BF4FF0010C02E000BF4FF0010C61
:1009B8004DF804CD4FEA410C7FEA6C5C4FEA430CDA
:1009C80018BF7FEA6C5C1BD001B050EA410C0CBF29
:1009D80052EA430C91EA030F02BF90EA020F00208B
:1009E800704710F1000F91EA030F58BF994208BFF2
:1009F80090422CBFD8176FEAE37040F001007047AF
:100A08004FEA410C7FEA6C5C02D150EA013C07D105
:100A18004FEA430C7FEA6C5CD6D152EA033CD3D050
:100A28005DF8040B704700BF8446104662468C464A
:100A38001946634600E000BF01B5FFF7B7FF00287D
:100A480048BF10F1000F01BD4DF808EDFFF7F4FFA6
:100A58000CBF012000205DF808FB00BF4DF808ED31
:100A6800FFF7EAFF34BF012000205DF808FB00BF54
:100A78004DF808EDFFF7E0FF94BF012000205DF876
:100A880008FB00BF4DF808EDFFF7CEFF94BF01202B
:100A980000205DF808FB00BF4DF808EDFFF7C4FF24
:100AA80034BF012000205DF808FB00BF4FEA410277
:100AB80012F5001215D211D56FF47873B3EB6252A8
:100AC80012D94FEAC12343F0004343EA505311F0CF
:100AD800004F23FA02F018BF404270474FF0000061
:100AE800704750EA013005D111F0004008BF6FF09F
:100AF800004070474FF00000704700BF4A0011D215
:100B080012F5001211D20DD56FF47873B3EB62525F
:100B18000ED44FEAC12343F0004343EA505323FA6B
:100B280002F070474FF00000704750EA013002D1E0
:100B38004FF0FF3070474FF00000704753B94AB983
:100B4800002908BF00281CBF4FF0FF314FF0FF30CD
:100B580000F072B9ADF1080C6DE904CE00F006F8AA
:100B6800DDF804E0DDE9022304B070472DE9F04721
:100B7800089E04468846002B4BD18A42154667D901
:100B8800B2FA82F24AB1C2F1200701FA02F320FA5E
:100B980007F7954047EA030894404FEA154E230C9F
:100BA800B8FBFEF71FFA85FC0EFB178843EA0843DB
:100BB80007FB0CF1994209D9EB1807F1FF3080F0D7
:100BC8001B81994240F21881023F2B445B1AA4B260
:100BD800B3FBFEF00EFB103344EA034400FB0CFCAD
:100BE800A44509D92C1900F1FF3380F00781A445E9
:100BF80040F2048102382C4440EA0740A4EB0C047C
:100C080000271EB1D4400023C6E900433946BDE899
:100C1800F0878B4209D9002E00F0EB800027C6E947
:100C2800000138463946BDE8F087B3FA83F7002F4C
:100C380047D18B4202D3824200F2FA80841A61EBD8
:100C4800030301209846002EE0D0C6E90048DDE7FE
:100C580002B9FFDEB2FA82F2002A40F08F80491B07
:100C68004FEA154E1FFA85F80127B1FBFEFC230C4D
:100C78000EFB1C1143EA014308FB0CF1994207D90A
:100C8800EB180CF1FF3002D2994200F2CD80844675
:100C9800591AA3B2B1FBFEF00EFB101443EA044448
:100CA80008FB00F8A04507D92C1900F1FF3302D240
:100CB800A04500F2B6801846A4EB080440EA0C40B0
:100CC8009FE7C7F1200CBB4022FA0CFE4EEA030E48
:100CD80001FA07F420FA0CF521FA0CF34FEA1E4842
:100CE8002543B3FBF8F92C0C08FB19331FFA8EFACD
:100CF80044EA034309FB0AF49C4202FA07F200FAA9
:100D080007F10BD91EEB030309F1FF3080F0878050
:100D18009C4240F28480A9F1020973441B1BADB2C6
:100D2800B3FBF8F008FB103345EA034400FB0AFA6A
:100D3800A24508D91EEB040400F1FF336BD2A2458B
:100D480069D90238744440EA0940A0FB0289A4EB3F
:100D58000A044C45C2464B4654D351D0002E69D0A4
:100D6800B1EB0A0564EB030404FA0CFCFD40FC40FB
:100D78004CEA0505C6E90054002747E7C2F12003FD
:100D880020FA03F7954001FA02F021FA03F34FEA3B
:100D9800154E3843010CB3FBFEF71FFA85F80EFB1E
:100DA800173341EA034107FB08F38B4204FA02F4C4
:100DB80007D9691807F1FF3C2FD28B422DD9023F82
:100DC8002944CB1A81B2B3FBFEF00EFB103341EA83
:100DD800034100FB08F38B4207D9691800F1FF3C77
:100DE80017D28B4215D902382944C91A40EA074755
:100DF8003BE73746304609E70746E7E61846FBE68D
:100E08004145ABD2B8EB020A69EB0E020138134632
:100E1800A4E76046E9E7184695E76746D1E78146C3
:100E28007CE702382C4447E7ACF1020C2B442FE74F
:100E3800384608E73746E9E6704700BF80B400AF98
:100E4800054B5B69044A83F40043536100BFBD4608
:100E58005DF8047B704700BF0000024080B500AF1A
:100E6800034805F0E5F8034805F0E2F800BF80BD47
:100E7800BCCB0020B4CB002080B500AF4FF4FA7291
:100E88000549064808F0ABFB64220549054808F007
:100E9800A6FB00BF80BD00BF34000020450E00083F
:100EA80038000020650E000880B500AF00F05EF83D
:100EB80000F020F800F0B8F800F08CF800F064F8C2
:100EC80000F03CF805F00AF803461A46064B1A707B
:100ED80005F004F803461A46044B1A70044805F056
:100EE800F9F800BF80BD00BF3C9F0020219F002073
:100EF800810E000880B500AF00220121002004F017
:100F0800ABFF00224FF400710B4804F043FF0022AE
:100F18004FF48071084804F03DFF00228021064804
:100F280004F038FF00224021034804F033FF04F0A6
:100F3800E1FF00BF80BD00BF0008024080B500AFE0
:100F48000749084808F090FB064808F09FFB054849
:100F580005F044FE044805F0BDF800BF80BD00BFA1
:100F680038A900202CA00020D96B000880B500AF5C
:100F780001220349034805F0C9F800BF80BD00BF3E
:100F880050010020C8CB002080B582B002AF0A4BC8
:100F9800019300230093094B00220949094806F0F0
:100FA80025FB094A0949074806F074FB084805F07B
:100FB80091F800BFBD4680BD98A800208C9F0020F6
:100FC800409F00205001002068A8002058A8002059
:100FD800C176000880B584B004AF012302930023D2
:100FE8000193202300930C4B002200210B4808F0AA
:100FF800FEF9012302930123019310230093064B6A
:1010080001220021064808F0F2F9064805F062F8C6
:1010180000BFBD4680BD00BF0008024058A80020A0
:1010280068A800209994000880B500AF044804F02F
:10103800B5FF0349034804F0E9FF00BF80BD00BFC6
:1010480078A90020A0A9002080B582B000AF0023B5
:10105800FB7000F08DFD00F05BF800F04FFA00F037
:1010680025FA00F0C7F800F047F900F09DF900F004
:10107800F3F900F0F5F800F0C5FA214802F01AFB80
:1010880004F02CFF03461A461E4B1A7000224FF438
:1010980080611D4809F0ACFA00224FF400611A483B
:1010A80009F0B8FCFFF700FF04F018FF03461A46E2
:1010B800144B1A70154809F071FA05F0C3F97868ED
:1010C80008F06DFA0346B3F5FA7F0ED3FB78002BD0
:1010D80004D105F0C1FB0123FB7003E005F046FCD9
:1010E8000023FB7008F074FA786004F0D3FF09F06D
:1010F800FDFB09F0CBFD024802F0DCFADFE700BF98
:10110800809F0020219F00200008024078A900202D
:1011180080B594B000AF07F11C03342200211846B3
:101128000AF035FE07F1080300221A605A609A6037
:10113800DA601A6100237B602C4B1B6C2B4A43F04E
:1011480080531364294B1B6C03F080537B607B68CE
:1011580000233B60264B1B68254A43F44043136039
:10116800234B1B6803F440433B603B680123FB614E
:101178004FF480333B6202237B634FF48003BB63ED
:101188000F23FB63D8233B6402237B640223BB64E5
:101198000223FB6407F11C03184602F057FD0346BF
:1011A800002B01D000F048FA02F094FA0346002B15
:1011B80001D000F041FA0F23BB600223FB6000233B
:1011C8003B614FF4A0537B614FF48053BB6107F13F
:1011D80008030521184602F0CDFA0346002B01D07A
:1011E80000F02AFA00BF5037BD4680BD00380240E3
:1011F8000070004080B500AF174B184A1A60164BB4
:1012080005225A60144B00229A60134B0022DA60C0
:10121800114B4FF480221A610F4B4FF400125A61A0
:101228000D4B00221A760C4B01225A760A4B0022EB
:101238009A76094B0022DA76074B00221A77064B7A
:1012480000225A77044800F005FD0346002B01D020
:1012580000F0F2F900BF80BD78A9002000640040CA
:1012680080B586B000AF07F1080300221A605A6003
:101278009A60DA603B4600221A605A601D4B4FF0B4
:1012880080421A601B4B00225A601A4B00229A6057
:10129800184B0022DA60174B00221A61154B002206
:1012A8009A61144802F02CFF0346002B01D000F08D
:1012B800C3F94FF48053BB6007F1080319460D4882
:1012C80003F0FEF90346002B01D000F0B5F9002326
:1012D8003B6000237B603B461946064803F04EFE00
:1012E8000346002B01D000F0A7F900BF1837BD4610
:1012F80080BD00BF98A8002080B58AB000AF07F174
:10130800200300221A605A603B1D00221A605A60AE
:101318009A60DA601A615A619A61214B214A1A600F
:101328001F4B00225A601E4B00229A601C4BB322AE
:10133800DA601B4B00221A61194B00229A61184887
:1013480002F009FF0346002B01D000F075F90023D5
:101358003B6200237B6207F120031946104803F023
:101368000DFE0346002B01D000F066F970237B6068
:101378000023BB600023FB6000237B613B1D002230
:101388001946074803F0D6F80346002B01D000F0B1
:1013980053F9034800F09CFA00BF2837BD4680BDCA
:1013A8008C9F00200004004080B58AB000AF07F190
:1013B800200300221A605A603B1D00221A605A60FE
:1013C8009A60DA601A615A619A61214B214A1A605F
:1013D8001F4B00225A601E4B00229A601C4BB322FE
:1013E800DA601B4B00221A61194B00229A611848D7
:1013F80002F0B1FE0346002B01D000F01DF90023D6
:101408003B6200237B6207F120031946104803F072
:10141800B5FD0346002B01D000F00EF970237B6068
:101428000023BB600023FB6000237B613B1D00227F
:101438001946074803F07EF80346002B01D000F058
:10144800FBF8034800F044FA00BF2837BD4680BDCA
:10145800409F00200008004080B500AF114B124AA1
:101468001A60104B4FF416525A600E4B00229A60C5
:101478000C4B0022DA600B4B00221A61094B0C223C
:101488005A61084B00229A61064B0022DA6105482E
:1014980003F0F0FD0346002B01D000F0CDF800BFAB
:1014A80080BD00BF38A900200044004080B582B04C
:1014B80000AF00237B60104B1B6B0F4A43F40013F3
:1014C80013630D4B1B6B03F400137B607B680022D6
:1014D80000210B2001F02BFB0B2001F044FB002224
:1014E80001210F2001F023FB0F2001F03CFB00BF7E
:1014F8000837BD4680BD00BF0038024080B58AB0BD
:1015080000AF07F1140300221A605A609A60DA608B
:101518001A6100233B61384B1B6B374A43F0800349
:101528001363354B1B6B03F080033B613B6900235E
:10153800FB60314B1B6B304A43F0010313632E4BA6
:101548001B6B03F00103FB60FB680023BB602A4BA5
:101558001B6B294A43F004031363274B1B6B03F0EF
:101568000403BB60BB6800237B60234B1B6B224AD0
:1015780043F002031363204B1B6B03F002037B60F1
:101588007B6801224FF400411C4802F041F8012217
:101598004FF440611A4802F03BF84FF47C737B61CA
:1015A8000023BB610023FB6107F1140319461448AB
:1015B80001F084FE4FF400437B610123BB610023EB
:1015C800FB6100233B6207F1140319460B4801F045
:1015D80075FE4FF440637B610123BB610023FB610F
:1015E80000233B6207F114031946054801F066FE23
:1015F80000BF2837BD4680BD0038024000000240C9
:101608000008024080B500AF094B0A4A1A60084B2F
:1016180003225A60064B40F6FF729A60044802F0B3
:1016280010F80346002B01D000F006F800BF80BD7B
:10163800809F00200030004080B400AF00BFBD464E
:101648005DF8047B7047000080B483B000AF0023CE
:101658007B60104B5B6C0F4A43F4804353640D4B23
:101668005B6C03F480437B607B6800233B60094B21
:101678001B6C084A43F080531364064B1B6C03F041
:1016880080533B603B6800BF0C37BD465DF8047B68
:10169800704700BF0038024080B58AB000AF78605C
:1016A80007F1140300221A605A609A60DA601A611E
:1016B8007B681B68214A93423CD100233B61204B45
:1016C8001B6C1F4A43F0007313641D4B1B6C03F023
:1016D80000733B613B690023FB60194B1B6B184A85
:1016E80043F001031363164B1B6B03F00103FB600C
:1016F800FB684FF4C0537B610223BB610023FB618D
:1017080003233B6209237B6207F1140319460D4842
:1017180001F0D4FD00220321132001F008FA132060
:1017280001F021FA00220221142001F000FA14200D
:1017380001F019FA00BF2837BD4680BD006400409B
:10174800003802400000024080B485B000AF7860E5
:101758007B681B68B3F1804F0DD10023FB60094BF8
:101768001B6C084A43F001031364064B1B6C03F01F
:101778000103FB60FB6800BF1437BD465DF8047BBE
:10178800704700BF0038024080B584B000AF786071
:101798007B681B68474A934244D10023FB60464B51
:1017A8001B6C454A43F002031364434B1B6C03F064
:1017B8000203FB60FB68414B414A1A603F4B4FF004
:1017C80020625A603D4B40229A603C4B0022DA600E
:1017D8003A4B4FF480621A61384B4FF400625A61F9
:1017E800364B4FF400529A61344B0022DA61334B86
:1017F80000221A62314B00225A62304801F0CEF9B9
:101808000346002B01D0FFF717FF7B682B4A5A626B
:101818002A4A7B6893637B68284A9A63274A7B68CD
:10182800936342E07B681B68264A93423DD10023BC
:10183800BB60214B1B6C204A43F0040313641E4B0E
:101848001B6C03F00403BB60BB681F4B1F4A1A6084
:101858001D4B4FF080625A601B4B40229A601A4B16
:101868000022DA60184B4FF480621A61164B4FF46D
:1018780000625A61144B4FF400529A61124B0022D5
:10188800DA61114B00221A620F4B00225A620E488D
:1018980001F084F90346002B01D0FFF7CDFE7B68E9
:1018A800094A5A62084A7B68936300BF1037BD46ED
:1018B80080BD00BF0004004000380240CC9F0020DB
:1018C8007060024000080040D8A800201060024064
:1018D80080B58AB000AF786007F1140300221A605F
:1018E8005A609A60DA601A617B681B68244A9342DE
:1018F8001ED100233B61234B1B6B224A43F002039A
:101908001363204B1B6B03F002033B613B691023FD
:101918007B610223BB610223FB6100233B6202233C
:101928007B6207F114031946174801F0C7FC22E04F
:101938007B681B68154A93421DD10023FB60114B3D
:101948001B6B104A43F0020313630E4B1B6B03F02F
:101958000203FB60FB6840237B610223BB61022317
:10196800FB6100233B6202237B6207F114031946E3
:10197800054801F0A3FC00BF2837BD4680BD00BF65
:101988000004004000380240000402400008004003
:1019980080B58AB000AF786007F1140300221A609E
:1019A8005A609A60DA601A617B681B681D4A934224
:1019B80033D100233B611C4B1B6C1B4A43F400339F
:1019C8001364194B1B6C03F400333B613B69002320
:1019D800FB60154B1B6B144A43F001031363124B56
:1019E8001B6B03F00103FB60FB680C237B61022384
:1019F800BB610023FB6103233B6207237B6207F182
:101A080014031946094801F059FC00220421262034
:101A180001F08DF8262001F0A6F800BF2837BD4652
:101A280080BD00BF00440040003802400000024072
:101A380080B400AF00BFBD465DF8047B704780B43A
:101A480000AFFEE780B400AFFEE780B400AFFEE76A
:101A580080B400AFFEE780B400AF00BFBD465DF8BC
:101A6800047B704780B400AF00BFBD465DF8047BBF
:101A7800704780B400AF00BFBD465DF8047B704777
:101A880080B500AF00F0C6F800BF80BD80B500AFDC
:101A9800024801F0ABF900BF80BD00BFD8A8002004
:101AA80080B500AF024801F0A1F900BF80BD00BFBA
:101AB800CC9F002080B500AF024800F033FD00BF86
:101AC80080BD00BF78A9002080B500AF024800F0B3
:101AD80029FD00BF80BD00BF78A9002080B500AFF8
:101AE800024803F0AFFB00BF80BD00BF38A900204B
:101AF80080B400AF084BD3F88830074A43F470032A
:101B0800C2F88830044B4FF000629A6000BFBD46AF
:101B18005DF8047B704700BF00ED00E0DFF834D0CB
:101B2800002103E00C4B5B58435004310B480C4B2D
:101B380042189A42F6D30B4A02E0002342F8043BCB
:101B4800094B9A42F9D3FFF7D3FF0AF0F1F8FFF7F0
:101B58007BFA704700000220F8BE00080000002051
:101B68001800002018000020D0040120FEE7000023
:101B780080B500AF0E4B1B680D4A43F40073136029
:101B88000B4B1B680A4A43F480631360084B1B68BD
:101B9800074A43F480731360032000F0BDFF002060
:101BA80000F008F8FFF750FD0023184680BD00BF7D
:101BB800003C024080B582B000AF7860124B1A68D2
:101BC800124B1B7819464FF47A73B3FBF1F3B2FB4F
:101BD800F3F3184600F0D5FF0346002B01D001238C
:101BE8000EE07B680F2B0AD8002279684FF0FF308F
:101BF80000F09DFF064A7B681360002300E0012384
:101C080018460837BD4680BD0000002008000020A7
:101C18000400002080B400AF064B1B781A46064B20
:101C28001B681344044A136000BFBD465DF8047B7B
:101C3800704700BF0800002010CC002080B400AF1F
:101C4800034B1B681846BD465DF8047B704700BF10
:101C580010CC002080B584B000AF78607B68002B82
:101C680001D10123EDE07B6893F82030DBB2002B33
:101C780002D17868FFF710FD7B681B681A687B68DB
:101C88001B6822F002021A60FFF7D8FFF86012E022
:101C9800FFF7D4FF0246FB68D31A0A2B0BD97B68DF
:101CA8005B6A43F400327B685A627B68052283F8DA
:101CB80020200123C5E07B681B685B6803F00203F2
:101CC800002BE5D17B681B681A687B681B6842F0AB
:101CD80001021A60FFF7B2FFF86012E0FFF7AEFFEB
:101CE8000246FB68D31A0A2B0BD97B685B6A43F45C
:101CF80000327B685A627B68052283F82020012322
:101D08009FE07B681B685B6803F00103002BE5D04C
:101D18007B681B7E012B08D17B681B681A687B686F
:101D28001B6842F080021A6007E07B681B681A682B
:101D38007B681B6822F080021A607B685B7E012B3F
:101D480008D17B681B681A687B681B6842F04002F0
:101D58001A6007E07B681B681A687B681B6822F0BA
:101D680040021A607B689B7E012B08D17B681B6848
:101D78001A687B681B6842F020021A6007E07B68DB
:101D88001B681A687B681B6822F020021A607B684F
:101D9800DB7E012B08D17B681B681A687B681B688F
:101DA80022F010021A6007E07B681B681A687B68DB
:101DB8001B6842F010021A607B681B7F012B08D158
:101DC8007B681B681A687B681B6842F008021A6007
:101DD80007E07B681B681A687B681B6822F00802AA
:101DE8001A607B685B7F012B08D17B681B681A68C7
:101DF8007B681B6842F004021A6007E07B681B6876
:101E08001A687B681B6822F004021A607B689A686B
:101E18007B68DB681A437B681B691A437B685B69CC
:101E280042EA03017B685B685A1E7B681B680A43A9
:101E3800DA617B6800225A627B68012283F82020DD
:101E4800002318461037BD4680BD000080B487B017
:101E580000AF786039607B681B687B617B6893F8AA
:101E68002030FB74FB7C012B03D0FB7C022B40F061
:101E7800BE80654B7B617B69D3F8003243F0010279
:101E88007B69C3F800227B69D3F8003223F47C52C3
:101E98007B69C3F800227B69D3F800223B685B6A40
:101EA8001B021A437B69C3F800223B685B6903F095
:101EB8001F03012202FA03F3FB607B69D3F81C229B
:101EC800FB68DB431A407B69C3F81C223B68DB696B
:101ED800002B23D17B69D3F80C22FB68DB431A4023
:101EE8007B69C3F80C223B68DB6819043B685B68B4
:101EF8009BB23A68526919437B69483243F83210F9
:101F08003B689B6819043B681B689AB23B685B692D
:101F18000A4379694833DB000B445A603B68DB6944
:101F2800012B22D17B69D3F80C22FB681A437B6909
:101F3800C3F80C223B681B6819043B685B689BB2BA
:101F48003A68526919437B69483243F832103B6852
:101F58009B6819043B68DB689AB23B685B690A4373
:101F680079694833DB000B445A603B689B69002B56
:101F780009D17B69D3F80422FB68DB431A407B69EB
:101F8800C3F8042207E07B69D3F80422FB681A43EC
:101F98007B69C3F804223B681B69002B09D17B6964
:101FA800D3F81422FB68DB431A407B69C3F8142278
:101FB80007E07B69D3F81422FB681A437B69C3F8EE
:101FC80014223B681B6A012B07D17B69D3F81C22BA
:101FD800FB681A437B69C3F81C227B69D3F800327B
:101FE80023F001027B69C3F80022002306E07B6826
:101FF8005B6A43F480227B685A62012318461C37C7
:10200800BD465DF8047B70470064004080B584B02D
:1020180000AF78607B6893F82030DBB2012B2ED1BB
:102028007B68022283F820207B681B681A687B681B
:102038001B6822F001021A60FFF700FEF86012E048
:10204800FFF7FCFD0246FB68D31A0A2B0BD97B6805
:102058005B6A43F400327B685A627B68052283F826
:102068002020012312E07B681B685B6803F00103F2
:10207800002BE5D17B6800225A62002306E07B68CA
:102088005B6A43F400227B685A62012318461037C2
:10209800BD4680BD80B489B000AFF860B9607A6091
:1020A8003B60FB6893F82030FB77FB681B689B68F4
:1020B800BB61FB7F012B03D0FB7F022B40F0B88074
:1020C800BB6903F08063002B0AD1BB6903F000638E
:1020D800002B05D1BB6903F08053002B00F0A080D2
:1020E800BB691B0E03F003037B617B69022B07D9D5
:1020F800FB685B6A43F40002FB685A6201239EE0B6
:1021080001227B699A403B681A60BB689B68002B78
:102118000DD1BB681B685A05BB68DB68F96809689C
:102128001A437B6918331B010B441A600FE0BB6824
:102138005B68DA00BB689B681A43BB68DB68F968B0
:1021480009681A437B6918331B010B441A60FB6842
:102158001968BB681A697B6918331B010B4404337F
:102168001A60BB681B7D012B11D1FB681A687B695B
:1021780018331B01134404331B68FA68116843F4CD
:1021880080727B6918331B010B4404331A607B6827
:1021980007331B781A067B6806331B781B041A431F
:1021A8007B6805331B781B0213437A680432127864
:1021B8001046FA68116843EA00027B691B010B4468
:1021C80003F5C6731A607B6803331B781A067B68AD
:1021D80002331B781B041A437B6801331B781B02EC
:1021E80013437A6812781046FA68116843EA0002C5
:1021F8007B691B010B4403F5C4731A60FB681A68FA
:102208007B6918331B0113441B68FA68116843F093
:1022180001027B6918331B010B441A6000230EE08E
:10222800FB685B6A43F40012FB685A62012306E00C
:10223800FB685B6A43F48022FB685A6201231846F4
:102248002437BD465DF8047B704780B485B000AF85
:1022580078600023FB607B6893F82030FB72FB7A80
:10226800012B02D0FB7A022B1DD17B681B689B686F
:1022780003F08063002B02D0FB680133FB607B68AE
:102288001B689B6803F00063002B02D0FB680133D6
:10229800FB607B681B689B6803F08053002B02D0AF
:1022A800FB680133FB60FB6818461437BD465DF8D0
:1022B800047B704780B487B000AFF860B9607A607B
:1022C8003B60FB6893F82030FB75FB7D012B03D046
:1022D800FB7D022B40F0F380BB68002B0ED1FB681E
:1022E8001B68DB6803F00303002B16D1FB685B6AED
:1022F80043F40012FB685A620123E7E0FB681B689D
:102308001B6903F00303002B07D1FB685B6A43F4E6
:102318000012FB685A620123D8E0FB681A68BB68A0
:102328001B331B0113441B6803F004027B689A608B
:102338007B689B68002B0CD1FB681A68BB681B3351
:102348001B0113441B685B0DC3F30A027B681A6008
:102358000BE0FB681A68BB681B331B0113441B683E
:10236800DB0823F060427B685A60FB681A68BB6828
:102378001B331B0113441B6803F002027B68DA60FD
:10238800FB681A68BB681B331B01134404331B68C2
:1023980003F00F027B681A61FB681A68BB681B337D
:1023A8001B01134404331B681B0ADAB27B689A6169
:1023B800FB681A68BB681B331B01134404331B6892
:1023C8001B0C9AB27B685A61FB681A68BB681B01D0
:1023D800134403F5DC731B68DAB23B681A70FB68B8
:1023E8001A68BB681B01134403F5DC731B681A0ADF
:1023F8003B680133D2B21A70FB681A68BB681B01CC
:10240800134403F5DC731B681A0C3B680233D2B221
:102418001A70FB681A68BB681B01134403F5DC7368
:102428001B681A0E3B680333D2B21A70FB681A682D
:10243800BB681B01134403F5DE731A683B68043359
:10244800D2B21A70FB681A68BB681B01134403F503
:10245800DE731B681A0A3B680533D2B21A70FB6830
:102468001A68BB681B01134403F5DE731B681A0C5A
:102478003B680633D2B21A70FB681A68BB681B0146
:10248800134403F5DE731B681A0E3B680733D2B298
:102498001A70BB68002B08D1FB681B68DA68FB68F8
:1024A8001B6842F02002DA6007E0FB681B681A69C3
:1024B800FB681B6842F020021A61002306E0FB68F3
:1024C8005B6A43F48022FB685A62012318461C3772
:1024D800BD465DF8047B704780B485B000AF786076
:1024E80039607B6893F82030FB73FB7B012B02D0AB
:1024F800FB7B022B09D17B681B6859697B681B68C9
:102508003A680A435A61002306E07B685B6A43F431
:1025180080227B685A62012318461437BD465DF84D
:10252800047B704780B58AB000AF786000237B6277
:102538007B681B685B693B627B681B685B68FB6147
:102548007B681B689B68BB617B681B68DB687B6179
:102558007B681B681B693B617B681B689B69FB6028
:102568003B6A03F00103002B7CD0BB6903F0010335
:10257800002B23D07B681B6801229A60BB6903F09B
:102588000203002B03D0786800F07DF916E0BB69E0
:1025980003F00403002B04D07B6A43F400637B62DE
:1025A8000CE0BB6903F00803002B04D07B6A43F4FA
:1025B80080537B6202E0786800F083F9BB6903F41A
:1025C8008073002B24D07B681B684FF480729A605C
:1025D800BB6903F40073002B03D0786800F05DF941
:1025E80016E0BB6903F48063002B04D07B6A43F4D4
:1025F80000537B620CE0BB6903F40063002B04D03A
:102608007B6A43F480437B6202E0786800F063F9F8
:10261800BB6903F48033002B24D07B681B684FF41C
:1026280080329A60BB6903F40033002B03D07868CA
:1026380000F03DF916E0BB6903F48023002B04D0B9
:102648007B6A43F400437B620CE0BB6903F400231C
:10265800002B04D07B6A43F480337B6202E0786805
:1026680000F043F93B6A03F00803002B0CD07B69A8
:1026780003F01003002B07D07B6A43F400737B62DE
:102688007B681B681022DA603B6A03F00403002BA6
:102698000BD07B6903F00803002B06D07B681B680E
:1026A8000822DA60786800F02AF93B6A03F002032E
:1026B800002B09D07B681B68DB6803F00303002B41
:1026C80002D0786808F088F83B6A03F04003002BD2
:1026D8000CD03B6903F01003002B07D07B6A43F44E
:1026E80080637B627B681B6810221A613B6A03F077
:1026F8002003002B0BD03B6903F00803002B06D006
:102708007B681B6808221A61786800F00CF93B6A3C
:1027180003F01003002B09D07B681B681B6903F0CA
:102728000303002B02D0786800F0F3F83B6A03F447
:102738000033002B0BD0FB6903F01003002B06D0ED
:102748007B681B6810225A60786800F0F6F83B6ACC
:1027580003F48033002B0BD0FB6903F00803002B34
:1027680006D07B681B6808225A60786800F0EFF88A
:102778003B6A03F40043002B75D0FB6903F00403A4
:10278800002B6CD03B6A03F48073002B08D0FB68E5
:1027980003F00103002B03D07B6A43F001037B6243
:1027A8003B6A03F40073002B08D0FB6803F00203B4
:1027B800002B03D07B6A43F002037B623B6A03F47D
:1027C8008063002B08D0FB6803F00403002B03D0C0
:1027D8007B6A43F004037B623B6A03F40063002BCB
:1027E8003DD0FB6803F07003002B38D0FB6803F082
:1027F8007003302B17D0302B04D8102B09D0202B86
:102808000CD024E0502B18D0602B1BD0402B0FD0BD
:102818001DE07B6A43F008037B6218E07B6A43F0A3
:1028280010037B6213E07B6A43F020037B620EE0B7
:102838007B6A43F040037B6209E07B6A43F08003D4
:102848007B6204E07B6A43F480737B6200BF7B6831
:102858001B689A697B681B6822F070029A617B6822
:102868001B6804225A607B6A002B08D07B685A6A6E
:102878007B6A1A437B685A62786800F072F800BF76
:102888002837BD4680BD80B483B000AF786000BFF4
:102898000C37BD465DF8047B704780B483B000AF49
:1028A800786000BF0C37BD465DF8047B704780B484
:1028B80083B000AF786000BF0C37BD465DF8047B7D
:1028C800704780B483B000AF786000BF0C37BD4656
:1028D8005DF8047B704780B483B000AF786000BFB8
:1028E8000C37BD465DF8047B704780B483B000AFF9
:1028F800786000BF0C37BD465DF8047B704780B434
:1029080083B000AF786000BF0C37BD465DF8047B2C
:10291800704780B483B000AF786000BF0C37BD4605
:102928005DF8047B704780B483B000AF786000BF67
:102938000C37BD465DF8047B704780B483B000AFA8
:10294800786000BF0C37BD465DF8047B704780B4E3
:1029580083B000AF786000BF0C37BD465DF8047BDC
:10296800704780B483B000AF786000BF0C37BD46B5
:102978005DF8047B7047000080B485B000AF7860D4
:102988007B6803F00703FB600C4BDB68BB60BA682D
:102998004FF6FF031340BB60FB681A02BB68134382
:1029A80043F0BF6343F40033BB60044ABB68D360A1
:1029B80000BF1437BD465DF8047B704700ED00E0AA
:1029C80080B400AF044BDB681B0A03F0070318460A
:1029D800BD465DF8047B704700ED00E080B483B02D
:1029E80000AF0346FB7197F90730002B0BDBFB792F
:1029F80003F01F02074997F907305B09012000FA25
:102A080002F241F8232000BF0C37BD465DF8047B75
:102A1800704700BF00E100E080B483B000AF034618
:102A28003960FB7197F90730002B0ADB3B68DAB293
:102A38000C4997F907301201D2B20B4483F80023EE
:102A48000AE03B68DAB20849FB7903F00F03043B5C
:102A58001201D2B20B441A7600BF0C37BD465DF89E
:102A6800047B704700E100E000ED00E080B489B02D
:102A780000AFF860B9607A60FB6803F00703FB6198
:102A8800FB69C3F10703042B28BF0423BB61FB695F
:102A98000433062B02D9FB69033B00E000237B616A
:102AA8004FF0FF32BB6902FA03F3DA43BB681A40FE
:102AB8007B699A404FF0FF317B6901FA03F3D943F0
:102AC8007B680B40134318462437BD465DF8047BEA
:102AD8007047000080B582B000AF78607B68013B2A
:102AE800B3F1807F01D301230FE00A4A7B68013BE1
:102AF80053600F214FF0FF30FFF78EFF054B002288
:102B08009A60044B07221A60002318460837BD460E
:102B180080BD00BF10E000E080B582B000AF7860F3
:102B28007868FFF729FF00BF0837BD4680BD80B52C
:102B380086B000AF0346B9607A60FB7300237B61FF
:102B4800FFF73EFF78617A68B9687869FFF78EFF0A
:102B5800024697F90F3011461846FFF75DFF00BF90
:102B68001837BD4680BD80B582B000AF0346FB7103
:102B780097F907301846FFF731FF00BF0837BD4601
:102B880080BD80B582B000AF78607868FFF7A2FF9B
:102B9800034618460837BD4680BD000080B586B09C
:102BA80000AF786000237B61FFF748F838617B68E5
:102BB800002B01D1012399E07B68002283F834209F
:102BC8007B68022283F835207B681B681A687B685B
:102BD8001B6822F001021A600FE0FFF72FF8024687
:102BE8003B69D31A052B08D97B6820225A657B6874
:102BF800032283F83520032378E07B681B681B6871
:102C080003F00103002BE8D17B681B681B687B611C
:102C18007A69384B13407B617B685A687B689B688C
:102C28001A437B68DB681A437B681B691A437B6815
:102C38005B691A437B689B691A437B68DB691A43A3
:102C48007B681B6A13437A6913437B617B685B6A01
:102C5800042B07D17B68DA6A7B681B6B13437A699C
:102C680013437B617B681B687A691A607B681B6801
:102C78005B697B617B6923F007037B617B685B6A27
:102C88007A6913437B617B685B6A042B17D17B6885
:102C98009B6A7A6913437B617B68DB6A002B0ED0E1
:102CA800786800F091FA0346002B08D07B68402230
:102CB8005A657B68012283F83520012316E07B687A
:102CC8001B687A695A61786800F048FA0346FB6025
:102CD8007B68DB6D3F229A40FB689A607B68002224
:102CE8005A657B68012283F8352000231846183777
:102CF800BD4680BD3F8010F080B586B000AFF8605B
:102D0800B9607A603B600023FB75FB689B6D3B6193
:102D1800FB6893F83430012B01D1022340E0FB68B3
:102D2800012283F83420FB6893F83530DBB2012B9D
:102D38002FD1FB68022283F83520FB6800225A65F0
:102D48003B687A68B968F86800F0DAF9FB68DB6D07
:102D58003F229A403B699A60FB681B681A68FB68C7
:102D68001B6842F016021A60FB681B6C002B07D028
:102D7800FB681B681A68FB681B6842F008021A6047
:102D8800FB681B681A68FB681B6842F001021A603E
:102D980005E0FB68002283F834200223FB75FB7DE5
:102DA80018461837BD4680BD80B483B000AF786040
:102DB8007B6893F83530DBB2022B04D07B68802225
:102DC8005A6501230CE07B68052283F835207B686F
:102DD8001B681A687B681B6822F001021A600023CE
:102DE80018460C37BD465DF8047B704780B586B041
:102DF80000AF78600023BB60924B1B68924AA2FB2D
:102E080003239B0A7B617B689B6D3B613B691B6865
:102E1800FB607B68DB6D08229A40FB681340002B3F
:102E28001AD07B681B681B6803F00403002B13D0BF
:102E38007B681B681A687B681B6822F004021A60AA
:102E48007B68DB6D08229A403B699A607B685B6D02
:102E580043F001027B685A657B68DB6D01229A406A
:102E6800FB681340002B12D07B681B685B6903F07A
:102E78008003002B0BD07B68DB6D01229A403B69F5
:102E88009A607B685B6D43F002027B685A657B68D9
:102E9800DB6D04229A40FB681340002B12D07B683C
:102EA8001B681B6803F00203002B0BD07B68DB6DEB
:102EB80004229A403B699A607B685B6D43F0040288
:102EC8007B685A657B68DB6D10229A40FB6813406B
:102ED800002B43D07B681B681B6803F00803002B9A
:102EE8003CD07B68DB6D10229A403B699A607B6816
:102EF8001B681B6803F48023002B18D07B681B68B1
:102F08001B6803F40023002B08D17B681B6C002B83
:102F180024D07B681B6C786898471FE07B689B6CA3
:102F2800002B1BD07B689B6C7868984716E07B6801
:102F38001B681B6803F48073002B07D17B681B6830
:102F48001A687B681B6822F008021A607B681B6C91
:102F5800002B03D07B681B6C786898477B68DB6D17
:102F680020229A40FB681340002B00F08E807B687B
:102F78001B681B6803F01003002B00F086807B6839
:102F8800DB6D20229A403B699A607B6893F8353064
:102F9800DBB2052B36D17B681B681A687B681B6817
:102FA80022F016021A607B681B685A697B681B68E6
:102FB80022F080025A617B681B6C002B03D17B686E
:102FC8009B6C002B07D07B681B681A687B681B68A2
:102FD80022F008021A607B68DB6D3F229A403B6949
:102FE8009A607B68002283F834207B68012283F88A
:102FF80035207B681B6D002B7DD07B681B6D786846
:10300800984778E07B681B681B6803F48023002BD3
:103018001CD07B681B681B6803F40023002B08D1B5
:103028007B685B6C002B30D07B685B6C786898475A
:103038002BE07B68DB6B002B27D07B68DB6B786829
:10304800984722E000000020B5814E1B7B681B6872
:103058001B6803F48073002B0FD17B681B681A6808
:103068007B681B6822F010021A607B68002283F8D4
:1030780034207B68012283F835207B68DB6B002BCA
:1030880003D07B68DB6B786898477B685B6D002BA7
:1030980032D07B685B6D03F00103002B22D07B6884
:1030A800052283F835207B681B681A687B681B68D3
:1030B80022F001021A60BB680133BB607A699A4248
:1030C80007D37B681B681B6803F00103002BF2D150
:1030D80000E000BF7B68002283F834207B6801226F
:1030E80083F835207B68DB6C002B05D07B68DB6CB4
:1030F8007868984700E000BF1837BD4680BD00BF1C
:1031080080B485B000AFF860B9607A603B60FB6856
:103118001B681A68FB681B6822F480221A60FB6827
:103128001B683A685A60FB689B68402B08D1FB68AB
:103138001B687A689A60FB681B68BA68DA6007E0FF
:10314800FB681B68BA689A60FB681B687A68DA6073
:1031580000BF1437BD465DF8047B704780B485B066
:1031680000AF78607B681B68DBB2103B144AA2FB97
:1031780003231B09FB60134AFB6813441B781A4698
:103188007B68DA65FB68032B09D97B681B6823F425
:103198007F7323F003031A1D7B689A6507E07B6839
:1031A8001B6823F47F7323F003037A6893657B68B5
:1031B8009B6D18461437BD465DF8047B704700BF09
:1031C800ABAAAAAAE0BE000880B485B000AF7860B8
:1031D8000023FB737B689B6ABB607B689B69002B41
:1031E8001FD1BB68032B55D801A252F823F000BFAA
:1031F800093200081B320008093200089D32000815
:103208007B68DB6A03F08073002B45D00123FB73D6
:1032180042E07B68DB6AB3F1C07F3FD10123FB73D7
:103228003CE07B689B69B3F5005F21D1BB68032B49
:1032380036D801A252F823F051320008573200085C
:1032480051320008693200080123FB732FE07B68C4
:10325800DB6A03F08073002B24D00123FB7321E089
:103268007B68DB6AB3F1C07F1ED10123FB731BE0CF
:10327800BB68022B02D9032B03D018E00123FB7390
:1032880015E07B68DB6A03F08073002B0ED0012306
:10329800FB730BE000BF0AE000BF08E000BF06E0D8
:1032A80000BF04E000BF02E000BF00E000BFFB7BFE
:1032B80018461437BD465DF8047B704780B489B062
:1032C80000AF7860396000237B6100233B610023F5
:1032D800BB610023FB6165E10122FB6902FA03F38C
:1032E8007B613B681B687A6913403B613A697B697B
:1032F8009A4240F054813B685B68012B0BD03B68D5
:103308005B68022B07D03B685B68112B03D03B68D6
:103318005B68122B30D17B689B68BB61FB695B00E3
:10332800032202FA03F3DB43BA691340BB613B682B
:10333800DA68FB695B0002FA03F3BA691343BB61FD
:103348007B68BA699A607B685B68BB610122FB692C
:1033580002FA03F3DB43BA691340BB613B685B685D
:103368001B0903F00102FB6902FA03F3BA6913436C
:10337800BB617B68BA695A607B68DB68BB61FB69C3
:103388005B00032202FA03F3DB43BA691340BB6113
:103398003B689A68FB695B0002FA03F3BA69134356
:1033A800BB617B68BA69DA603B685B68022B03D053
:1033B8003B685B68122B23D1FB69DA087B6808320B
:1033C80053F82230BB61FB6903F007039B000F220F
:1033D80002FA03F3DB43BA691340BB613B681A691D
:1033E800FB6903F007039B0002FA03F3BA6913436E
:1033F800BB61FB69DA087B680832B96943F82210B7
:103408007B681B68BB61FB695B00032202FA03F35C
:10341800DB43BA691340BB613B685B6803F0030296
:10342800FB695B0002FA03F3BA691343BB617B686B
:10343800BA691A603B685B6803F08053002B00F0A0
:10344800AE800023FB605C4B5B6C5B4A43F48043BB
:103458005364594B5B6C03F48043FB60FB68574A29
:10346800FB699B08023352F82330BB61FB6903F008
:1034780003039B000F2202FA03F3DB43BA691340EC
:10348800BB617B684E4A934225D07B684D4A934284
:103498001FD07B684C4A934219D07B684B4A9342B1
:1034A80013D07B684A4A93420DD07B68494A9342BD
:1034B80007D07B68484A934201D106230CE00723D2
:1034C8000AE0052308E0042306E0032304E00223BE
:1034D80002E0012300E00023FA6902F003029200EF
:1034E8009340BA691343BB613449FB699B080233B3
:1034F800BA6941F82320394B1B68BB613B69DB4340
:10350800BA691340BB613B685B6803F48033002BE6
:1035180003D0BA693B691343BB61304ABB69136086
:103528002E4B5B68BB613B69DB43BA691340BB61E7
:103538003B685B6803F40033002B03D0BA693B692E
:103548001343BB61254ABB695360244B9B68BB612D
:103558003B69DB43BA691340BB613B685B6803F4B2
:103568008013002B03D0BA693B691343BB611B4A24
:10357800BB699360194BDB68BB613B69DB43BA6984
:103588001340BB613B685B6803F40013002B03D056
:10359800BA693B691343BB61104ABB69D360FB69D5
:1035A8000133FB61FB690F2B7FF696AE00BF243712
:1035B800BD465DF8047B7047003802400038014082
:1035C800000002400004024000080240000C0240D3
:1035D800001002400014024000180240003C014064
:1035E80080B485B000AF78600B467B807B681A6931
:1035F8007B881340002B02D00123FB7301E00023DA
:10360800FB73FB7B18461437BD465DF8047B704797
:1036180080B483B000AF78600B467B8013467B7024
:103628007B78002B03D07A887B689A6103E07B88DB
:103638001A047B689A6100BF0C37BD465DF8047BAD
:10364800704780B584B000AF78607B68002B01D1EB
:1036580001232BE07B681B684CF6CC421A607B6820
:103668001B6845F255521A607B681B687A68526875
:103678005A607B681B687A6892689A60FEF7DEFA7F
:10368800F86008E0FEF7DAFA0246FB68D31A302B36
:1036980001D903230AE07B681B68DB68002BF1D1A2
:1036A8007B681B684AF6AA221A600023184610375E
:1036B800BD4680BD80B483B000AF78607B681B686E
:1036C8004AF6AA221A60002318460C37BD465DF850
:1036D800047B704780B582B000AF00237B60002375
:1036E8003B60204B1B6C1F4A43F0805313641D4BF7
:1036F8001B6C03F080533B603B681B4B01221A6034
:10370800FEF79CFA786009E0FEF798FA02467B68B3
:10371800D31AB3F57A7F01D903231FE0134B5B68F3
:1037280003F48033B3F5803FEED1114B01221A60C8
:10373800FEF784FA786009E0FEF780FA02467B68B3
:10374800D31AB3F57A7F01D9032307E0074B5B68E7
:1037580003F40033B3F5003FEED1002318460837D1
:10376800BD4680BD0038024040000E420070004057
:1037780044000E4280B584B000AF786039607B6841
:10378800002B01D10123CCE0684B1B6803F00F0329
:103798003A689A420CD9654B3A68D2B21A70634BB0
:1037A8001B6803F00F033A689A4201D00123B8E07E
:1037B8007B681B6803F00203002B20D07B681B6822
:1037C80003F00403002B05D0594B9B68584A43F477
:1037D800E05393607B681B6803F00803002B05D057
:1037E800534B9B68524A43F460439360504B9B6829
:1037F80023F0F0027B689B684D4913438B607B681C
:103808001B6803F00103002B44D07B685B68012B25
:1038180007D1474B1B6803F40033002B19D1012350
:103828007FE07B685B68022B03D07B685B68032BB7
:1038380007D13F4B1B6803F00073002B09D101230C
:103848006FE03B4B1B6803F00203002B01D10123FF
:1038580067E0374B9B6823F003027B685B68344959
:1038680013438B60FEF7EAF9F8600AE0FEF7E6F921
:103878000246FB68D31A41F28832934201D90323E6
:103888004FE02B4B9B6803F00C027B685B689B0046
:103898009A42EBD1254B1B6803F00F033A689A4212
:1038A8000CD2224B3A68D2B21A70204B1B6803F034
:1038B8000F033A689A4201D0012332E07B681B6803
:1038C80003F00403002B08D0194B9B6823F4E05243
:1038D8007B68DB68164913438B607B681B6803F0C1
:1038E8000803002B09D0124B9B6823F460427B68C5
:1038F8001B69DB000E4913438B6000F055F8014645
:103908000B4B9B681B0903F00F030A4AD35C21FA8F
:1039180003F3094A1360094B1B681846FEF74AF976
:10392800002318461037BD4680BD00BF003C02404A
:1039380000380240C8BE0008000000200400002033
:1039480080B400AF034B1B681846BD465DF8047B86
:10395800704700BF0000002080B500AFFFF7F0FF00
:103968000146054B9B689B0A03F00703034AD35C97
:1039780021FA03F3184680BD00380240D8BE00087B
:1039880080B500AFFFF7DCFF0146054B9B685B0B7A
:1039980003F00703034AD35C21FA03F3184680BDFA
:1039A80000380240D8BE0008F0B587B000AF002349
:1039B800FB6000237B610023BB6000237B60002346
:1039C8003B619F4B9B6803F00C030C2B00F230818A
:1039D80001A252F823F000BF153A0008393C00084C
:1039E800393C0008393C00081B3A0008393C0008FB
:1039F800393C0008393C0008213A0008393C0008E5
:103A0800393C0008393C00082F3B00088D4B3B61CE
:103A180011E18D4B3B610EE1894B5B6803F03F037D
:103A2800FB60874B5B6803F48003002B23D0844B37
:103A38005B689B094FF0000440F2FF114FF0000251
:103A480003EA010504EA02067F4A02FB06F10022A6
:103A580002FB05F20A447C49A5FB010153181946EB
:103A6800FB684FF000041A462346FDF767F8034643
:103A78000C467B6149E0724B5B689B094FF0000480
:103A880040F2FF114FF0000203EA010504EA0206C2
:103A9800294632464FF000034FF00004540144EA2F
:103AA800D1644B0119462246491B62EB06024FF0CE
:103AB80000034FF00004940144EA91648B015B1AFF
:103AC80064EB02044FF000014FF00002E20042EA0A
:103AD8005372D9000B4614465B1944EB06044FF0A9
:103AE80000014FF00002A20242EA935299020B46EB
:103AF800144618462146FB684FF000041A46234630
:103B0800FDF71CF803460C467B614D4B5B681B0CAC
:103B180003F0030301335B00BB607A69BB68B2FB47
:103B2800F3F33B6187E0464B5B6803F03F03FB60C0
:103B3800434B5B6803F48003002B23D0404B5B6846
:103B48009B094FF0000440F2FF114FF0000203EA16
:103B5800010504EA02063C4A02FB06F1002202FBC8
:103B680005F20A443849A5FB010153181946FB68B8
:103B78004FF000041A462346FCF7E0FF03460C46C4
:103B88007B6149E02E4B5B689B094FF0000440F2D3
:103B9800FF114FF0000203EA010504EA0206294674
:103BA80032464FF000034FF00004540144EAD16458
:103BB8004B0119462246491B62EB06024FF00003EF
:103BC8004FF00004940144EA91648B015B1A64EBA2
:103BD80002044FF000014FF00002E20042EA537283
:103BE800D9000B4614465B1944EB06044FF000015C
:103BF8004FF00002A20242EA935299020B46144681
:103C080018462146FB684FF000041A462346FCF785
:103C180095FF03460C467B61094B5B681B0F03F05D
:103C280007037B607A697B68B2FBF3F33B6102E0D0
:103C3800044B3B6100BF3B6918461C37BD46F0BDCD
:103C4800003802400024F40040787D0180B586B039
:103C580000AF786000233B617B681B6803F00103B9
:103C6800002B00F08380954B9B6803F00C03042B1A
:103C780019D0924B9B6803F00C03082B06D18F4B8D
:103C88005B6803F48003B3F5800F0CD08B4B9B6803
:103C980003F00C030C2B12D1884B5B6803F48003F0
:103CA800B3F5800F0BD1854B1B6803F40033002B51
:103CB8005BD07B685B68002B57D1012316E27B68D9
:103CC8005B68B3F5803F06D17C4B1B687B4A43F4A5
:103CD800803313601DE07B685B68B3F5A02F0CD1BF
:103CE800764B1B68754A43F480231360734B1B683B
:103CF800724A43F4803313600BE0704B1B686F4AC1
:103D080023F4803313606D4B1B686C4A23F48023C3
:103D180013607B685B68002B13D0FDF78FFF386159
:103D280008E0FDF78BFF02463B69D31A642B01D9E3
:103D38000323DBE1614B1B6803F40033002BF0D055
:103D480014E0FDF77BFF386108E0FDF777FF0246D6
:103D58003B69D31A642B01D90323C7E1574B1B686E
:103D680003F40033002BF0D100E000BF7B681B6830
:103D780003F00203002B6FD0504B9B6803F00C0339
:103D8800002B17D04D4B9B6803F00C03082B05D173
:103D98004A4B5B6803F48003002B0BD0474B9B68AE
:103DA80003F00C030C2B1CD1444B5B6803F4800319
:103DB800002B16D1414B1B6803F00203002B05D0E2
:103DC8007B68DB68012B01D001238FE13B4B1B682B
:103DD80023F0F8027B681B69DB00384913430B604A
:103DE8003AE07B68DB68002B20D0354B01221A6053
:103DF800FDF724FF386108E0FDF720FF02463B6924
:103E0800D31A022B01D9032370E12C4B1B6803F052
:103E18000203002BF0D0294B1B6823F0F8027B68C3
:103E28001B69DB00254913430B6015E0244B002276
:103E38001A60FDF703FF386108E0FDF7FFFE024650
:103E48003B69D31A022B01D903234FE11B4B1B6893
:103E580003F00203002BF0D17B681B6803F0080312
:103E6800002B37D07B685B69002B16D0154B0122DD
:103E78001A60FDF7E3FE386108E0FDF7DFFE024651
:103E88003B69D31A022B01D903232FE10B4B5B6F3C
:103E980003F00203002BF0D01CE00A4B00221A604A
:103EA800FDF7CCFE38610FE0FDF7C8FE02463B691E
:103EB800D31A022B08D9032318E100BF00380240A7
:103EC80000004742800E47428A4B5B6F03F00203B3
:103ED800002BE9D17B681B6803F00403002B00F07A
:103EE80097800023FB75834B1B6C03F08053002BDA
:103EF8000FD10023FB607F4B1B6C7E4A43F080533D
:103F080013647C4B1B6C03F08053FB60FB6801233C
:103F1800FB75794B1B6803F48073002B18D1764B23
:103F28001B68754A43F480731360FDF787FE386198
:103F380008E0FDF783FE02463B69D31A022B01D93C
:103F48000323D3E06C4B1B6803F48073002BF0D081
:103F58007B689B68012B06D1664B1B6F654A43F053
:103F6800010313671CE07B689B68052B0CD1614B30
:103F78001B6F604A43F0040313675E4B1B6F5D4A77
:103F880043F0010313670BE05A4B1B6F594A23F0A8
:103F980001031367574B1B6F564A23F0040313673B
:103FA8007B689B68002B15D0FDF748FE38610AE056
:103FB800FDF744FE02463B69D31A41F28832934228
:103FC80001D9032392E04B4B1B6F03F00203002B34
:103FD800EED014E0FDF732FE38610AE0FDF72EFE60
:103FE80002463B69D31A41F28832934201D903232E
:103FF8007CE0404B1B6F03F00203002BEED1FB7DEE
:10400800012B05D13B4B1B6C3A4A23F080531364B8
:104018007B689B69002B68D0364B9B6803F00C03C8
:10402800082B60D07B689B69022B45D1334B00225B
:104038001A60FDF703FE386108E0FDF7FFFD024650
:104048003B69D31A022B01D903234FE0294B1B6884
:1040580003F00073002BF0D17B68DA697B681B6A78
:104068001A437B685B6A9B011A437B689B6A5B08FF
:10407800013B1B041A437B68DB6A1B061A437B68F7
:104088001B6B1B071B4913434B601C4B01221A6017
:10409800FDF7D4FD386108E0FDF7D0FD02463B6925
:1040A800D31A022B01D9032320E0124B1B6803F01B
:1040B8000073002BF0D018E0104B00221A60FDF7B7
:1040C800BDFD386108E0FDF7B9FD02463B69D31A2A
:1040D800022B01D9032309E0064B1B6803F0007388
:1040E800002BF0D101E0012300E000231846183727
:1040F800BD4680BD00380240007000406000474265
:1041080080B582B000AF78607B68002B01D10123B5
:104118001DE07B6893F83D30DBB2002B06D17B684D
:10412800002283F83C207868FDF70EFB7B680222AA
:1041380083F83D207B681A687B680433194610466B
:1041480000F00CFC7B68012283F83D200023184610
:104158000837BD4680BD80B582B000AF78607B6807
:10416800002B01D101231DE07B6893F83D30DBB2C1
:10417800002B06D17B68002283F83C207868FDF785
:1041880003FB7B68022283F83D207B681A687B6802
:1041980004331946104600F0E1FB7B68012283F8DE
:1041A8003D20002318460837BD4680BD80B586B03F
:1041B80000AFF860B9607A607B80FB6893F83D30A7
:1041C800DBB2022B01D10223F3E0FB6893F83D3008
:1041D800DBB2012B0BD17B68002B04D17B88002B31
:1041E80001D00123E5E0FB68022283F83D20BB688B
:1041F8000C2B00F2AD8001A252F823F039420008DE
:1042080059430008594300085943000881420008EF
:10421800594300085943000859430008C942000897
:10422800594300085943000859430008114300083E
:10423800FB685B6A614ADA63FB685B6A604A1A6416
:10424800FB685B6A5F4ADA64FB68586A7968FB68EE
:104258001B6834331A467B88FEF74EFD0346002B55
:1042680001D00123A5E0FB681B68DA68FB681B68BE
:1042780042F40072DA606CE0FB689B6A4F4ADA63CA
:10428800FB689B6A4E4A1A64FB689B6A4D4ADA646B
:10429800FB68986A7968FB681B6838331A467B881C
:1042A800FEF72AFD0346002B01D0012381E0FB68BD
:1042B8001B68DA68FB681B6842F48062DA6048E0D1
:1042C800FB68DB6A3D4ADA63FB68DB6A3C4A1A64CE
:1042D800FB68DB6A3B4ADA64FB68D86A7968FB6882
:1042E8001B683C331A467B88FEF706FD0346002B05
:1042F80001D001235DE0FB681B68DA68FB681B6876
:1043080042F40062DA6024E0FB681B6B2B4ADA6334
:10431800FB681B6B2A4A1A64FB681B6B294ADA6420
:10432800FB68186B7968FB681B6840331A467B8802
:10433800FEF7E2FC0346002B01D0012339E0FB68BD
:104348001B68DA68FB681B6842F48052DA6000E098
:1043580000BFFB681B680122B968184600F0E8FD39
:10436800FB681B68184A934204D0FB681B68174A0D
:10437800934201D1012300E00023002B07D0FB6802
:104388001B685A6CFB681B6842F400425A64FB685D
:104398001B689B6803F007037B617B69062B07D0CA
:1043A800FB681B681A68FB681B6842F001021A6008
:1043B800002318461837BD4680BD00BF8348000853
:1043C800F34800085F48000800000140000401406D
:1043D80080B582B000AF786039603B680C2B55D847
:1043E80001A252F823F000BF2544000895440008B4
:1043F8009544000895440008414400089544000885
:1044080095440008954400085D4400089544000858
:104418009544000895440008794400087B681B68A7
:10442800DA687B681B6822F40072DA607B685B6A72
:104438001846FEF7B9FC2AE07B681B68DA687B68D7
:104448001B6822F48062DA607B689B6A1846FEF774
:10445800ABFC1CE07B681B68DA687B681B6822F48D
:104468000062DA607B68DB6A1846FEF79DFC0EE0A6
:104478007B681B68DA687B681B6822F48052DA6004
:104488007B681B6B1846FEF78FFC00E000BF7B685B
:104498001B6800223968184600F04AFD7B681B68D3
:1044A800224A934204D07B681B68214A934201D177
:1044B800012300E00023002B17D07B681B681A6AD1
:1044C80041F211131340002B0FD17B681B681A6A45
:1044D80040F244431340002B07D17B681B685A6C99
:1044E8007B681B6822F400425A647B681B681A6A5E
:1044F80041F211131340002B0FD17B681B681A6A15
:1045080040F244431340002B07D17B681B681A68AC
:104518007B681B6822F001021A607B68012283F81D
:104528003D20002318460837BD4680BD00000140E5
:104538000004014080B584B000AFF860B9607A60CB
:10454800FB6893F83C30012B01D10223B4E0FB68EF
:10455800012283F83C20FB68022283F83D207B6817
:104568000C2B00F29F8001A252F823F0A945000805
:10457800AD460008AD460008AD460008E94500080C
:10458800AD460008AD460008AD4600082B460008B9
:10459800AD460008AD460008AD4600086B46000869
:1045A800FB681B68B968184600F078FAFB681B6856
:1045B8009A69FB681B6842F008029A61FB681B68ED
:1045C8009A69FB681B6822F004029A61FB681B6801
:1045D8009969BB681A69FB681B680A439A6162E0BB
:1045E800FB681B68B968184600F0C8FAFB681B68C6
:1045F8009A69FB681B6842F400629A61FB681B6851
:104608009A69FB681B6822F480629A61FB681B68E0
:104618009969BB681B691A02FB681B680A439A619F
:1046280041E0FB681B68B968184600F01DFBFB6891
:104638001B68DA69FB681B6842F00802DA61FB68EC
:104648001B68DA69FB681B6822F00402DA61FB6800
:104658001B68D969BB681A69FB681B680A43DA6179
:1046680021E0FB681B68B968184600F071FBFB681D
:104678001B68DA69FB681B6842F40062DA61FB6850
:104688001B68DA69FB681B6822F48062DA61FB68E0
:104698001B68D969BB681B691A02FB681B680A4357
:1046A800DA6100E000BFFB68012283F83D20FB6867
:1046B800002283F83C20002318461037BD4680BDF1
:1046C80080B584B000AF786039607B6893F83C307F
:1046D800012B01D10223A6E07B68012283F83C204C
:1046E8007B68022283F83D207B681B689B68FB601F
:1046F800FB6823F07703FB60FB6823F47F43FB60D0
:104708007B681B68FA689A603B681B68402B67D017
:10471800402B0BD8102B73D0102B02D8002B6FD046
:1047280078E0202B6CD0302B6AD073E0702B0DD042
:10473800702B04D8502B33D0602B41D06AE0B3F5EE
:10474800805F66D0B3F5005F17D063E07B681868B8
:104758003B6899683B685A683B68DB6800F0C8FBAF
:104768007B681B689B68FB60FB6843F07703FB6012
:104778007B681B68FA689A604CE07B6818683B683D
:1047880099683B685A683B68DB6800F0B1FB7B6856
:104798001B689A687B681B6842F480429A6039E01B
:1047A8007B6818683B6859683B68DB681A4600F004
:1047B80025FB7B681B685021184600F07EFB29E02A
:1047C8007B6818683B6859683B68DB681A4600F0E4
:1047D80044FB7B681B686021184600F06EFB19E0FB
:1047E8007B6818683B6859683B68DB681A4600F0C4
:1047F80005FB7B681B684021184600F05EFB09E05A
:104808007B681A683B681B681946104600F055FB20
:1048180000E000BF7B68012283F83D207B6800220E
:1048280083F83C20002318461037BD4680BD80B46D
:1048380083B000AF786000BF0C37BD465DF8047BDD
:10484800704780B483B000AF786000BF0C37BD46B6
:104858005DF8047B704780B584B000AF78607B68F2
:104868009B6BFB60FB68012283F83D20F868FFF72B
:10487800E8FF00BF1037BD4680BD80B584B000AFEB
:1048880078607B689B6BFB60FB68012283F83D20A6
:10489800FB685B6A7A689A4203D1FB6801221A773F
:1048A80019E0FB689B6A7A689A4203D1FB68022286
:1048B8001A7710E0FB68DB6A7A689A4203D1FB68D2
:1048C80004221A7707E0FB681B6B7A689A4202D1C8
:1048D800FB6808221A77F86804F066FCFB68002277
:1048E8001A7700BF1037BD4680BD80B584B000AFD1
:1048F80078607B689B6BFB60FB68012283F83D2036
:10490800FB685B6A7A689A4203D1FB6801221A77CE
:1049180019E0FB689B6A7A689A4203D1FB68022215
:104928001A7710E0FB68DB6A7A689A4203D1FB6861
:1049380004221A7707E0FB681B6B7A689A4202D157
:10494800FB6808221A77F868FFF771FFFB680022F6
:104958001A7700BF1037BD4680BD000080B485B00F
:1049680000AF786039607B681B68FB607B68404AF1
:10497800934213D07B68B3F1804F0FD07B683D4AD8
:1049880093420BD07B683C4A934207D07B683B4AF2
:10499800934203D07B683A4A934208D1FB6823F0DC
:1049A8007003FB603B685B68FA681343FB607B68D5
:1049B8002F4A93422BD07B68B3F1804F27D07B6876
:1049C8002C4A934223D07B682B4A93421FD07B68A2
:1049D8002A4A93421BD07B68294A934217D07B68A6
:1049E800284A934213D07B68274A93420FD07B68AA
:1049F800264A93420BD07B68254A934207D07B68AE
:104A0800244A934203D07B68234A934208D1FB6827
:104A180023F44073FB603B68DB68FA681343FB6070
:104A2800FB6823F080023B685B691343FB607B688B
:104A3800FA681A603B689A687B68DA623B681A68A9
:104A48007B689A627B680A4A934203D07B680C4A67
:104A5800934203D13B681A697B681A637B68012219
:104A68005A6100BF1437BD465DF8047B704700BF2C
:104A7800000001400004004000080040000C004015
:104A8800000401400040014000440140004801404A
:104A980000180040001C00400020004080B487B08F
:104AA80000AF786039607B681B6A23F001027B687D
:104AB8001A627B681B6A7B617B685B683B617B6809
:104AC8009B69FB60FB6823F07003FB60FB6823F0C5
:104AD8000303FB603B681B68FA681343FB607B6950
:104AE80023F002037B613B689B687A6913437B610F
:104AF8007B68204A934203D07B681F4A93420CD1BB
:104B08007B6923F008037B613B68DB687A691343A0
:104B18007B617B6923F004037B617B68154A9342C0
:104B280003D07B68144A934211D13B6923F4807304
:104B38003B613B6923F400733B613B685B693A69FD
:104B480013433B613B689B693A6913433B617B684C
:104B58003A695A607B68FA689A613B685A687B6868
:104B68005A637B687A691A6200BF1C37BD465DF8D4
:104B7800047B7047000001400004014080B487B006
:104B880000AF786039607B681B6A23F010027B688D
:104B98001A627B681B6A7B617B685B683B617B6828
:104BA8009B69FB60FB6823F4E043FB60FB6823F42C
:104BB8004073FB603B681B681B02FA681343FB6089
:104BC8007B6923F020037B613B689B681B017A6942
:104BD80013437B617B68224A934203D07B68214A56
:104BE80093420DD17B6923F080037B613B68DB68CE
:104BF8001B017A6913437B617B6923F040037B6166
:104C08007B68174A934203D07B68164A934213D1B4
:104C18003B6923F480633B613B6923F400633B6198
:104C28003B685B699B003A6913433B613B689B693E
:104C38009B003A6913433B617B683A695A607B6819
:104C4800FA689A613B685A687B689A637B687A69F4
:104C58001A6200BF1C37BD465DF8047B704700BF71
:104C6800000001400004014080B487B000AF7860C4
:104C780039607B681B6A23F480727B681A627B68E0
:104C88001B6A7B617B685B683B617B68DB69FB60F7
:104C9800FB6823F07003FB60FB6823F00303FB60F1
:104CA8003B681B68FA681343FB607B6923F4007355
:104CB8007B613B689B681B027A6913437B617B6855
:104CC800214A934203D07B68204A93420DD17B69E5
:104CD80023F400637B613B68DB681B027A6913433A
:104CE8007B617B6923F480637B617B68164A93420E
:104CF80003D07B68154A934213D13B6923F4805350
:104D08003B613B6923F400533B613B685B691B01D2
:104D18003A6913433B613B689B691B013A6913433A
:104D28003B617B683A695A607B68FA68DA613B687C
:104D38005A687B68DA637B687A691A6200BF1C3735
:104D4800BD465DF8047B7047000001400004014047
:104D580080B487B000AF786039607B681B6A23F441
:104D680080527B681A627B681B6A3B617B685B6860
:104D78007B617B68DB69FB60FB6823F4E043FB60D5
:104D8800FB6823F44073FB603B681B681B02FA68EE
:104D98001343FB603B6923F400533B613B689B680A
:104DA8001B033A6913433B617B68124A934203D061
:104DB8007B68114A934209D17B6923F480437B6164
:104DC8003B685B699B017A6913437B617B687A69FD
:104DD8005A607B68FA68DA613B685A687B681A64CB
:104DE8007B683A691A6200BF1C37BD465DF8047BD0
:104DF800704700BF000001400004014080B487B044
:104E080000AFF860B9607A60FB681B6A7B61FB6879
:104E18001B6A23F00102FB681A62FB689B693B610D
:104E28003B6923F0F0033B617B681B013A6913433C
:104E38003B617B6923F00A037B617A69BB68134392
:104E48007B61FB683A699A61FB687A691A6200BFFC
:104E58001C37BD465DF8047B704780B487B000AF4F
:104E6800F860B9607A60FB681B6A23F01002FB687F
:104E78001A62FB689B697B61FB681B6A3B617B6903
:104E880023F470437B617B681B037A6913437B615E
:104E98003B6923F0A0033B61BB681B013A691343DC
:104EA8003B61FB687A699A61FB683A691A6200BFDC
:104EB8001C37BD465DF8047B704780B485B000AFF1
:104EC800786039607B689B68FB60FB6823F070033F
:104ED800FB603A68FB68134343F00703FB607B6899
:104EE800FA689A6000BF1437BD465DF8047B7047C6
:104EF80080B487B000AFF860B9607A603B60FB6847
:104F08009B687B617B6923F47F437B613B681A0262
:104F18007B681A43BB6813437A6913437B61FB6858
:104F28007A699A6000BF1C37BD465DF8047B7047FC
:104F380080B487B000AFF860B9607A60BB6803F0EE
:104F48001F03012202FA03F37B61FB681A6A7B697B
:104F5800DB431A40FB681A62FB681A6ABB6803F0F5
:104F68001F03796801FA03F31A43FB681A6200BF4A
:104F78001C37BD465DF8047B7047000080B485B0DF
:104F880000AF786039607B6893F83C30012B01D121
:104F980002235AE07B68012283F83C207B680222C6
:104FA80083F83D207B681B685B68FB607B681B6837
:104FB8009B68BB60FB6823F07003FB603B681B6861
:104FC800FA681343FB607B681B68FA685A607B6861
:104FD8001B68214A934222D07B681B68B3F1804F3B
:104FE8001DD07B681B681D4A934218D07B681B68DC
:104FF8001B4A934213D07B681B681A4A93420ED00F
:105008007B681B68184A934209D07B681B68174A5B
:10501800934204D07B681B68154A93420CD1BB6845
:1050280023F08003BB603B685B68BA681343BB60CE
:105038007B681B68BA689A607B68012283F83D2008
:105048007B68002283F83C20002318461437BD46AD
:105058005DF8047B704700BF000001400004004079
:1050680000080040000C00400004014000400140DE
:105078000018004080B582B000AF78607B68002BD4
:1050880001D101233FE07B6893F83930DBB2002B74
:1050980006D17B68002283F838207868FCF778FC12
:1050A8007B68242283F839207B681B68DA687B6870
:1050B8001B6822F40052DA60786800F0EFFA7B6827
:1050C8001B681A697B681B6822F490421A617B6826
:1050D8001B685A697B681B6822F02A025A617B6840
:1050E8001B68DA687B681B6842F40052DA607B68E8
:1050F8000022DA637B68202283F839207B6820222B
:1051080083F83A20002318460837BD4680BD80B48E
:1051180085B000AFF860B9601346FB80FB6893F870
:105128003930DBB2202B30D1BB68002B02D0FB8892
:10513800002B01D1012329E0FB6893F83830012BBB
:1051480001D1022322E0FB68012283F83820FB68A2
:10515800BA681A62FB68FA889A84FB68FA88DA8463
:10516800FB680022DA63FB68212283F83920FB6898
:10517800002283F83820FB681B68DA68FB681B6824
:1051880042F08002DA60002300E002231846143758
:10519800BD465DF8047B704780B485B000AFF86009
:1051A800B9601346FB80FB6893F83A30DBB2202BDA
:1051B80040D1BB68002B02D0FB88002B01D1012312
:1051C80039E0FB6893F83830012B01D1022332E033
:1051D800FB68012283F83820FB68BA689A62FB688A
:1051E800FA889A85FB68FA88DA85FB680022DA6310
:1051F800FB68222283F83A20FB68002283F83820D3
:10520800FB681B68DA68FB681B6842F48072DA6026
:10521800FB681B685A69FB681B6842F001025A6107
:10522800FB681B68DA68FB681B6842F02002DA60DA
:10523800002300E0022318461437BD465DF8047BBE
:105248007047000080B588B000AF78607B681B6845
:105258001B68FB617B681B68DB68BB617B681B683C
:105268005B697B6100233B610023FB60FB6903F002
:105278000F033B613B69002B0DD1FB6903F0200351
:10528800002B08D0BB6903F02003002B03D07868FB
:1052980000F082F9D1E03B69002B00F0B0807B6917
:1052A80003F00103002B05D1BB6903F49073002BB5
:1052B80000F0A580FB6903F00103002B0AD0BB694D
:1052C80003F48073002B05D07B68DB6B43F001028D
:1052D8007B68DA63FB6903F00403002B0AD07B695F
:1052E80003F00103002B05D07B68DB6B43F002025F
:1052F8007B68DA63FB6903F00203002B0AD07B6941
:1053080003F00103002B05D07B68DB6B43F004023C
:105318007B68DA63FB6903F00803002B0FD0BB69D5
:1053280003F02003002B04D17B6903F00103002B59
:1053380005D07B68DB6B43F008027B68DA637B6827
:10534800DB6B002B78D0FB6903F02003002B07D020
:10535800BB6903F02003002B02D0786800F01CF929
:105368007B681B685B6903F04003402B0CBF01237B
:105378000023DBB2FB607B68DB6B03F00803002BC8
:1053880002D1FB68002B31D0786800F065F87B68A3
:105398001B685B6903F04003402B23D17B681B68C3
:1053A8005A697B681B6822F040025A617B685B6B14
:1053B800002B13D07B685B6B214A1A657B685B6B9B
:1053C8001846FDF7F1FC0346002B16D07B685B6B93
:1053D8001B6D7A68526B104698470EE0786800F0AB
:1053E80031F80AE0786800F02DF806E0786800F0F7
:1053F80029F87B680022DA631EE000BF1CE0FB6925
:1054080003F08003002B08D0BB6903F08003002B56
:1054180003D0786800F052F80FE0FB6903F040030E
:10542800002B0AD0BB6903F04003002B05D0786835
:1054380000F09AF800BF00E000BF2037BD4680BDED
:105448009D54000880B483B000AF786000BF0C376B
:10545800BD465DF8047B704780B483B000AF7860C8
:105468007B681B68DA687B681B6822F49072DA60D4
:105478007B681B685A697B681B6822F001025A61C5
:105488007B68202283F83A2000BF0C37BD465DF8C0
:10549800047B704780B584B000AF78607B689B6BF5
:1054A800FB60FB680022DA85FB680022DA84F86872
:1054B800FFF7C8FF00BF1037BD4680BD80B485B078
:1054C80000AF78607B6893F83930DBB2212B44D188
:1054D8007B689B68B3F5805F1AD17B681B6AFB60A9
:1054E800FB681B881A467B681B68C2F308025A606F
:1054F8007B681B69002B05D17B681B6A9A1C7B683B
:105508001A620EE07B681B6A5A1C7B681A6208E004
:105518007B681B6A591C7A6811621A787B681B6859
:105528005A607B68DB8C9BB2013B9BB27A68194658
:10553800D184002B0FD17B681B68DA687B681B68F5
:1055480022F08002DA607B681B68DA687B681B6877
:1055580042F04002DA60002300E0022318461437C4
:10556800BD465DF8047B704780B582B000AF7860B7
:105578007B681B68DA687B681B6822F04002DA6087
:105588007B68202283F83920786804F003FA002326
:1055980018460837BD4680BD80B584B000AF786036
:1055A8007B6893F83A30DBB2222B71D17B689B6819
:1055B800B3F5805F23D17B689B6AFB607B681B69BE
:1055C800002B0ED17B681B685B689BB2C3F3080392
:1055D8009AB2FB681A807B689B6A9A1C7B689A62FD
:1055E80029E07B681B685B689BB2DBB29AB2FB68F8
:1055F8001A807B689B6A5A1C7B689A621BE07B68EE
:105608001B69002B0AD17B681B6858687B689B6AFA
:10561800591C7A689162C2B21A700CE07B681B68E8
:105628005B68DAB27B689B6A581C7968886202F00A
:105638007F02D2B21A707B68DB8D9BB2013B9BB2B2
:105648007A681946D185002B20D17B681B68DA68F7
:105658007B681B6822F02002DA607B681B68DA68C6
:105668007B681B6822F48072DA607B681B685A6961
:105678007B681B6822F001025A617B68202283F84C
:105688003A20786804F0DCF9002302E0002300E007
:10569800022318461037BD4680BD00002DE9F04FA3
:1056A80085B000AF78607B681B681B6923F44051A4
:1056B8007B68DA687B681B680A431A617B689A68AA
:1056C8007B681B691A437B685B691A437B68DB69E3
:1056D8001343FB607B681B68DB6823F4164323F0E5
:1056E8000C037A681268F9680B43D3607B681B68FF
:1056F8005B6923F440717B689A697B681B680A437D
:105708005A617B68DB69B3F5004F40F08B817B6899
:105718001B68C14A934205D07B681B68BF4A934205
:1057280040F0BD80FEF72CF9B860BB681D464FF00D
:105738000006A846B14618EB080349EB0904984649
:10574800A14618EB050849EB06094FF000014FF098
:1057580000024FEAC90242EA58724FEAC801884675
:10576800914618EB050049EB06017B685B681D460E
:105778004FF000066B1946EB06041A462346FBF762
:10578800DDF903460C461A46A54BA3FB02235B0929
:105798004FEA0318BB681D464FF00006A946B246FB
:1057A80019EB09034AEB0A049946A24619EB0509C5
:1057B8004AEB060A4FF000014FF000024FEACA0216
:1057C80042EA59724FEAC9018946924619EB050027
:1057D8004AEB06017B685B681D464FF000066B19B3
:1057E80046EB06041A462346FBF7A8F903460C467F
:1057F8001A468B4BA3FB02135B09642101FB03F3DD
:10580800D31ADB003233864AA2FB03235B095B0011
:1058180003F4F8739844BB681D464FF00006A94688
:10582800B24619EB09034AEB0A049946A24619EB5A
:1058380005094AEB060A4FF000014FF000024FEA53
:10584800CA0242EA59724FEAC9018946924619EBDF
:1058580005004AEB06017B685B681D464FF00006B1
:105868006B1946EB06041A462346FBF767F903460D
:105878000C461A466A4BA3FB02135B09642101FB21
:1058880003F3D31ADB003233654AA2FB03235B0917
:1058980003F007027B681B6842449A606FE2FEF7D8
:1058A8005BF8B860BB681D464FF00006A846B146D5
:1058B80018EB080349EB09049846A14618EB0508BC
:1058C80049EB06094FF000014FF000024FEAC90208
:1058D80042EA58724FEAC8018846914618EB05001B
:1058E80049EB06017B685B681D464FF000066B19A3
:1058F80046EB06041A462346FBF720F903460C46F6
:105908001A46474BA3FB02235B094FEA0318BB68FF
:105918001D464FF00006A946B24619EB09034AEBAB
:105928000A049946A24619EB05094AEB060A4FF004
:1059380000014FF000024FEACA0242EA59724FEAE8
:10594800C9018946924619EB05004AEB06017B68B6
:105958005B681D464FF000066B1946EB06041A46B5
:105968002346FBF7EBF803460C461A462C4BA3FBE1
:1059780002135B09642101FB03F3D31ADB00323302
:10598800274AA2FB03235B095B0003F4F8739844DE
:10599800BB681D464FF00006A946B24619EB09033D
:1059A8004AEB0A049946A24619EB05094AEB060A8E
:1059B8004FF000014FF000024FEACA0242EA597262
:1059C8004FEAC9018946924619EB05004AEB0601E0
:1059D8007B685B681D464FF000066B1946EB0604B2
:1059E8001A462346FBF7AAF803460C461A460C4B00
:1059F800A3FB02135B09642101FB03F3D31ADB0049
:105A08003233074AA2FB03235B0903F007027B68D2
:105A18001B6842449A60B2E1001001400014014042
:105A28001F85EB517B681B68D74A934205D07B687A
:105A38001B68D64A934240F0D180FDF7A1FFB860B9
:105A4800BB689A464FF0000BD046D94618EB0803BE
:105A580049EB09049846A14618EB0A0849EB0B09DB
:105A68004FF000014FF000024FEAC90242EA5872B3
:105A78004FEAC801884691461AEB08054BEB090620
:105A88007B685B6819464FF000024FF000034FF047
:105A98000004940044EA91748B001A462346284671
:105AA8003146FBF74BF803460C461A46B84BA3FBA6
:105AB80002235B094FEA0318BB689B464FF0000CB2
:105AC800D946E24619EB09034AEB0A049946A2466D
