:020000040800F2
:1000000000000220891C0008891B0008971B0008BB
:100010009D1B0008A31B0008A91B0008000000008E
:10002000000000000000000000000000AF1B0008FE
:10003000BD1B000800000000CB1B0008D91B0008F6
:10004000D91C0008D91C0008D91C0008D91C0008BC
:10005000D91C0008D91C0008D91C0008D91C0008AC
:10006000D91C0008D91C0008D91C0008E51B000891
:10007000D91C0008D91C0008D91C0008F91B00086D
:10008000D91C0008D91C0008D91C00080D1C000848
:10009000211C0008D91C0008D91C0008D91C000824
:1000A000D91C0008D91C0008D91C0008D91C00085C
:1000B000D91C0008D91C0008D91C0008D91C00084C
:1000C000D91C0008D91C0008D91C0008D91C00083C
:1000D000D91C0008351C0008491C0008D91C000860
:1000E000D91C0008D91C0008D91C0008D91C00081C
:1000F000D91C0008D91C0008D91C0008D91C00080C
:10010000D91C0008D91C0008D91C0008D91C0008FB
:10011000D91C0008D91C0008D91C0008D91C0008EB
:10012000D91C0008D91C0008D91C0008D91C0008DB
:10013000D91C00080000000000000000D91C0008C5
:10014000D91C0008D91C0008D91C0008D91C0008BB
:10015000D91C0008D91C0008D91C0008D91C0008AB
:10016000D91C0008D91C0008D91C0008D91C00089B
:10017000D91C0008D91C0008D91C00080000000088
:1001800000000000D91C0008000000000000000072
:10019000D91C00080000000000000000D91C000865
:1001A000000000000000000000000000D91C000852
:1001B000D91C0008D91C0008D91C0008D91C00084B
:0401C000D91C00083E
:1001C80010B5054C237833B9044B13B10448AFF389
:1001D80000800123237010BD1800002000000000DB
:1001E80088D8000808B5034B1BB103490348AFF38F
:1001F800008008BD000000001C00002088D800080E
:1002080081F0004102E000BF83F0004330B54FEABF
:1002180041044FEA430594EA050F08BF90EA020F2C
:100228001FBF54EA000C55EA020C7FEA645C7FEABF
:10023800655C00F0E2804FEA5454D4EB5555B8BFE2
:100248006D420CDD2C4480EA020281EA030382EA53
:10025800000083EA010180EA020281EA0303362DE5
:1002680088BF30BD11F0004F4FEA01314FF4801CB8
:100278004CEA113102D0404261EB410113F0004FCA
:100288004FEA03334CEA133302D0524263EB430381
:1002980094EA050F00F0A780A4F10104D5F1200E1F
:1002A8000DDB02FA0EFC22FA05F2801841F100017A
:1002B80003FA0EF2801843FA05F359410EE0A5F14E
:1002C80020050EF1200E012A03FA0EFC28BF4CF07F
:1002D800020C43FA05F3C01851EBE37101F0004535
:1002E80007D54FF0000EDCF1000C7EEB00006EEB42
:1002F8000101B1F5801F1BD3B1F5001F0CD34908CC
:100308005FEA30004FEA3C0C04F101044FEA445222
:1003180012F5800F80F09A80BCF1004F08BF5FEAA9
:10032800500C50F1000041EB045141EA050130BD89
:100338005FEA4C0C404141EB0101013C28BFB1F59B
:10034800801FE9D291F0000F04BF01460020B1FAE6
:1003580081F308BF2033A3F10B03B3F120020CDAB9
:100368000C3208DD02F1140CC2F10C0201FA0CF097
:1003780021FA02F10CE002F11402D8BFC2F1200CFC
:1003880001FA02F120FA0CFCDCBF41EA0C019040B2
:10039800E41AA2BF01EB0451294330BD6FEA0404FB
:1003A8001F3C1CDA0C340EDC04F11404C4F12002E6
:1003B80020FA04F001FA02F340EA030021FA04F3F8
:1003C80045EA030130BDC4F10C04C4F1200220FA4F
:1003D80002F001FA04F340EA0300294630BD21FA8D
:1003E80004F0294630BD94F0000F83F4801306BF53
:1003F80081F480110134013D4EE77FEA645C18BF47
:100408007FEA655C29D094EA050F08BF90EA020FDD
:1004180005D054EA000C04BF1946104630BD91EAD5
:10042800030F1EBF0021002030BD5FEA545C05D1D8
:100438004000494128BF41F0004130BD14F5800417
:100448003CBF01F5801130BD01F0004545F0FE418B
:1004580041F470014FF0000030BD7FEA645C1ABFC0
:10046800194610467FEA655C1CBF0B46024650EAF7
:10047800013406BF52EA033591EA030F41F4002123
:1004880030BD00BF90F0000F04BF0021704730B5A9
:100498004FF4806404F132044FF000054FF000017E
:1004A80050E700BF90F0000F04BF0021704730B53F
:1004B8004FF4806404F1320410F0004548BF404214
:1004C8004FF000013EE700BF42004FEAE2014FEA69
:1004D80031014FEA02701FBF12F07F4393F07F4F44
:1004E80081F06051704732F07F4208BF704793F047
:1004F8007F4F04BF41F40021704730B54FF460745A
:1005080001F0004521F000411CE700BF50EA01025C
:1005180008BF704730B54FF000050AE050EA010205
:1005280008BF704730B511F0004502D5404261EB75
:1005380041014FF4806404F132045FEA915C3FF4B6
:10054800D8AE4FF003025FEADC0C18BF03325FEA53
:10055800DC0C18BF033202EBDC02C2F1200300FA04
:1005680003FC20FA02F001FA03FE40EA0E0021FA29
:1005780002F11444BDE600BF70B54FF0FF0C4CF417
:10058800E06C1CEA11541DBF1CEA135594EA0C0FC9
:1005980095EA0C0F00F0DEF82C4481EA030621EA04
:1005A8004C5123EA4C5350EA013518BF52EA03353F
:1005B80041F4801143F4801338D0A0FB02CE4FF0F1
:1005C8000005E1FB02E506F00042E0FB03E54FF021
:1005D8000006E1FB03569CF0000F18BF4EF0010E19
:1005E800A4F1FF04B6F5007F64F5407404D25FEA15
:1005F8004E0E6D4146EB060642EAC62141EA5551C8
:100608004FEAC52040EA5E504FEACE2EB4F1FD0C09
:1006180088BFBCF5E06F1ED8BEF1004F08BF5FEA87
:10062800500E50F1000041EB045170BD06F0004639
:1006380046EA010140EA020081EA0301B4EB5C04E6
:10064800C2BFD4EB0C0541EA045170BD41F48011DE
:100658004FF0000E013C00F3AB8014F1360FDEBF03
:10066800002001F0004170BDC4F10004203C35DADF
:100678000C341BDC04F11404C4F1200500FA05F362
:1006880020FA04F001FA05F240EA020001F0004203
:1006980021F0004110EBD37021FA04F642EB060179
:1006A8005EEA430E08BF20EAD37070BDC4F10C04A3
:1006B800C4F1200500FA04F320FA05F001FA04F267
:1006C80040EA020001F0004110EBD37041F1000153
:1006D8005EEA430E08BF20EAD37070BDC4F120055E
:1006E80000FA05F24EEA020E20FA04F301FA05F2C6
:1006F80043EA020321FA04F001F0004121FA04F26E
:1007080020EA020000EBD3705EEA430E08BF20EA3D
:10071800D37070BD94F0000F0FD101F00046400077
:1007280041EB010111F4801F08BF013CF7D041EAF9
:10073800060195F0000F18BF704703F000465200FD
:1007480043EB030313F4801F08BF013DF7D043EACE
:100758000603704794EA0C0F0CEA135518BF95EA84
:100768000C0F0CD050EA410618BF52EA4306D1D10B
:1007780081EA030101F000414FF0000070BD50EA2A
:10078800410606BF1046194652EA430619D094EAB4
:100798000C0F02D150EA013613D195EA0C0F05D19E
:1007A80052EA03361CBF104619460AD181EA0301F2
:1007B80001F0004141F0FE4141F470014FF00000AA
:1007C80070BD41F0FE4141F4780170BD70B54FF045
:1007D800FF0C4CF4E06C1CEA11541DBF1CEA1355C5
:1007E80094EA0C0F95EA0C0F00F0A7F8A4EB0504A7
:1007F80081EA030E52EA03354FEA013100F088809E
:100808004FEA03334FF0805545EA131343EA126366
:100818004FEA022245EA111545EA10654FEA00261B
:100828000EF000419D4208BF964244F1FD0404F5D4
:10083800407402D25B084FEA3202B61A65EB030530
:100848005B084FEA32024FF480104FF4002CB6EBED
:10085800020E75EB030E22BFB61A754640EA0C006D
:100868005B084FEA3202B6EB020E75EB030E22BFAD
:10087800B61A754640EA5C005B084FEA3202B6EBEE
:10088800020E75EB030E22BFB61A754640EA9C00AD
:100898005B084FEA3202B6EB020E75EB030E22BF7D
:1008A800B61A754640EADC0055EA060E18D04FEA3B
:1008B800051545EA16754FEA06164FEAC30343EADB
:1008C80052734FEAC2025FEA1C1CC0D111F4801FA8
:1008D8000BD141EA00014FF000004FF0004CB6E7A1
:1008E80011F4801F04BF01430020B4F1FD0C88BF40
:1008F800BCF5E06F3FF6AFAEB5EB030C04BFB6EB4B
:10090800020C5FEA500C50F1000041EB045170BD3D
:100918000EF0004E4EEA113114EB5C04C2BFD4EB6A
:100928000C0541EA045170BD41F480114FF0000EEE
:10093800013C90E645EA060E8DE60CEA135594EA6A
:100948000C0F08BF95EA0C0F3FF43BAF94EA0C0F6D
:100958000AD150EA01347FF434AF95EA0C0F7FF4E2
:1009680025AF104619462CE795EA0C0F06D152EA36
:1009780003353FF4FDAE1046194622E750EA41061A
:1009880018BF52EA43067FF4C5AE50EA41047FF42B
:100998000DAF52EA43057FF4EBAE12E74FF0FF3C90
:1009A80006E000BF4FF0010C02E000BF4FF0010C61
:1009B8004DF804CD4FEA410C7FEA6C5C4FEA430CDA
:1009C80018BF7FEA6C5C1BD001B050EA410C0CBF29
:1009D80052EA430C91EA030F02BF90EA020F00208B
:1009E800704710F1000F91EA030F58BF994208BFF2
:1009F80090422CBFD8176FEAE37040F001007047AF
:100A08004FEA410C7FEA6C5C02D150EA013C07D105
:100A18004FEA430C7FEA6C5CD6D152EA033CD3D050
:100A28005DF8040B704700BF8446104662468C464A
:100A38001946634600E000BF01B5FFF7B7FF00287D
:100A480048BF10F1000F01BD4DF808EDFFF7F4FFA6
:100A58000CBF012000205DF808FB00BF4DF808ED31
:100A6800FFF7EAFF34BF012000205DF808FB00BF54
:100A78004DF808EDFFF7E0FF94BF012000205DF876
:100A880008FB00BF4DF808EDFFF7CEFF94BF01202B
:100A980000205DF808FB00BF4DF808EDFFF7C4FF24
:100AA80034BF012000205DF808FB00BF4FEA410277
:100AB80012F5001215D211D56FF47873B3EB6252A8
:100AC80012D94FEAC12343F0004343EA505311F0CF
:100AD800004F23FA02F018BF404270474FF0000061
:100AE800704750EA013005D111F0004008BF6FF09F
:100AF800004070474FF00000704700BF4A0011D215
:100B080012F5001211D20DD56FF47873B3EB62525F
:100B18000ED44FEAC12343F0004343EA505323FA6B
:100B280002F070474FF00000704750EA013002D1E0
:100B38004FF0FF3070474FF00000704753B94AB983
:100B4800002908BF00281CBF4FF0FF314FF0FF30CD
:100B580000F070B9ADF1080C6DE904CE00F006F8AC
:100B6800DDF804E0DDE9022304B070472DE9F04721
:100B7800089E0D4604460F46002B4AD18A429446E9
:100B880065D9B2FA82F343B102FA03FCC3F1200239
:100B98009F4020FA02F217439C404FEA1C4E1FFA6E
:100BA8008CF5B7FBFEF1220C0EFB117742EA0742E7
:100BB80001FB05F090420AD91CEB020201F1FF3754
:100BC80080F01C81904240F2198102396244121A65
:100BD800A4B2B2FBFEF00EFB102244EA024400FB72
:100BE80005F5A5420AD91CEB040400F1FF3280F098
:100BF8000781A54240F204816444023840EA01407A
:100C0800641B00211EB1DC400023C6E90043BDE897
:100C1800F0878B4208D9002E00F0ED800021C6E94C
:100C280000050846BDE8F087B3FA83F1002949D1E9
:100C3800AB4202D3824200F2F880841A65EB0302C9
:100C480001201746002EE2D0C6E90047DFE702B9C7
:100C5800FFDEB2FA82F3002B40F090808A1A4FEA46
:100C68001C471FFA8CFE0121B2FBF7F507FB152084
:100C7800220C42EA00420EFB05F0904208D91CEB18
:100C8800020205F1FF3802D2904200F2CB804546BD
:100C9800121AA4B2B2FBF7F007FB102244EA02448E
:100CA8000EFB00FEA64508D91CEB040400F1FF3238
:100CB80002D2A64500F2BB801046A4EB0E0440EA1F
:100CC80005409FE7C1F120078B4022FA07FC4CEA58
:100CD800030C05FA01F420FA07F3FD404FEA1C491A
:100CE8002343B5FBF9F81FFA8CFE09FB18551C0CB9
:100CF80044EA054408FB0EF5A54202FA01F200FA9F
:100D080001F00BD91CEB040408F1FF3A80F088804D
:100D1800A54240F28580A8F102086444641B9DB294
:100D2800B4FBF9F309FB134445EA044403FB0EFE44
:100D3800A64508D91CEB040403F1FF356CD2A6457F
:100D48006AD9023B644443EA0843A3FB0295A4EB37
:100D58000E04AC42C846AE4656D353D056B1B0EB9B
:100D6800080264EB0E0404FA07F7CA40CC401743A4
:100D7800C6E9007418460021BDE8F087C3F12001D8
:100D880002FA03FC20FA01F225FA01F19D402A43F8
:100D98004FEA1C471FFA8CFEB1FBF7F007FB101552
:100DA800110C41EA054100FB0EF58D4204FA03F4EB
:100DB80008D91CEB010100F1FF382FD28D422DD943
:100DC80002386144491B92B2B1FBF7F507FB1511D4
:100DD80042EA014205FB0EF1914208D91CEB0202DE
:100DE80005F1FF3816D2914214D9023D6244521AD5
:100DF80045EA004138E73146304608E73946E6E635
:100E08001046FBE64845A9D2B9EB020865EB0C0E83
:100E1800013BA3E74546EAE72B4694E74046D1E77E
:100E2800D0467BE7023D624432E708460AE764445D
:100E3800023842E7704700BF80B400AF054B5B69DA
:100E4800044A83F40043536100BFBD465DF8047B48
:100E5800704700BF0004024080B500AF034805F0AA
:100E6800A7FD034805F0A4FD00BF80BDB024002005
:100E7800A824002080B500AF4FF4FA72054906484F
:100E880009F0CFFB64220549054809F0CAFB00BFF9
:100E980080BD00BF34000020410E0008380000204B
:100EA800610E000880B500AF00F080F800F01AF875
:100EB80000F0DAF800F0AEF800F086F800F03EF83E
:100EC80000F054F805F0BEFC03461A46034B1A70AE
:100ED800034805F0BFFD00BF80BD00BF90020020A1
:100EE8007D0E000880B500AF04220121002005F026
:100EF80067FC01224FF480710E4805F0FFFB0122C8
:100F08004FF400710C4805F0F9FB01224FF4807191
:100F1800094805F0F3FB01228021074805F0EEFBA4
:100F280001224021044805F0E9FB05F0A3FC00BFBD
:100F380080BD00BF000002400008024080B500AF3D
:100F48000749084809F0B2FB064809F0C1FB054803
:100F580006F052FC044805F07DFD00BF80BD00BFCF
:100F68004C020020E82C0020F177000880B500AF83
:100F78000A490B4809F09AFB4FF40042094908480E
:100F880009F0BCFB064809F0A3FB054809F0D8F8AE
:100F9800054805F05FFD00BF80BD00BF08020020C6
:100FA800BC2400200000024029A4000880B500AF3E
:100FB80001220349034805F069FD00BF80BD00BF59
:100FC8008C3B00205435002080B582B002AF0A4B1C
:100FD800019300230093094B00220949094807F0AF
:100FE8002BF9094A0949074807F07AF9084805F032
:100FF80031FD00BFBD4680BD70000020B800002054
:10100800000100208C3B00202435002014350020EE
:101018000D83000880B584B004AF01230293002338
:101028000193202300930C4B002200210B4809F068
:10103800FDF9012302930123019310230093064B2A
:1010480001220021064809F0F1F9064805F002FDE1
:1010580000BFBD4680BD00BF000802401435002017
:1010680024350020D9A4000880B500AF044805F055
:1010780055FC0349034805F089FC00BF80BD00BF4B
:101088003C0000209402002080B582B000AF00230D
:10109800FB7000F01FFE00F05FF800F099FA00F016
:1010A8006FFA00F0CDF800F067F900F0BDF900F034
:1010B8003DFA00F015F900F00FFA00F0F7F82348B0
:1010C80002F02DFC01224FF4804121480AF010FC67
:1010D80001224FF400511E480AF018FFFFF7E2FE04
:1010E80005F0B0FB0346012118460AF0D3FB194866
:1010F8000AF09AFB05F002FF05F0E8F9786809F0B4
:1011080070FA0346B3F5FA7F16D3FB78002B04D1A7
:1011180006F026F90123FB700BE0FB78012B04D1C4
:1011280006F0F8F90223FB7003E006F0A3F90023A8
:10113800FB7009F06FFA786005F06CFC0AF02AFE83
:101148000BF0D4F8014802F0EAFBD7E7640000206E
:10115800000402403C00002080B594B000AF07F1C5
:101168001C033422002118460CF0D0FA07F10803BA
:1011780000221A605A609A60DA601A6100237B6064
:101188002D4B1B6C2C4A43F0805313642A4B1B6C69
:1011980003F080537B607B6800233B60274B1B6810
:1011A800264A43F440431360244B1B6803F440432E
:1011B8003B603B680923FB614FF480333B620123AA
:1011C8003B6302237B634FF48003BB630423FB630D
:1011D800B4233B6402237B640223BB640223FB64C5
:1011E80007F11C03184602F045FF0346002B01D007
:1011F80000F08EFA02F0A4FB0346002B01D000F0A9
:1012080087FA0F23BB600223FB6000233B614FF486
:10121800A0537B614FF48053BB6107F1080305219C
:10122800184602F0DDFB0346002B01D000F070FAEF
:1012380000BF5037BD4680BD0038024000700040F6
:1012480080B500AF174B184A1A60164B05225A6032
:10125800144B00229A60134B0022DA60114B4FF4B2
:1012680080221A610F4B4FF400125A610D4B002275
:101278001A760C4B01225A760A4B00229A76094BB1
:101288000022DA76074B00221A77064B00225A779B
:10129800044800F091FD0346002B01D000F038FA15
:1012A80000BF80BD3C0000200064004080B500AF56
:1012B800094B0A4A1A60084B00225A60064B40F64E
:1012C800FF729A60044802F0E8FA0346002B01D046
:1012D80000F01EFA00BF80BD64000020003000400E
:1012E80080B586B000AF07F1080300221A605A6083
:1012F8009A60DA603B4600221A605A601D4B4FF034
:1013080080421A601B4B00225A601A4B00229A60D6
:10131800184B0022DA60174B00221A61154B002285
:101328009A61144803F044F90346002B01D000F0F9
:10133800EFF94FF48053BB6007F1080319460D48D5
:1013480003F01CFD0346002B01D000F0E1F9002357
:101358003B6000237B603B461946064804F0C8F909
:101368000346002B01D000F0D3F900BF1837BD4663
:1013780080BD00BF7000002080B58AB000AF07F1C3
:10138800200300221A605A603B1D00221A605A602E
:101398009A60DA601A615A619A61214B214A1A608F
:1013A8001F4B00225A601E4B00229A601C4BB3222E
:1013B800DA601B4B00221A61194B00229A61184807
:1013C80003F045F90346002B01D000F0A1F90023F2
:1013D8003B6200237B6207F120031946104804F0A2
:1013E80087F90346002B01D000F092F970237B6047
:1013F8000023BB600023FB6000237B613B1D0022B0
:101408001946074803F0FCFB0346002B01D000F007
:101418007FF9034800F0C8FA00BF2837BD4680BDF1
:10142800B80000200004004080B58AB000AF07F182
:10143800200300221A605A603B1D00221A605A607D
:101448009A60DA601A615A619A61214B214A1A60DE
:101458001F4B00225A601E4B00229A601C4BB3227D
:10146800DA601B4B00221A61194B00229A61184856
:1014780003F0EDF80346002B01D000F049F90023F2
:101488003B6200237B6207F120031946104804F0F1
:101498002FF90346002B01D000F03AF970237B6046
:1014A8000023BB600023FB6000237B613B1D0022FF
:1014B8001946074803F0A4FB0346002B01D000F0AF
:1014C80027F9034800F070FA00BF2837BD4680BDF1
:1014D800000100200008004080B500AF114B124AFF
:1014E8001A60104B4FF4E1325A600E4B00229A609A
:1014F8000C4B0022DA600B4B00221A61094B0C22BC
:101508005A61084B00229A61064B0022DA610548AD
:1015180004F06AF90346002B01D000F0F9F800BF87
:1015280080BD00BF080200200010014080B500AF58
:10153800114B124A1A60104B4FF416525A600E4B58
:1015480000229A600C4B0022DA600B4B00221A61D1
:10155800094B0C225A61084B00229A61064B002263
:10156800DA61054804F040F90346002B01D000F089
:10157800CFF800BF80BD00BF4C02002000440040EF
:1015880080B582B000AF00237B60104B1B6B0F4A05
:1015980043F4001313630D4B1B6B03F400137B60C0
:1015A8007B68002200210B2001F079FB0B2001F061
:1015B80092FB002200210F2001F071FB0F2001F0A7
:1015C8008AFB00BF0837BD4680BD00BF0038024017
:1015D80080B58AB000AF07F1140300221A605A6080
:1015E8009A60DA601A6100233B61454B1B6B444AE1
:1015F80043F080031363424B1B6B03F080033B6192
:101608003B690023FB603E4B1B6B3D4A43F00103E3
:1016180013633B4B1B6B03F00103FB60FB68002368
:10162800BB60374B1B6B364A43F004031363344BE0
:101638001B6B03F00403BB60BB6800237B60304B6B
:101648001B6B2F4A43F0020313632D4B1B6B03F0F4
:1016580002037B607B6801224FF46041294802F055
:1016680003F900224FF40041274802F0FDF84FF437
:101678007C737B610023BB610023FB6107F11403CA
:101688001946224801F044FF03237B610023BB6114
:101698000023FB6107F1140319461A4801F038FFCB
:1016A8004FF460437B610123BB610023FB6100238E
:1016B8003B6207F114031946124801F029FF4FF461
:1016C80080737B610023BB610023FB6107F1140376
:1016D80019460D4801F01CFF4FF400437B610123BC
:1016E800BB610023FB6103233B6207F11403194626
:1016F800054801F00DFF00BF2837BD4680BD00BF7B
:101708000038024000040240000002400008024085
:1017180080B400AF00BFBD465DF8047B7047000091
:1017280080B483B000AF00237B60104B5B6C0F4A22
:1017380043F4804353640D4B5B6C03F480437B603C
:101748007B6800233B60094B1B6C084A43F08053BD
:101758001364064B1B6C03F080533B603B6800BF6F
:101768000C37BD465DF8047B704700BF0038024067
:1017780080B58AB000AF786007F1140300221A60C0
:101788005A609A60DA601A617B681B68214A934242
:101798003CD100233B61204B1B6C1F4A43F0007374
:1017A80013641D4B1B6C03F000733B613B69002302
:1017B800FB60194B1B6B184A43F001031363164B6C
:1017C8001B6B03F00103FB60FB684FF4C0537B61A4
:1017D8000223BB610023FB6103233B6209237B6275
:1017E80007F1140319460D4801F092FE0022032167
:1017F800132001F054FA132001F06DFA002202219F
:10180800142001F04CFA142001F065FA00BF2837C3
:10181800BD4680BD00640040003802400000024020
:1018280080B485B000AF78607B681B68B3F1804FE7
:101838000DD10023FB60094B1B6C084A43F00103E0
:101848001364064B1B6C03F00103FB60FB6800BFCD
:101858001437BD465DF8047B704700BF003802406E
:1018680080B584B000AF78607B681B68474A9342B4
:1018780044D10023FB60464B1B6C454A43F00203EE
:101888001364434B1B6C03F00203FB60FB68414B82
:10189800414A1A603F4B4FF020625A603D4B40224C
:1018A8009A603C4B0022DA603A4B4FF480621A612E
:1018B800384B4FF400625A61364B4FF400529A612C
:1018C800344B0022DA61334B00221A62314B00227A
:1018D8005A62304801F01AFA0346002B01D0FFF78C
:1018E80017FF7B682B4A5A622A4A7B6893637B6896
:1018F800284A9A63274A7B68936342E07B681B689F
:10190800264A93423DD10023BB60214B1B6C204AE1
:1019180043F0040313641E4B1B6C03F00403BB6009
:10192800BB681F4B1F4A1A601D4B4FF080625A60FC
:101938001B4B40229A601A4B0022DA60184B4FF476
:1019480080621A61164B4FF400625A61144B4FF4CF
:1019580000529A61124B0022DA61114B00221A627E
:101968000F4B00225A620E4801F0D0F90346002BB3
:1019780001D0FFF7CDFE7B68094A5A62084A7B68A6
:10198800936300BF1037BD4680BD00BF0004004010
:101998000038024048010020706002400008004002
:1019A800A80100201060024080B58AB000AF7860BE
:1019B80007F1140300221A605A609A60DA601A610B
:1019C8007B681B68244A93421ED100233B61234B4A
:1019D8001B6B224A43F002031363204B1B6B03F07B
:1019E80002033B613B6910237B610223BB61022335
:1019F800FB6100233B6202237B6207F11403194653
:101A0800174801F085FD22E07B681B68154A934260
:101A18001DD10023FB60114B1B6B104A43F00203DE
:101A280013630E4B1B6B03F00203FB60FB68402340
:101A38007B610223BB610223FB6100233B6202231B
:101A48007B6207F114031946054801F061FD00BFE8
:101A58002837BD4680BD00BF000400400038024062
:101A6800000402400008004080B58CB000AF7860E8
:101A780007F11C0300221A605A609A60DA601A6142
:101A88007B681B683A4A934235D10023BB61394BC6
:101A98005B6C384A43F010035364364B5B6C03F0BD
:101AA8001003BB61BB6900237B61324B1B6B314A5E
:101AB80043F0010313632F4B1B6B03F001037B619E
:101AC8007B694FF4C063FB6102233B6200237B62A6
:101AD8000323BB620723FB6207F11C031946264850
:101AE80001F016FD00220021252001F0D8F825205C
:101AF80001F0F1F838E07B681B68204A934233D143
:101B080000233B611B4B1B6C1A4A43F400331364DC
:101B1800184B1B6C03F400333B613B690023FB60EB
:101B2800144B1B6B134A43F001031363114B1B6BDC
:101B380003F00103FB60FB680C23FB6102233B629B
:101B480000237B620323BB620723FB6207F11C03AC
:101B58001946094801F0DCFC00220421262001F086
:101B68009EF8262001F0B7F800BF3037BD4680BD8B
:101B780000100140003802400000024000440040CC
:101B880080B400AF00BFBD465DF8047B704780B4E9
:101B980000AFFEE780B400AFFEE780B400AFFEE719
:101BA80080B400AFFEE780B400AF00BFBD465DF86B
:101BB800047B704780B400AF00BFBD465DF8047B6E
:101BC800704780B400AF00BFBD465DF8047B704726
:101BD80080B500AF00F0D0F800BF80BD80B500AF81
:101BE800024801F02BFA00BF80BD00BFA801002009
:101BF80080B500AF024801F021FA00BF80BD00BFE8
:101C08004801002080B500AF024800F03DFD00BF4C
:101C180080BD00BF3C00002080B500AF024800F046
:101C280033FD00BF80BD00BF3C00002080B500AF81
:101C3800024803F09BFE00BF80BD00BF08020020E1
:101C480080B500AF024803F091FE00BF80BD00BF21
:101C58004C02002080B400AF084BD3F88830074A04
:101C680043F47003C2F88830044B4FF000629A6066
:101C780000BFBD465DF8047B704700BF00ED00E083
:101C8800DFF834D0002103E00C4B5B58435004319B
:101C98000B480C4B42189A42F6D30B4A02E0002339
:101CA80042F8043B094B9A42F9D3FFF7D3FF0BF0F4
:101CB80035FDFFF7E9F9704700000220D0DA000887
:101CC800000000201800002018000020EC1001205F
:101CD800FEE7000080B500AF0E4B1B680D4A43F4C9
:101CE800007313600B4B1B680A4A43F4806313604C
:101CF800084B1B68074A43F480731360032000F005
:101D0800C3FF002000F008F8FFF70AFD002318467B
:101D180080BD00BF003C024080B582B000AF786053
:101D2800124B1A68124B1B7819464FF47A73B3FB9F
:101D3800F1F3B2FBF3F3184600F0DBFF0346002B88
:101D480001D001230EE07B680F2B0AD800227968A6
:101D58004FF0FF3000F0A3FF064A7B6813600023B2
:101D680000E0012318460837BD4680BD000000206A
:101D7800080000200400002080B400AF064B1B7848
:101D88001A46064B1B681344044A136000BFBD463D
:101D98005DF8047B704700BF08000020C4350020B0
:101DA80080B400AF034B1B681846BD465DF8047B42
:101DB800704700BFC435002080B584B000AF78609C
:101DC8007B68002B01D10123EDE07B6893F820307C
:101DD800DBB2002B02D17868FFF7CAFC7B681B686E
:101DE8001A687B681B6822F002021A60FFF7D8FFA6
:101DF800F86012E0FFF7D4FF0246FB68D31A0A2BFB
:101E08000BD97B685B6A43F400327B685A627B6853
:101E1800052283F820200123C5E07B681B685B68E6
:101E280003F00203002BE5D17B681B681A687B6806
:101E38001B6842F001021A60FFF7B2FFF86012E077
:101E4800FFF7AEFF0246FB68D31A0A2B0BD97B6853
:101E58005B6A43F400327B685A627B68052283F828
:101E6800202001239FE07B681B685B6803F0010367
:101E7800002BE5D07B681B7E012B08D17B681B6893
:101E88001A687B681B6842F080021A6007E07B686A
:101E98001B681A687B681B6822F080021A607B68DE
:101EA8005B7E012B08D17B681B681A687B681B68FE
:101EB80042F040021A6007E07B681B681A687B687A
:101EC8001B6822F040021A607B689B7E012B08D1B8
:101ED8007B681B681A687B681B6842F020021A60DE
:101EE80007E07B681B681A687B681B6822F0200281
:101EF8001A607B68DB7E012B08D17B681B681A6837
:101F08007B681B6822F010021A6007E07B681B6878
:101F18001A687B681B6842F010021A607B681B7F96
:101F2800012B08D17B681B681A687B681B6842F024
:101F380008021A6007E07B681B681A687B681B68E0
:101F480022F008021A607B685B7F012B08D17B684E
:101F58001B681A687B681B6842F004021A6007E075
:101F68007B681B681A687B681B6822F004021A6089
:101F78007B689A687B68DB681A437B681B691A432D
:101F88007B685B6942EA03017B685B685A1E7B6871
:101F98001B680A43DA617B6800225A627B68012267
:101FA80083F82020002318461037BD4680BD000066
:101FB80080B487B000AF786039607B681B687B614C
:101FC8007B6893F82030FB74FB7C012B03D0FB7CEF
:101FD800022B40F0BE80654B7B617B69D3F80032F1
:101FE80043F001027B69C3F800227B69D3F8003211
:101FF80023F47C527B69C3F800227B69D3F8002262
:102008003B685B6A1B021A437B69C3F800223B6882
:102018005B6903F01F03012202FA03F3FB607B698B
:10202800D3F81C22FB68DB431A407B69C3F81C22E7
:102038003B68DB69002B23D17B69D3F80C22FB6852
:10204800DB431A407B69C3F80C223B68DB68190440
:102058003B685B689BB23A68526919437B694832AE
:1020680043F832103B689B6819043B681B689AB2B6
:102078003B685B690A4379694833DB000B445A6063
:102088003B68DB69012B22D17B69D3F80C22FB6802
:102098001A437B69C3F80C223B681B6819043B6828
:1020A8005B689BB23A68526919437B69483243F8C6
:1020B80032103B689B6819043B68DB689AB23B683E
:1020C8005B690A4379694833DB000B445A603B6813
:1020D8009B69002B09D17B69D3F80422FB68DB4399
:1020E8001A407B69C3F8042207E07B69D3F804220D
:1020F800FB681A437B69C3F804223B681B69002B01
:1021080009D17B69D3F81422FB68DB431A407B6949
:10211800C3F8142207E07B69D3F81422FB681A433A
:102128007B69C3F814223B681B6A012B07D17B69C2
:10213800D3F81C22FB681A437B69C3F81C227B690D
:10214800D3F8003223F001027B69C3F80022002390
:1021580006E07B685B6A43F480227B685A6201234D
:1021680018461C37BD465DF8047B70470064004084
:1021780080B584B000AF78607B6893F82030DBB21C
:10218800012B2ED17B68022283F820207B681B68F4
:102198001A687B681B6822F001021A60FFF700FECC
:1021A800F86012E0FFF7FCFD0246FB68D31A0A2B21
:1021B8000BD97B685B6A43F400327B685A627B68A0
:1021C800052283F82020012312E07B681B685B68E6
:1021D80003F00103002BE5D17B6800225A6200233B
:1021E80006E07B685B6A43F400227B685A6201233D
:1021F80018461037BD4680BD80B489B000AFF8607E
:10220800B9607A603B60FB6893F82030FB77FB6825
:102218001B689B68BB61FB7F012B03D0FB7F022BF4
:1022280040F0B880BB6903F08063002B0AD1BB691A
:1022380003F00063002B05D1BB6903F08053002B2A
:1022480000F0A080BB691B0E03F003037B617B6970
:10225800022B07D9FB685B6A43F40002FB685A62E9
:1022680001239EE001227B699A403B681A60BB68A3
:102278009B68002B0DD1BB681B685A05BB68DB68DF
:10228800F96809681A437B6918331B010B441A6003
:102298000FE0BB685B68DA00BB689B681A43BB68E1
:1022A800DB68F96809681A437B6918331B010B441A
:1022B8001A60FB681968BB681A697B6918331B01C7
:1022C8000B4404331A60BB681B7D012B11D1FB68DA
:1022D8001A687B6918331B01134404331B68FA68B6
:1022E800116843F480727B6918331B010B44043373
:1022F8001A607B6807331B781A067B6806331B78DD
:102308001B041A437B6805331B781B0213437A6846
:10231800043212781046FA68116843EA00027B69B1
:102328001B010B4403F5C6731A607B6803331B78E3
:102338001A067B6802331B781B041A437B68013337
:102348001B781B0213437A6812781046FA681168E2
:1023580043EA00027B691B010B4403F5C4731A604E
:10236800FB681A687B6918331B0113441B68FA68F9
:10237800116843F001027B6918331B010B441A6092
:1023880000230EE0FB685B6A43F40012FB685A62A4
:10239800012306E0FB685B6A43F48022FB685A620B
:1023A800012318462437BD465DF8047B704780B486
:1023B80085B000AF78600023FB607B6893F820301D
:1023C800FB72FB7A012B02D0FB7A022B1DD17B68B2
:1023D8001B689B6803F08063002B02D0FB68013305
:1023E800FB607B681B689B6803F00063002B02D0CE
:1023F800FB680133FB607B681B689B6803F08053B4
:10240800002B02D0FB680133FB60FB6818461437C9
:10241800BD465DF8047B704780B487B000AFF860B4
:10242800B9607A603B60FB6893F82030FB75FB7DF0
:10243800012B03D0FB7D022B40F0F380BB68002BFF
:102448000ED1FB681B68DB6803F00303002B16D171
:10245800FB685B6A43F40012FB685A620123E7E0F9
:10246800FB681B681B6903F00303002B07D1FB689B
:102478005B6A43F40012FB685A620123D8E0FB68E8
:102488001A68BB681B331B0113441B6803F0040262
:102498007B689A607B689B68002B0CD1FB681A6884
:1024A800BB681B331B0113441B685B0DC3F30A0293
:1024B8007B681A600BE0FB681A68BB681B331B015A
:1024C80013441B68DB0823F060427B685A60FB6892
:1024D8001A68BB681B331B0113441B6803F0020214
:1024E8007B68DA60FB681A68BB681B331B011344FE
:1024F80004331B6803F00F027B681A61FB681A68D3
:10250800BB681B331B01134404331B681B0ADAB274
:102518007B689A61FB681A68BB681B331B0113440C
:1025280004331B681B0C9AB27B685A61FB681A68F3
:10253800BB681B01134403F5DC731B68DAB23B6804
:102548001A70FB681A68BB681B01134403F5DC7337
:102558001B681A0A3B680133D2B21A70FB681A6802
:10256800BB681B01134403F5DC731B681A0C3B683A
:102578000233D2B21A70FB681A68BB681B01134495
:1025880003F5DC731B681A0E3B680333D2B21A706A
:10259800FB681A68BB681B01134403F5DE731A68ED
:1025A8003B680433D2B21A70FB681A68BB681B0117
:1025B800134403F5DE731B681A0A3B680533D2B26D
:1025C8001A70FB681A68BB681B01134403F5DE73B5
:1025D8001B681A0C3B680633D2B21A70FB681A687B
:1025E800BB681B01134403F5DE731B681A0E3B68B6
:1025F8000733D2B21A70BB68002B08D1FB681B687E
:10260800DA68FB681B6842F02002DA6007E0FB68C2
:102618001B681A69FB681B6842F020021A610023D4
:1026280006E0FB685B6A43F48022FB685A62012378
:1026380018461C37BD465DF8047B704780B485B0EA
:1026480000AF786039607B6893F82030FB73FB7BC0
:10265800012B02D0FB7B022B09D17B681B685969CF
:102668007B681B683A680A435A61002306E07B6866
:102678005B6A43F480227B685A6201231846143748
:10268800BD465DF8047B704780B58AB000AF7860BE
:1026980000237B627B681B685B693B627B681B6805
:1026A8005B68FB617B681B689B68BB617B681B6818
:1026B800DB687B617B681B681B693B617B681B6807
:1026C8009B69FB603B6A03F00103002B7CD0BB696C
:1026D80003F00103002B23D07B681B6801229A605A
:1026E800BB6903F00203002B03D0786800F083F97C
:1026F80016E0BB6903F00403002B04D07B6A43F4A3
:1027080000637B620CE0BB6903F00803002B04D074
:102718007B6A43F480537B6202E0786800F089F9B1
:10272800BB6903F48073002B24D07B681B684FF4CB
:1027380080729A60BB6903F40073002B03D0786839
:1027480000F063F916E0BB6903F48063002B04D042
:102758007B6A43F400537B620CE0BB6903F40063BB
:10276800002B04D07B6A43F480437B6202E07868E4
:1027780000F069F9BB6903F48033002B24D07B682F
:102788001B684FF480329A60BB6903F40033002B56
:1027980003D0786800F043F916E0BB6903F480239E
:1027A800002B04D07B6A43F400437B620CE0BB69D6
:1027B80003F40023002B04D07B6A43F480337B624C
:1027C80002E0786800F049F93B6A03F00803002B3F
:1027D8000CD07B6903F01003002B07D07B6A43F40D
:1027E80000737B627B681B681022DA603B6A03F027
:1027F8000403002B0BD07B6903F00803002B06D0E1
:102808007B681B680822DA60786800F030F93B6A58
:1028180003F00203002B09D07B681B68DB6803F018
:102828000303002B02D0786809F028FA3B6A03F00A
:102838004003002B0CD03B6903F01003002B07D09A
:102848007B6A43F480637B627B681B6810221A6191
:102858003B6A03F02003002B0BD03B6903F008030D
:10286800002B06D07B681B6808221A61786800F084
:1028780012F93B6A03F01003002B09D07B681B6830
:102888001B6903F00303002B02D0786800F0F9F805
:102898003B6A03F40033002B0BD0FB6903F01003F1
:1028A800002B06D07B681B6810225A60786800F0FD
:1028B800FCF83B6A03F48033002B0BD0FB6903F070
:1028C8000803002B06D07B681B6808225A607868CA
:1028D80000F0F5F83B6A03F40043002B7BD0FB695A
:1028E80003F00403002B72D03B6A03F48073002BBF
:1028F80008D0FB6803F00103002B03D07B6A43F088
:1029080001037B623B6A03F40073002B08D0FB6869
:1029180003F00203002B03D07B6A43F002037B62BF
:102928003B6A03F48063002B08D0FB6803F00403C0
:10293800002B03D07B6A43F004037B623B6A03F4F9
:102948000063002B43D0FB6803F07003002B3ED0DC
:10295800FB6803F07003602B2BD0602B2ED8502B14
:1029680022D0502B2AD8402B19D0402B26D8302BD8
:1029780010D0302B22D8102B02D0202B05D01DE0F0
:102988007B6A43F008037B6219E07B6A43F010031B
:102998007B6214E07B6A43F020037B620FE07B6A72
:1029A80043F040037B620AE07B6A43F080037B626A
:1029B80005E07B6A43F480737B6200E000BF7B68BC
:1029C8001B689A697B681B6822F070029A617B68B1
:1029D8001B6804225A607B6A002B08D07B685A6AFD
:1029E8007B6A1A437B685A62786800F072F800BF05
:1029F8002837BD4680BD80B483B000AF786000BF83
:102A08000C37BD465DF8047B704780B483B000AFD7
:102A1800786000BF0C37BD465DF8047B704780B412
:102A280083B000AF786000BF0C37BD465DF8047B0B
:102A3800704780B483B000AF786000BF0C37BD46E4
:102A48005DF8047B704780B483B000AF786000BF46
:102A58000C37BD465DF8047B704780B483B000AF87
:102A6800786000BF0C37BD465DF8047B704780B4C2
:102A780083B000AF786000BF0C37BD465DF8047BBB
:102A8800704780B483B000AF786000BF0C37BD4694
:102A98005DF8047B704780B483B000AF786000BFF6
:102AA8000C37BD465DF8047B704780B483B000AF37
:102AB800786000BF0C37BD465DF8047B704780B472
:102AC80083B000AF786000BF0C37BD465DF8047B6B
:102AD800704780B483B000AF786000BF0C37BD4644
:102AE8005DF8047B7047000080B485B000AF786063
:102AF8007B6803F00703FB600C4BDB68BB60BA68BC
:102B08004FF6FF031340BB60FB681A02BB68134310
:102B180043F0BF6343F40033BB60044ABB68D3602F
:102B280000BF1437BD465DF8047B704700ED00E038
:102B380080B400AF044BDB681B0A03F00703184698
:102B4800BD465DF8047B704700ED00E080B483B0BB
:102B580000AF0346FB7197F90730002B0BDBFB79BD
:102B680003F01F02074997F907305B09012000FAB3
:102B780002F241F8232000BF0C37BD465DF8047B04
:102B8800704700BF00E100E080B483B000AF0346A7
:102B98003960FB7197F90730002B0ADB3B68DAB222
:102BA8000C4997F907301201D2B20B4483F800237D
:102BB8000AE03B68DAB20849FB7903F00F03043BEB
:102BC8001201D2B20B441A7600BF0C37BD465DF82D
:102BD800047B704700E100E000ED00E080B489B0BC
:102BE80000AFF860B9607A60FB6803F00703FB6127
:102BF800FB69C3F10703042B28BF0423BB61FB69EE
:102C08000433062B02D9FB69033B00E000237B61F8
:102C18004FF0FF32BB6902FA03F3DA43BB681A408C
:102C28007B699A404FF0FF317B6901FA03F3D9437E
:102C38007B680B40134318462437BD465DF8047B78
:102C48007047000080B582B000AF78607B68013BB8
:102C5800B3F1807F01D301230FE00A4A7B68013B6F
:102C680053600F214FF0FF30FFF78EFF054B002216
:102C78009A60044B07221A60002318460837BD469D
:102C880080BD00BF10E000E080B582B000AF786082
:102C98007868FFF729FF00BF0837BD4680BD80B5BB
:102CA80086B000AF0346B9607A60FB7300237B618E
:102CB800FFF73EFF78617A68B9687869FFF78EFF99
:102CC800024697F90F3011461846FFF75DFF00BF1F
:102CD8001837BD4680BD80B582B000AF0346FB7192
:102CE80097F907301846FFF731FF00BF0837BD4690
:102CF80080BD80B582B000AF78607868FFF7A2FF2A
:102D0800034618460837BD4680BD000080B586B02A
:102D180000AF786000237B61FFF742F838617B6879
:102D2800002B01D1012399E07B68002283F834202D
:102D38007B68022283F835207B681B681A687B68E9
:102D48001B6822F001021A600FE0FFF729F802461B
:102D58003B69D31A052B08D97B6820225A657B6802
:102D6800032283F83520032378E07B681B681B68FF
:102D780003F00103002BE8D17B681B681B687B61AB
:102D88007A69384B13407B617B685A687B689B681B
:102D98001A437B68DB681A437B681B691A437B68A4
:102DA8005B691A437B689B691A437B68DB691A4332
:102DB8007B681B6A13437A6913437B617B685B6A90
:102DC800042B07D17B68DA6A7B681B6B13437A692B
:102DD80013437B617B681B687A691A607B681B6890
:102DE8005B697B617B6923F007037B617B685B6AB6
:102DF8007A6913437B617B685B6A042B17D17B6814
:102E08009B6A7A6913437B617B68DB6A002B0ED06F
:102E1800786800F001FB0346002B08D07B6840224D
:102E28005A657B68012283F83520012316E07B6808
:102E38001B687A695A61786800F0B8FA0346FB6043
:102E48007B68DB6D3F229A40FB689A607B680022B2
:102E58005A657B68012283F8352000231846183705
:102E6800BD4680BD3F8010F080B586B000AFF860E9
:102E7800B9607A603B600023FB75FB689B6D3B6122
:102E8800FB6893F83430012B01D1022340E0FB6842
:102E9800012283F83420FB6893F83530DBB2012B2C
:102EA8002FD1FB68022283F83520FB6800225A657F
:102EB8003B687A68B968F86800F04AFAFB68DB6D25
:102EC8003F229A403B699A60FB681B681A68FB6856
:102ED8001B6842F016021A60FB681B6C002B07D0B7
:102EE800FB681B681A68FB681B6842F008021A60D6
:102EF800FB681B681A68FB681B6842F001021A60CD
:102F080005E0FB68002283F834200223FB75FB7D73
:102F180018461837BD4680BD80B584B000AF7860CC
:102F28007B689B6DFB60FEF73BFFB8607B6893F89E
:102F38003530DBB2022B08D07B6880225A657B686B
:102F4800002283F83420012352E07B681B681A684A
:102F58007B681B6822F016021A607B681B685A6936
:102F68007B681B6822F080025A617B681B6C002B0F
:102F780003D17B689B6C002B07D07B681B681A68A1
:102F88007B681B6822F008021A607B681B681A6855
:102F98007B681B6822F001021A6013E0FEF700FF4D
:102FA8000246BB68D31A052B0CD97B6820225A65C8
:102FB8007B68002283F834207B68032283F835205D
:102FC800032315E07B681B681B6803F00103002BD3
:102FD800E4D17B68DB6D3F229A40FB689A607B688E
:102FE800002283F834207B68012283F835200023EF
:102FF80018461037BD4680BD80B483B000AF7860F6
:103008007B6893F83530DBB2022B04D07B688022D2
:103018005A6501230CE07B68052283F835207B681C
:103028001B681A687B681B6822F001021A6000237B
:1030380018460C37BD465DF8047B704780B586B0EE
:1030480000AF78600023BB608E4B1B688E4AA2FBE2
:1030580003239B0A7B617B689B6D3B613B691B6813
:10306800FB607B68DB6D08229A40FB681340002BED
:103078001AD07B681B681B6803F00403002B13D06D
:103088007B681B681A687B681B6822F004021A6058
:103098007B68DB6D08229A403B699A607B685B6DB0
:1030A80043F001027B685A657B68DB6D01229A4018
:1030B800FB681340002B12D07B681B685B6903F028
:1030C8008003002B0BD07B68DB6D01229A403B69A3
:1030D8009A607B685B6D43F002027B685A657B6887
:1030E800DB6D04229A40FB681340002B12D07B68EA
:1030F8001B681B6803F00203002B0BD07B68DB6D99
:1031080004229A403B699A607B685B6D43F0040235
:103118007B685A657B68DB6D10229A40FB68134018
:10312800002B43D07B681B681B6803F00803002B47
:103138003CD07B68DB6D10229A403B699A607B68C3
:103148001B681B6803F48023002B18D07B681B685E
:103158001B6803F40023002B08D17B681B6C002B31
:1031680024D07B681B6C786898471FE07B689B6C51
:10317800002B1BD07B689B6C7868984716E07B68AF
:103188001B681B6803F48073002B07D17B681B68DE
:103198001A687B681B6822F008021A607B681B6C3F
:1031A800002B03D07B681B6C786898477B68DB6DC5
:1031B80020229A40FB681340002B00F08F807B6828
:1031C8001B681B6803F01003002B00F087807B68E6
:1031D800DB6D20229A403B699A607B6893F8353012
:1031E800DBB2052B36D17B681B681A687B681B68C5
:1031F80022F016021A607B681B685A697B681B6894
:1032080022F080025A617B681B6C002B03D17B681B
:103218009B6C002B07D07B681B681A687B681B684F
:1032280022F008021A607B68DB6D3F229A403B69F6
:103238009A607B68002283F834207B68012283F837
:1032480035207B681B6D002B7ED07B681B6D7868F2
:10325800984779E07B681B681B6803F48023002B80
:103268001DD07B681B681B6803F40023002B0DD15D
:103278007B685B6C002B31D07B685B6C7868984707
:103288002CE000BF00000020B5814E1B7B68DB6B83
:10329800002B23D07B68DB6B786898471EE07B683F
:1032A8001B681B6803F48073002B0FD17B681B68B5
:1032B8001A687B681B6822F010021A607B6800227B
:1032C80083F834207B68012283F835207B68DB6B28
:1032D800002B03D07B68DB6B786898477B685B6D55
:1032E800002B32D07B685B6D03F00103002B22D0EA
:1032F8007B68052283F835207B681B681A687B6821
:103308001B6822F001021A60BB680133BB607A694E
:103318009A4207D37B681B681B6803F00103002BE4
:10332800F2D100E000BF7B68002283F834207B687C
:10333800012283F835207B68DB6C002B05D07B6885
:10334800DB6C7868984700E000BF1837BD4680BD41
:1033580080B485B000AFF860B9607A603B60FB6804
:103368001B681A68FB681B6822F480221A60FB68D5
:103378001B683A685A60FB689B68402B08D1FB6859
:103388001B687A689A60FB681B68BA68DA6007E0AD
:10339800FB681B68BA689A60FB681B687A68DA6021
:1033A80000BF1437BD465DF8047B704780B485B014
:1033B80000AF78607B681B68DBB2103B144AA2FB45
:1033C80003231B09FB60134AFB6813441B781A4646
:1033D8007B68DA65FB68032B09D97B681B6823F4D3
:1033E8007F7323F003031A1D7B689A6507E07B68E7
:1033F8001B6823F47F7323F003037A6893657B6863
:103408009B6D18461437BD465DF8047B704700BFB6
:10341800ABAAAAAAB8D8000880B485B000AF786073
:103428000023FB737B689B6ABB607B689B69002BEE
:103438001FD1BB68032B56D801A252F823F000BF56
:10344800593400086B34000859340008EF34000878
:103458007B68DB6A03F08073002B46D00123FB7383
:1034680043E07B68DB6AB3F1C07F40D10123FB7383
:103478003DE07B689B69B3F5005F21D1BB68032BF6
:1034880037D801A252F823F0A1340008A734000865
:10349800A1340008B93400080123FB7330E07B68CD
:1034A800DB6A03F08073002B25D00123FB7322E035
:1034B8007B68DB6AB3F1C07F1FD10123FB731CE07B
:1034C800BB68022B03D9BB68032B03D018E0012388
:1034D800FB7315E07B68DB6A03F08073002B0ED06A
:1034E8000123FB730BE000BF0AE000BF08E000BF48
:1034F80006E000BF04E000BF02E000BF00E000BF3C
:10350800FB7B18461437BD465DF8047B704700BF47
:1035180080B489B000AF7860396000237B610023F4
:103528003B610023BB610023FB6165E10122FB696C
:1035380002FA03F37B613B681B687A6913403B61BD
:103548003A697B699A4240F054813B685B6803F0B2
:103558000303012B05D03B685B6803F00303022BD0
:1035680030D17B689B68BB61FB695B00032202FA70
:1035780003F3DB43BA691340BB613B68DA68FB6954
:103588005B0002FA03F3BA691343BB617B68BA694B
:103598009A607B685B68BB610122FB6902FA03F3EE
:1035A800DB43BA691340BB613B685B681B0903F0E6
:1035B8000102FB6902FA03F3BA691343BB617B6832
:1035C800BA695A603B685B6803F00303032B17D0A2
:1035D8007B68DB68BB61FB695B00032202FA03F3CB
:1035E800DB43BA691340BB613B689A68FB695B00BF
:1035F80002FA03F3BA691343BB617B68BA69DA60FC
:103608003B685B6803F00303022B23D1FB69DA08EC
:103618007B68083253F82230BB61FB6903F007036B
:103628009B000F2202FA03F3DB43BA691340BB6124
:103638003B681A69FB6903F007039B0002FA03F36E
:10364800BA691343BB61FB69DA087B680832B96958
:1036580043F822107B681B68BB61FB695B0003228F
:1036680002FA03F3DB43BA691340BB613B685B684A
:1036780003F00302FB695B0002FA03F3BA69134320
:10368800BB617B68BA691A603B685B6803F080536A
:10369800002B00F0AE800023FB605D4B5B6C5C4A46
:1036A80043F4804353645A4B5B6C03F48043FB60E0
:1036B800FB68584AFB699B08023352F82330BB6108
:1036C800FB6903F003039B000F2202FA03F3DB43B9
:1036D800BA691340BB617B684F4A934225D07B6827
:1036E8004E4A93421FD07B684D4A934219D07B685B
:1036F8004C4A934213D07B684B4A93420DD07B6867
:103708004A4A934207D07B68494A934201D106232B
:103718000CE007230AE0052308E0042306E003235E
:1037280004E0022302E0012300E00023FA6902F02A
:10373800030292009340BA691343BB613549FB69A0
:103748009B080233BA6941F823203A4B1B68BB61D6
:103758003B69DB43BA691340BB613B685B6803F4B0
:103768008033002B03D0BA693B691343BB61314AEC
:10377800BB6913602F4B5B68BB613B69DB43BA696C
:103788001340BB613B685B6803F40033002B03D034
:10379800BA693B691343BB61264ABB695360254B31
:1037A8009B68BB613B69DB43BA691340BB613B68FB
:1037B8005B6803F48013002B03D0BA693B69134399
:1037C800BB611C4ABB6993601A4BDB68BB613B69F0
:1037D800DB43BA691340BB613B685B6803F40013C1
:1037E800002B03D0BA693B691343BB61114ABB691B
:1037F800D360FB690133FB61FB690F2B7FF696AE43
:1038080000BF00BF2437BD465DF8047B704700BF8A
:103818000038024000380140000002400004024025
:1038280000080240000C0240001002400014024050
:1038380000180240003C014080B485B000AF7860B9
:103848000B467B807B681A697B881340002B02D06B
:103858000123FB7301E00023FB73FB7B184614373D
:10386800BD465DF8047B704780B483B000AF7860D4
:103878000B467B8013467B707B78002B03D07A88BD
:103888007B689A6103E07B881A047B689A6100BFB1
:103898000C37BD465DF8047B704780B584B000AF37
:1038A80078607B68002B01D1012334E07B681B68BA
:1038B8004CF6CC421A607B681B6845F255521A6078
:1038C8007B681B687A6852685A607B681B687A68EC
:1038D80092689A60FEF764FAF8600FE0FEF760FA03
:1038E8000246FB68D31A302B08D97B681B68DB6853
:1038F80003F00303002B01D003230CE07B681B6853
:10390800DB6803F00303002BE8D17B681B684AF6E9
:10391800AA221A60002318461037BD4680BD80B41D
:1039280083B000AF78607B681B684AF6AA221A60E9
:10393800002318460C37BD465DF8047B704700002D
:1039480080B582B000AF00237B6000233B60204B32
:103958001B6C1F4A43F0805313641D4B1B6C03F010
:1039680080533B603B681B4B01221A60FEF718FA34
:10397800786009E0FEF714FA02467B68D31AB3F5BB
:103988007A7F01D903231FE0134B5B6803F480336C
:10399800B3F5803FEED1114B01221A60FEF700FA11
:1039A800786009E0FEF7FCF902467B68D31AB3F5A4
:1039B8007A7F01D9032307E0074B5B6803F40033E0
:1039C800B3F5003FEED1002318460837BD4680BD49
:1039D8000038024040000E420070004044000E4291
:1039E80080B584B000AF786039607B68002B01D166
:1039F8000123CCE0684B1B6803F00F033A689A4236
:103A08000CD9654B3A68D2B21A70634B1B6803F045
:103A18000F033A689A4201D00123B8E07B681B681B
:103A280003F00203002B20D07B681B6803F004031B
:103A3800002B05D0594B9B68584A43F4E0539360D8
:103A48007B681B6803F00803002B05D0534B9B6869
:103A5800524A43F460439360504B9B6823F0F00252
:103A68007B689B684D4913438B607B681B6803F038
:103A78000103002B44D07B685B68012B07D1474BBF
:103A88001B6803F40033002B19D101237FE07B6806
:103A98005B68022B03D07B685B68032B07D13F4B25
:103AA8001B6803F00073002B09D101236FE03B4B27
:103AB8001B6803F00203002B01D1012367E0374B99
:103AC8009B6823F003027B685B68344913438B606F
:103AD800FEF766F9F8600AE0FEF762F90246FB684D
:103AE800D31A41F28832934201D903234FE02B4B7A
:103AF8009B6803F00C027B685B689B009A42EBD1E1
:103B0800254B1B6803F00F033A689A420CD2224BEC
:103B18003A68D2B21A70204B1B6803F00F033A6858
:103B28009A4201D0012332E07B681B6803F004034A
:103B3800002B08D0194B9B6823F4E0527B68DB68A4
:103B4800164913438B607B681B6803F00803002B3E
:103B580009D0124B9B6823F460427B681B69DB0029
:103B68000E4913438B6000F055F802460B4B9B68D7
:103B78001B0903F00F030A49CB5C22FA03F3094A35
:103B88001360094B1B681846FEF7C6F80023184651
:103B98001037BD4680BD00BF003C024000380240DF
:103BA800A0D80008000000200400002080B400AF66
:103BB800034B1B681846BD465DF8047B704700BF81
:103BC8000000002080B500AFFFF7F0FF0246054B6C
:103BD8009B689B0A03F007030349CB5C22FA03F3B3
:103BE800184680BD00380240B0D8000880B500AF44
:103BF800FFF7DCFF0246054B9B685B0B03F00703EE
:103C08000349CB5C22FA03F3184680BD0038024012
:103C1800B0D800082DE9B04FAEB000AF0023C7F808
:103C2800AC300023C7F8B4300023C7F8A83000230D
:103C3800C7F8A4300023C7F8B030CB4B9B6803F01B
:103C48000C030C2B00F2068201A252F823F000BFED
:103C58008D3C00085D4000085D4000085D4000089C
:103C6800953C00085D4000085D4000085D40000884
:103C78009D3C00085D4000085D4000085D4000086C
:103C88008D3E0008B94BC7F8B030E7E1B84BC7F82C
:103C9800B030E3E1B44B5B6803F03F03C7F8AC30E6
:103CA800B14B5B6803F48003002B71D0AE4B5B68AB
:103CB8009B090022C7F89830C7F89C20D7F898309D
:103CC800C3F30803C7F890300023C7F89430D7E946
:103CD800244522462B464FF000004FF000015901C1
:103CE80041EAD261500102460B462146511A396415
:103CF800294663EB01037B644FF000024FF0000399
:103D0800D7E9108949468B01414643EA9163414608
:103D18008A014146511AB963494663EB0103FB63C3
:103D28004FF000024FF00003D7E90E894946CB0057
:103D3800414643EA51734146CA00104619460346B4
:103D480022469B183B632B460A4642EB03037B63E0
:103D58004FF000024FF00003D7E90C4529464B020B
:103D6800214643EAD15321464A0210461946D7F85C
:103D7800AC300022C7F88830C7F88C20D7E9222356
:103D8800FCF7DCFE02460B461346C7F8B43067E082
:103D9800754B5B689B090022C7F88030C7F8842000
:103DA800D7F88030C3F30803BB670023FB67D7E964
:103DB8001E4522462B464FF000004FF000015901E6
:103DC80041EAD261500102460B462146511AB962B6
:103DD800294663EB0103FB624FF000024FF000033A
:103DE800D7E90A8949468B01414643EA916341462E
:103DF8008A014146B2EB010A494663EB010B4FF0D9
:103E080000024FF000034FEACB0343EA5A734FEA2C
:103E1800CA0292469B4623461AEB03033B622B4693
:103E28004BEB03037B624FF000024FF00003D7E92E
:103E3800084529468B02214643EA915321468A02C6
:103E480010461946D7F8AC3000223B677A67D7E9A5
:103E58001C23FCF773FE02460B461346C7F8B43022
:103E6800414B5B681B0C03F0030301335B00C7F88D
:103E7800A830D7F8B420D7F8A830B2FBF3F3C7F8C6
:103E8800B030EBE0384B5B6803F03F03C7F8AC3069
:103E9800354B5B6803F48003002B6BD0324B5B68B7
:103EA8009B090022BB66FA66BB6EC3F308033B6638
:103EB80000237B66D7E9184522462B464FF00000C1
:103EC8004FF00001590141EAD261500102460B4608
:103ED8002146511AB961294663EB0103FB614FF092
:103EE80000024FF00003D7E906AB59468B01514653
:103EF80043EA916351468A015146B2EB010859469B
:103F080063EB01094FF000024FF000034FEAC903C9
:103F180043EA58734FEAC80290469946234618EB7D
:103F280003033B612B4649EB03037B614FF000021F
:103F38004FF00003D7E9044529464B02214643EADE
:103F4800D15321464A0210461946D7F8AC30002210
:103F5800BB65FA65D7E91623FCF7F0FD02460B4668
:103F68001346C7F8B43065E0003802400024F40076
:103F780000127A003D4B5B689B09002218461146E7
:103F8800C0F308033B6500237B65D7E914894246E3
:103F98004B464FF000004FF00001590141EAD26151
:103FA800500102460B464146511AB960494663EB37
:103FB8000103FB604FF000024FF00003D7E902ABAA
:103FC80059468B01514643EA916351468A0151464D
:103FD800541A594663EB01054FF000024FF00003F5
:103FE800EB0043EA5473E20014461D464346E318C7
:103FF8003B604B4645EB03037B604FF000024FF0FC
:104008000003D7E9004529468B02214643EA91532C
:1040180021468A0210461946D7F8AC300022BB6404
:10402800FA64D7E91223FCF789FD02460B461346CA
:10403800C7F8B4300D4B5B681B0F03F00703C7F8D4
:10404800A430D7F8B420D7F8A430B2FBF3F3C7F8FC
:10405800B03003E0064BC7F8B03000BFD7F8B03037
:104068001846B837BD46BDE8B08F00BF00380240DB
:104078000024F40080B586B000AF78607B68002B20
:1040880001D101238DE27B681B6803F00103002B3B
:1040980000F08380944B9B6803F00C03042B19D029
:1040A800914B9B6803F00C03082B06D18E4B5B6881
:1040B80003F48003B3F5800F0CD08B4B9B6803F09F
:1040C8000C030C2B12D1884B5B6803F48003B3F507
:1040D800800F0BD1844B1B6803F40033002B5BD09B
:1040E8007B685B68002B57D101235AE27B685B68C9
:1040F800B3F5803F06D17C4B1B687B4A43F4803381
:1041080013601DE07B685B68B3F5A02F0CD1764B7C
:104118001B68754A43F480231360734B1B68724A0B
:1041280043F4803313600BE06F4B1B686E4A23F433
:10413800803313606C4B1B686B4A23F48023136035
:104148007B685B68002B13D0FDF72AFE386108E016
:10415800FDF726FE02463B69D31A642B01D90323D7
:104168001FE2614B1B6803F40033002BF0D014E00E
:10417800FDF716FE386108E0FDF712FE02463B69BE
:10418800D31A642B01D903230BE2574B1B6803F4A2
:104198000033002BF0D100E000BF7B681B6803F000
:1041A8000203002B6FD0504B9B6803F00C03002BCD
:1041B80017D04D4B9B6803F00C03082B05D14A4BD5
:1041C8005B6803F48003002B0BD0474B9B6803F01C
:1041D8000C030C2B1CD1444B5B6803F48003002BAD
:1041E80016D1414B1B6803F00203002B05D07B68F6
:1041F800DB68012B01D00123D3E13B4B1B6823F083
:10420800F8027B681B69DB00374913430B603AE00F
:104218007B68DB68002B20D0344B01221A60FDF745
:10422800BFFD386108E0FDF7BBFD02463B69D31AC4
:10423800022B01D90323B4E12B4B1B6803F00203C3
:10424800002BF0D0284B1B6823F0F8027B681B6911
:10425800DB00254913430B6015E0244B00221A604C
:10426800FDF79EFD386108E0FDF79AFD02463B69BF
:10427800D31A022B01D9032393E11B4B1B6803F0CC
:104288000203002BF0D17B681B6803F00803002BA6
:1042980036D07B685B69002B16D0154B01221A605B
:1042A800FDF77EFD386108E0FDF77AFD02463B69BF
:1042B800D31A022B01D9032373E10B4B5B6F03F075
:1042C8000203002BF0D01BE0094B00221A60FDF717
:1042D80067FD38610EE0FDF763FD02463B69D31ABE
:1042E800022B07D903235CE1003802400000474253
:1042F800800E47428A4B5B6F03F00203002BEAD122
:104308007B681B6803F00403002B00F097800023F0
:10431800FB75834B1B6C03F08053002B0FD10023DC
:10432800BB607F4B1B6C7E4A43F0805313647C4B0D
:104338001B6C03F08053BB60BB680123FB75794B92
:104348001B6803F48073002B18D1764B1B68754AE1
:1043580043F480731360FDF723FD386108E0FDF72F
:104368001FFD02463B69D31A022B01D9032318E12A
:104378006C4B1B6803F48073002BF0D07B689B6840
:10438800012B06D1664B1B6F654A43F00103136787
:104398001CE07B689B68052B0CD1614B1B6F604A46
:1043A80043F0040313675E4B1B6F5D4A43F0010340
:1043B80013670BE05A4B1B6F594A23F0010313672D
:1043C800574B1B6F564A23F0040313677B689B689F
:1043D800002B15D0FDF7E4FC38610AE0FDF7E0FC9E
:1043E80002463B69D31A41F28832934201D903232A
:1043F800D7E04B4B1B6F03F00203002BEED014E009
:10440800FDF7CEFC38610AE0FDF7CAFC02463B69BD
:10441800D31A41F28832934201D90323C1E0404BB9
:104428001B6F03F00203002BEED1FB7D012B05D19E
:104438003B4B1B6C3A4A23F0805313647B689B699F
:10444800002B00F0AD80364B9B6803F00C03082B63
:1044580060D07B689B69022B45D1334B00221A60E0
:10446800FDF79EFC386108E0FDF79AFC02463B69BF
:10447800D31A022B01D9032393E0294B1B6803F0BD
:104488000073002BF0D17B68DA697B681B6A1A43DA
:104498007B685B6A9B011A437B689B6A5B08013BEC
:1044A8001B041A437B68DB6A1B061A437B681B6B79
:1044B8001B071B4913434B601B4B01221A60FDF776
:1044C8006FFC386108E0FDF76BFC02463B69D31AC4
:1044D800022B01D9032364E0114B1B6803F000731E
:1044E800002BF0D05CE0104B00221A60FDF758FC5E
:1044F800386108E0FDF754FC02463B69D31A022BE9
:1045080001D903234DE0064B1B6803F00073002B11
:10451800F0D145E07B689B69012B07D1012340E07E
:104528000038024000700040600047421F4B5B6843
:10453800FB607B689B69012B30D0FB6803F4800229
:104548007B68DB699A4229D1FB6803F03F027B68EC
:104558001B6A9A4222D1FA6847F6C07313407A68F8
:10456800526A9201934219D1FB6803F440327B6886
:104578009B6A5B08013B1B049A420FD1FB6803F05E
:1045880070627B68DB6A1B069A4207D1FB6803F0FE
:10459800E0427B681B6B1B079A4201D0012300E0B5
:1045A800002318461837BD4680BD00BF00380240BA
:1045B80080B582B000AF78607B68002B01D1012301
:1045C80041E07B6893F83D30DBB2002B06D17B6875
:1045D800002283F83C207868FDF722F97B680222E4
:1045E80083F83D207B681A687B68043319461046B7
:1045F80000F06EFD7B68012283F846207B6801226B
:1046080083F83E207B68012283F83F207B680122E3
:1046180083F840207B68012283F841207B680122CF
:1046280083F842207B68012283F843207B680122BB
:1046380083F844207B68012283F845207B680122A7
:1046480083F83D20002318460837BD4680BD80B555
:1046580082B000AF78607B68002B01D1012341E074
:104668007B6893F83D30DBB2002B06D17B680022D3
:1046780083F83C207868FDF7F3F87B68022283F81A
:104688003D207B681A687B6804331946104600F0A1
:104698001FFD7B68012283F846207B68012283F88E
:1046A8003E207B68012283F83F207B68012283F843
:1046B80040207B68012283F841207B68012283F82F
:1046C80042207B68012283F843207B68012283F81B
:1046D80044207B68012283F845207B68012283F807
:1046E8003D20002318460837BD4680BD80B586B0FA
:1046F80000AFF860B9607A607B80BB68002B09D195
:10470800FB6893F83E30DBB2022B0CBF0123002379
:10471800DBB222E0BB68042B09D1FB6893F83F3079
:10472800DBB2022B0CBF01230023DBB215E0BB6810
:10473800082B09D1FB6893F84030DBB2022B0CBF81
:1047480001230023DBB208E0FB6893F84130DBB2B9
:10475800022B0CBF01230023DBB2002B01D0022364
:104768006CE1BB68002B09D1FB6893F83E30DBB2E3
:10477800012B0CBF01230023DBB222E0BB68042B12
:1047880009D1FB6893F83F30DBB2012B0CBF012342
:104798000023DBB215E0BB68082B09D1FB6893F84E
:1047A8004030DBB2012B0CBF01230023DBB208E051
:1047B800FB6893F84130DBB2012B0CBF01230023C7
:1047C800DBB2002B24D07B68002B04D17B88002B24
:1047D80001D0012332E1BB68002B04D1FB6802221F
:1047E80083F83E2016E0BB68042B04D1FB68022244
:1047F80083F83F200EE0BB68082B04D1FB68022237
:1048080083F8402006E0FB68022283F8412001E09B
:10481800012313E1BB680C2B00F2AE8001A252F811
:1048280023F000BF61480008814900088149000859
:1048380081490008A9480008814900088149000801
:1048480081490008F14800088149000881490008A9
:104858008149000839490008FB685B6A794ADA63CC
:10486800FB685B6A784A1A64FB685B6A774ADA64B1
:10487800FB68586A7968FB681B6834331A467B887A
:10488800FEF7F2FA0346002B01D00123D6E0FB68BD
:104898001B68DA68FB681B6842F40072DA606CE037
:1048A800FB689B6A674ADA63FB689B6A664A1A6414
:1048B800FB689B6A654ADA64FB68986A7968FB68F2
:1048C8001B6838331A467B88FEF7CEFA0346002B5E
:1048D80001D00123B2E0FB681B68DA68FB681B683B
:1048E80042F48062DA6048E0FB68DB6A554ADA63C2
:1048F800FB68DB6A544A1A64FB68DB6A534ADA6469
:10490800FB68D86A7968FB681B683C331A467B8861
:10491800FEF7AAFA0346002B01D001238EE0FB68BC
:104928001B68DA68FB681B6842F40062DA6024E0FE
:10493800FB681B6B434ADA63FB681B6B424A1A64C9
:10494800FB681B6B414ADA64FB68186B7968FB6883
:104958001B6840331A467B88FEF786FA0346002B0D
:1049680001D001236AE0FB681B68DA68FB681B68F2
:1049780042F48052DA6000E000BFFB681B68012245
:10498800B968184600F08EFEFB681B68304A9342EF
:1049980004D0FB681B682F4A934201D1012300E031
:1049A8000023002B07D0FB681B685A6CFB681B6848
:1049B80042F400425A64FB681B68254A934222D09D
:1049C800FB681B68B3F1804F1DD0FB681B68224A47
:1049D800934218D0FB681B68204A934213D0FB68A7
:1049E8001B681F4A93420ED0FB681B68194A934202
:1049F80009D0FB681B681B4A934204D0FB681B68FC
:104A0800194A934211D1FB681B689B6803F007039E
:104A18007B617B69062B10D0FB681B681A68FB68F2
:104A28001B6842F001021A6007E0FB681B681A68FD
:104A3800FB681B6842F001021A6000231846183709
:104A4800BD4680BDC74F00086F500008354F0008AD
:104A5800000001400004014000040040000800403C
:104A6800000C0040004001400018004080B582B0B2
:104A780000AF786039603B680C2B55D801A252F81A
:104A880023F000BFC14A0008314B0008314B000831
:104A9800314B0008DD4A0008314B0008314B000853
:104AA800314B0008F94A0008314B0008314B000827
:104AB800314B0008154B00087B681B68DA687B6877
:104AC8001B6822F40072DA607B685B6A1846FEF79E
:104AD80093FA2AE07B681B68DA687B681B6822F413
:104AE8008062DA607B689B6A1846FEF785FA1CE0EC
:104AF8007B681B68DA687B681B6822F40062DA60EE
:104B08007B68DB6A1846FEF777FA0EE07B681B685D
:104B1800DA687B681B6822F48052DA607B681B6B5A
:104B28001846FEF769FA00E000BF7B681B680022A0
:104B38003968184600F0B6FD7B681B682E4A934218
:104B480004D07B681B682D4A934201D1012300E001
:104B58000023002B17D07B681B681A6A41F21113D7
:104B68001340002B0FD17B681B681A6A40F244433C
:104B78001340002B07D17B681B685A6C7B681B6845
:104B880022F400425A647B681B681A6A41F21113C6
:104B98001340002B0FD17B681B681A6A40F244430C
:104BA8001340002B07D17B681B681A687B681B6859
:104BB80022F001021A603B68002B04D17B680122B5
:104BC80083F83E2013E03B68042B04D17B68012264
:104BD80083F83F200BE03B68082B04D17B68012257
:104BE80083F8402003E07B68012283F841200023FA
:104BF80018460837BD4680BD00000140000401404A
:104C080080B584B000AFF860B9607A60FB6893F84B
:104C18003C30012B01D10223ACE0FB68012283F870
:104C28003C207B680C2B00F29F8001A252F823F0F5
:104C38006D4C0008714D0008714D0008714D000859
:104C4800AD4C0008714D0008714D0008714D000809
:104C5800EF4C0008714D0008714D0008714D0008B7
:104C68002F4D0008FB681B68B968184600F0D0FA99
:104C7800FB681B689A69FB681B6842F008029A6126
:104C8800FB681B689A69FB681B6822F004029A613A
:104C9800FB681B689969BB681A69FB681B680A434B
:104CA8009A6162E0FB681B68B968184600F020FB4F
:104CB800FB681B689A69FB681B6842F400629A618A
:104CC800FB681B689A69FB681B6822F480629A611A
:104CD800FB681B689969BB681B691A02FB681B683B
:104CE8000A439A6141E0FB681B68B968184600F0FE
:104CF80075FBFB681B68DA69FB681B6842F00802F1
:104D0800DA61FB681B68DA69FB681B6822F0040239
:104D1800DA61FB681B68D969BB681A69FB681B689C
:104D28000A43DA6121E0FB681B68B968184600F09D
:104D3800C9FBFB681B68DA69FB681B6842F4006200
:104D4800DA61FB681B68DA69FB681B6822F4806219
:104D5800DA61FB681B68D969BB681B691A02FB68C2
:104D68001B680A43DA6100E000BFFB68002283F891
:104D78003C20002318461037BD4680BD80B584B05E
:104D880000AF786039607B6893F83C30012B01D123
:104D98000223B3E07B68012283F83C207B6802226F
:104DA80083F83D207B681B689B68FB60FB6823F0E9
:104DB8007703FB60FB6823F47F43FB607B681B6819
:104DC800FA689A603B681B68B3F5005F3ED0B3F59C
:104DD800005F00F28780B3F5805F00F08580B3F54F
:104DE800805F7FD8702B1AD0702B7BD8602B50D067
:104DF800602B77D8502B3CD0502B73D8402B58D0F1
:104E0800402B6FD8302B64D0302B6BD8202B60D040
:104E1800202B67D8002B5CD0102B5AD062E07B681F
:104E280018683B6899683B685A683B68DB6800F01B
:104E380019FC7B681B689B68FB60FB6843F0770381
:104E4800FB607B681B68FA689A604EE07B681868AC
:104E58003B6899683B685A683B68DB6800F002FC6D
:104E68007B681B689A687B681B6842F480429A607A
:104E78003BE07B6818683B6859683B68DB681A4602
:104E880000F076FB7B681B685021184600F0CFFBCA
:104E98002BE07B6818683B6859683B68DB681A46F2
:104EA80000F095FB7B681B686021184600F0BFFB8B
:104EB8001BE07B6818683B6859683B68DB681A46E2
:104EC80000F056FB7B681B684021184600F0AFFBDA
:104ED8000BE07B681A683B681B681946104600F0AF
:104EE800A6FB02E000BF00E000BF7B68012283F858
:104EF8003D207B68002283F83C20002318461037A9
:104F0800BD4680BD80B483B000AF786000BF0C3769
:104F1800BD465DF8047B704780B483B000AF78600D
:104F280000BF0C37BD465DF8047B704780B584B080
:104F380000AF78607B689B6BFB60FB685B6A7A6894
:104F48009A4207D1FB6801221A77FB68012283F88D
:104F58003E202AE0FB689B6A7A689A4207D1FB6880
:104F680002221A77FB68012283F83F201DE0FB68C4
:104F7800DB6A7A689A4207D1FB6804221A77FB68D1
:104F8800012283F8402010E0FB681B6B7A689A4284
:104F980007D1FB6808221A77FB68012283F84120B1
:104FA80003E0FB68012283F83D20F868FFF7B4FFAF
:104FB800FB6800221A7700BF1037BD4680BD80B558
:104FC80084B000AF78607B689B6BFB60FB685B6AB2
:104FD8007A689A420BD1FB6801221A777B68DB69F1
:104FE800002B36D1FB68012283F83E2031E0FB68B4
:104FF8009B6A7A689A420BD1FB6802221A777B680F
:10500800DB69002B25D1FB68012283F83F2020E0D3
:10501800FB68DB6A7A689A420BD1FB6804221A772C
:105028007B68DB69002B14D1FB68012283F84020E0
:105038000FE0FB681B6B7A689A420AD1FB6808226A
:105048001A777B68DB69002B03D1FB68012283F8A0
:105058004120F86804F020FFFB6800221A7700BF9F
:105068001037BD4680BD80B584B000AF78607B68DE
:105078009B6BFB60FB685B6A7A689A4203D1FB68AA
:1050880001221A7719E0FB689B6A7A689A4203D171
:10509800FB6802221A7710E0FB68DB6A7A689A429A
:1050A80003D1FB6804221A7707E0FB681B6B7A6858
:1050B8009A4202D1FB6808221A77F868FFF722FFA4
:1050C800FB6800221A7700BF1037BD4680BD00007C
:1050D80080B485B000AF786039607B681B68FB607E
:1050E8007B68404A934213D07B68B3F1804F0FD05E
:1050F8007B683D4A93420BD07B683C4A934207D079
:105108007B683B4A934203D07B683A4A934208D172
:10511800FB6823F07003FB603B685B68FA68134325
:10512800FB607B682F4A93422BD07B68B3F1804F9A
:1051380027D07B682C4A934223D07B682B4A934222
:105148001FD07B682A4A93421BD07B68294A934226
:1051580017D07B68284A934213D07B68274A93422A
:105168000FD07B68264A93420BD07B68254A93422E
:1051780007D07B68244A934203D07B68234A934232
:1051880008D1FB6823F44073FB603B68DB68FA686E
:105198001343FB60FB6823F080023B685B691343A1
:1051A800FB607B68FA681A603B689A687B68DA6219
:1051B8003B681A687B689A627B680A4A934203D004
:1051C8007B680C4A934203D13B681A697B681A636F
:1051D8007B6801225A6100BF1437BD465DF8047B25
:1051E800704700BF00000140000400400008004074
:1051F800000C004000040140004001400044014010
:105208000048014000180040001C004000200040F9
:1052180080B487B000AF786039607B681B6A23F080
:1052280001027B681A627B681B6A7B617B685B682A
:105238003B617B689B69FB60FB6823F07003FB6044
:10524800FB6823F00303FB603B681B68FA681343A1
:10525800FB607B6923F002037B613B689B687A698A
:1052680013437B617B68204A934203D07B681F4AC3
:1052780093420CD17B6923F008037B613B68DB68B0
:105288007A6913437B617B6923F004037B617B6844
:10529800154A934203D07B68144A934211D13B6963
:1052A80023F480733B613B6923F400733B613B68E3
:1052B8005B693A6913433B613B689B693A691343ED
:1052C8003B617B683A695A607B68FA689A613B6817
:1052D8005A687B685A637B687A691A6200BF1C3710
:1052E800BD465DF8047B70470000014000040140A2
:1052F80080B487B000AF786039607B681B6A23F0A0
:1053080010027B681A627B681B6A7B617B685B683A
:105318003B617B689B69FB60FB6823F4E043FB60AF
:10532800FB6823F44073FB603B681B681B02FA6848
:105338001343FB607B6923F020037B613B689B6818
:105348001B017A6913437B617B68224A934203D02D
:105358007B68214A93420DD17B6923F080037B61EE
:105368003B68DB681B017A6913437B617B6923F027
:1053780040037B617B68174A934203D07B68164AD7
:10538800934213D13B6923F480633B613B6923F467
:1053980000633B613B685B699B003A6913433B616F
:1053A8003B689B699B003A6913433B617B683A6998
:1053B8005A607B68FA689A613B685A687B689A63A6
:1053C8007B687A691A6200BF1C37BD465DF8047BAA
:1053D800704700BF000001400004014080B487B05E
:1053E80000AF786039607B681B6A23F480727B6841
:1053F8001A627B681B6A7B617B685B683B617B68C0
:10540800DB69FB60FB6823F07003FB60FB6823F03B
:105418000303FB603B681B68FA681343FB607B6906
:1054280023F400737B613B689B681B027A69134312
:105438007B617B68214A934203D07B68204A934270
:105448000DD17B6923F400637B613B68DB681B0239
:105458007A6913437B617B6923F480637B617B6892
:10546800164A934203D07B68154A934213D13B698D
:1054780023F480533B613B6923F400533B613B6851
:105488005B691B013A6913433B613B689B691B01DC
:105498003A6913433B617B683A695A607B68FA68EA
:1054A800DA613B685A687B68DA637B687A691A62F2
:1054B80000BF1C37BD465DF8047B70470000014003
:1054C8000004014080B487B000AF786039607B6821
:1054D8001B6A23F480527B681A627B681B6A3B61F3
:1054E8007B685B687B617B68DB69FB60FB6823F436
:1054F800E043FB60FB6823F44073FB603B681B6878
:105508001B02FA681343FB603B6923F400533B61B9
:105518003B689B681B033A6913433B617B68124AEB
:10552800934203D07B68114A934209D17B6923F4E3
:1055380080437B613B685B699B017A6913437B61AC
:105548007B687A695A607B68FA68DA613B685A68EE
:105558007B681A647B683A691A6200BF1C37BD46CB
:105568005DF8047B704700BF000001400004014063
:1055780080B487B000AFF860B9607A60FB681B6AD6
:105588007B61FB681B6A23F00102FB681A62FB68F7
:105598009B693B613B6923F0F0033B617B681B011E
:1055A8003A6913433B617B6923F00A037B617A699B
:1055B800BB6813437B61FB683A699A61FB687A6947
:1055C8001A6200BF1C37BD465DF8047B704780B483
:1055D80087B000AFF860B9607A60FB681B6A23F097
:1055E8001002FB681A62FB689B697B61FB681B6A97
:1055F8003B617B6923F470437B617B681B037A6999
:1056080013437B613B6923F0A0033B61BB681B012B
:105618003A6913433B61FB687A699A61FB683A69A6
:105628001A6200BF1C37BD465DF8047B704780B422
:1056380085B000AF786039607B689B68FB60FB6869
:1056480023F07003FB603A68FB68134343F00703D9
:10565800FB607B68FA689A6000BF1437BD465DF846
:10566800047B704780B487B000AFF860B9607A6097
:105678003B60FB689B687B617B6923F47F437B61AC
:105688003B681A027B681A43BB6813437A69134361
:105698007B61FB687A699A6000BF1C37BD465DF87C
:1056A800047B704780B487B000AFF860B9607A6057
:1056B800BB6803F01F03012202FA03F37B61FB6856
:1056C8001A6A7B69DB431A40FB681A62FB681A6A2C
:1056D800BB6803F01F03796801FA03F31A43FB68F8
:1056E8001A6200BF1C37BD465DF8047B7047000096
:1056F80080B485B000AF786039607B6893F83C303F
:10570800012B01D102235AE07B68012283F83C2057
:105718007B68022283F83D207B681B685B68FB601E
:105728007B681B689B68BB60FB6823F07003FB60A9
:105738003B681B68FA681343FB607B681B68FA6860
:105748005A607B681B68214A934222D07B681B6899
:10575800B3F1804F1DD07B681B681D4A934218D057
:105768007B681B681B4A934213D07B681B681A4AE4
:1057780093420ED07B681B68184A934209D07B6815
:105788001B68174A934204D07B681B68154A9342EA
:105798000CD1BB6823F08003BB603B685B68BA68C8
:1057A8001343BB607B681B68BA689A607B680122F8
:1057B80083F83D207B68002283F83C2000231846AC
:1057C8001437BD465DF8047B704700BF00000140F8
:1057D8000004004000080040000C004000040140A4
:1057E800004001400018004080B582B000AF7860EA
:1057F8007B68002B01D101233FE07B6893F83D30A3
:10580800DBB2002B06D17B68002283F83C20786845
:10581800FCF72AF97B68242283F83D207B681B6803
:10582800DA687B681B6822F40052DA60786800F056
:10583800D9FB7B681B681A697B681B6822F4904255
:105848001A617B681B685A697B681B6822F02A0208
:105858005A617B681B68DA687B681B6842F40052EF
:10586800DA607B6800221A647B68202283F83D2076
:105878007B68202283F83E20002318460837BD465F
:1058880080BD80B485B000AFF860B9601346FB8076
:10589800FB6893F83D30DBB2202B30D1BB68002B7E
:1058A80002D0FB88002B01D1012329E0FB6893F883
:1058B8003C30012B01D1022322E0FB68012283F84E
:1058C8003C20FB68BA681A62FB68FA889A84FB680D
:1058D800FA88DA84FB6800221A64FB68212283F8BC
:1058E8003D20FB68002283F83C20FB681B68DA68CF
:1058F800FB681B6842F08002DA60002300E00223A4
:1059080018461437BD465DF8047B704780B584B0EF
:1059180000AFF860B9601346FB80FB6893F83E302F
:10592800DBB2202B1DD1BB68002B02D0FB88002BDB
:1059380001D1012316E0FB6893F83C30012B01D11B
:1059480002230FE0FB68012283F83C20FB68002259
:105958001A63FB881A46B968F86800F0C9F9034663
:1059680000E0022318461037BD4680BD80B58AB0D6
:1059780000AF78607B681B681B687B627B681B686C
:10598800DB683B627B681B685B69FB610023BB616A
:1059980000237B617B6A03F00F03BB61BB69002BAB
:1059A8000DD17B6A03F02003002B08D03B6A03F07B
:1059B8002003002B03D0786800F07DFA7CE1BB69F6
:1059C800002B00F0B180FB6903F00103002B05D127
:1059D8003B6A03F49073002B00F0A6807B6A03F007
:1059E8000103002B0AD03B6A03F48073002B05D017
:1059F8007B681B6C43F001027B681A647B6A03F0C6
:105A08000403002B0AD0FB6903F00103002B05D027
:105A18007B681B6C43F002027B681A647B6A03F0A4
:105A28000203002B0AD0FB6903F00103002B05D009
:105A38007B681B6C43F004027B681A647B6A03F082
:105A48000803002B0FD03B6A03F02003002B04D17E
:105A5800FB6903F00103002B05D07B681B6C43F046
:105A680008027B681A647B681B6C002B00F01F819E
:105A78007B6A03F02003002B07D03B6A03F0200366
:105A8800002B02D0786800F016FA7B681B685B6907
:105A980003F04003402B0CBF01230023DBB27B61E2
:105AA8007B681B6C03F00803002B02D17B69002B79
:105AB80031D0786800F056F97B681B685B6903F0A1
:105AC8004003402B23D17B681B685A697B681B689D
